:020000040000fa
:080000000001040000000000f3
:020000040000fa
:04000800e001000013
:020000040000fa
:04000c00e00100000f
:020000040000fa
:04001000e00100000b
:020000040000fa
:04001400e001000007
:020000040000fa
:04001800e001000003
:020000040000fa
:04001c00e0010000ff
:020000040000fa
:04002000e0010000fb
:020000040000fa
:04002400e0010000f7
:020000040000fa
:04002800e0010000f3
:020000040000fa
:04002c00e0010000ef
:020000040000fa
:04003000e0010000eb
:020000040000fa
:04003400e0010000e7
:020000040000fa
:04003800e0010000e3
:020000040000fa
:04003c00e0010000df
:020000040000fa
:04004000e0010000db
:020000040000fa
:04004400e0010000d7
:020000040000fa
:04004800e0010000d3
:020000040000fa
:04004c00e8170000b1
:020000040000fa
:040050002218000072
:020000040000fa
:04005400e0010000c7
:020000040000fa
:04005800e0010000c3
:020000040000fa
:04005c00e0010000bf
:020000040000fa
:04006000e0010000bb
:020000040000fa
:04006400e0010000b7
:020000040000fa
:04006800e0010000b3
:020000040000fa
:04006c00e0010000af
:020000040000fa
:04007000e0010000ab
:020000040000fa
:04007400e0010000a7
:020000040000fa
:04007800e0010000a3
:020000040000fa
:04007c00e00100009f
:020000040000fa
:04008000e00100009b
:020000040000fa
:04008400e001000097
:020000040000fa
:04008800e001000093
:020000040000fa
:04008c00e00100008f
:020000040000fa
:04009000e00100008b
:020000040000fa
:04009400e001000087
:020000040000fa
:04009800e001000083
:020000040000fa
:04009c00e00100007f
:020000040000fa
:0400a000e00100007b
:020000040000fa
:0400a400e001000077
:020000040000fa
:0400a800e001000073
:020000040000fa
:0400ac00e00100006f
:020000040000fa
:0400b000e00100006b
:020000040000fa
:0400b400e001000067
:020000040000fa
:0400b800e001000063
:020000040000fa
:0400bc00e00100005f
:020000040000fa
:0400c000e00100005b
:020000040000fa
:0400c400721a0000ac
:020000040000fa
:0400c800e001000053
:020000040000fa
:0400cc00e00100004f
:020000040000fa
:0400d000e00100004b
:020000040000fa
:0400d400e001000047
:020000040000fa
:0400d800e001000043
:020000040000fa
:04010800e001000012
:020000040000fa
:04010c00e00100000e
:020000040000fa
:04011000e00100000a
:020000040000fa
:04011400e001000006
:020000040000fa
:04011800e001000002
:020000040000fa
:04011c00e0010000fe
:020000040000fa
:04012000e0010000fa
:020000040000fa
:04012400e0010000f6
:020000040000fa
:04012800e0010000f2
:020000040000fa
:04012c00e0010000ee
:020000040000fa
:04013000e0010000ea
:020000040000fa
:04013400e0010000e6
:020000040000fa
:04013800e0010000e2
:020000040000fa
:04013c00e0010000de
:020000040000fa
:04014000e0010000da
:020000040000fa
:04014400e0010000d6
:020000040000fa
:04014800e0010000d2
:020000040000fa
:04014c00e0010000ce
:020000040000fa
:04015000e0010000ca
:020000040000fa
:04015400e0010000c6
:020000040000fa
:04015800e0010000c2
:020000040000fa
:04015c00e0010000be
:020000040000fa
:04016000e0010000ba
:020000040000fa
:04016400e0010000b6
:020000040000fa
:04016800e0010000b2
:020000040000fa
:04016c00e0010000ae
:020000040000fa
:04017000e0010000aa
:020000040000fa
:04017400e0010000a6
:020000040000fa
:04017800e0010000a2
:020000040000fa
:04017c00e00100009e
:020000040000fa
:04018000e00100009a
:020000040000fa
:04018400e001000096
:020000040000fa
:04018800e001000092
:020000040000fa
:04018c00e00100008e
:020000040000fa
:04019000e00100008a
:020000040000fa
:04019400e001000086
:020000040000fa
:04019800e001000082
:020000040000fa
:04019c00e00100007e
:020000040000fa
:0401a000e00100007a
:020000040000fa
:0401a400e001000076
:020000040000fa
:0401a800e001000072
:020000040000fa
:0401ac00e00100006e
:020000040000fa
:0401b000e00100006a
:020000040000fa
:0401b400e001000066
:020000040000fa
:0401b800e001000062
:020000040000fa
:0401bc00e00100005e
:020000040000fa
:0401c000e00100005a
:020000040000fa
:0401c400e001000056
:020000040000fa
:0401c800e001000052
:020000040000fa
:0401cc00e00100004e
:020000040000fa
:0401d000e00100004a
:020000040000fa
:0401d400e001000046
:020000040000fa
:0401d800e001000042
:020000040000fa
:100200002fa520000eff20000e0188000000000036
:10021000000020000000e000020032000001200089
:10022000200288000c00070080b821000100200097
:1002300011000700000020000000e0000200320072
:1002400000000200000000007e1d0200000000000f
:100250000040da000000fe004440a9000014200025
:100260000000e0000300320000002000a001880030
:100270004440a8000000060091018800800078003a
:100280000000eb0015003700e280400032a0b4000f
:100290009101ba00e280400032a0b4009102ba009d
:1002a000e280400032a0b4000002eb00472bde00e9
:1002b000f507b200602ce10004003a000059eb00a1
:1002c0008301e900fdff3e00040037006128e100e2
:1002d000010032000082eb000b00070011c3ba00de
:1002e0001101ba000604e00003003a000200e00039
:1002f000e5ff3a0000000600f607b200960188000c
:1003000082007800f5ff37003159ba008301e90017
:100310000c0032002159ba008301e90008003200c4
:100320000400e00003003a00e280400032a0b40084
:10033000f5ff370011d9ba008301e900faff3a004e
:100340008100e800e180400032a0b4000000060017
:10035000000000000000000000000000000000009d
:10036000000000000000000000000000000000008d
:10037000000000000000000000000000000000007d
:10038000000000000000000000000000000000006d
:10039000000000000000000000000000000000005d
:1003a000000000000000000000000000000000004d
:1003b000000000000000000000000000000000003d
:1003c0000040da000000fe006900e1000400350092
:1003d0006d00e100030034000002b10001003200b2
:1003e00000000500100005000c02e20004003d00c2
:1003f0000f42ab00020032000f02ab00feff3200e2
:100400000040da00feff37003200f800910188005a
:100410000008bb00410424006210e1000400320027
:10042000000220000010e1000a003a0051042400fc
:10043000013b88000500fc0051052000313b88008d
:10044000a10a2000313b880061e7a80000000000fd
:10045000000000003200f900000006003200f80041
:1004600060042400003b8800f2ff37003200f800ef
:100470009101880041002400013b88000208bb0074
:10048000ecff37003200f800910188005100240091
:10049000013b8800030120003218bb008301e90002
:1004a000fdff3a00e3ff37000001be001f00070018
:1004b0000470a70003f0a1006509b1001600320026
:1004c0000d0035006828e10006003500f0ff2f0020
:1004d000f1ff27000300e00013003b0001002800ab
:1004e0000000050000004000818048008502e9000e
:1004f000fcff3a0008003700f88f420002003c0081
:100500008000eb00000005008100d1000080d300d6
:100510008502e800fcff3a000300e00002003b0017
:1005200060001000e080180000000600c70ade002e
:10053000f107b200f50fb20008003200e1cf42002f
:10054000020032000170a00024000500810f70003d
:10055000010032000408050044000500810f70000e
:1005600002003a00140005008502e9000000400086
:1005700081c04800fcff3b000170a0002400050082
:10058000038368000700280007036300470ade00b2
:100590000480a100c71ade000580a100f70f20002b
:1005a0000720e100420032000728e100400032004d
:1005b000889fbe008a9fbe008c1f7800f107b200a2
:1005c000f307b2000400e000640032000170a000f4
:1005d0000500e000680032000370a00085054200bd
:1005e000eb07b1000204b8000302b80084844400a1
:1005f00060854a00020ab800848444000a854a00e3
:10060000030ab80004054500040033000804d000c4
:100610008984d2000a85d2008b05e9006158e10087
:100620003d00350002102000090161000308200090
:1006300089816100f70720008783640008867300c2
:10064000c84cde00c853dd00878474004855de00c6
:100650000300e0000600320082037600040032004e
:100660008904e80060054d000a88a3000c003a00e8
:10067000f70f20000758e10044003d000a70a10078
:10068000c75ddd000a8575008a00730009007800e7
:100690004f0678004f05be004f04be000000060064
:1006a0000a05d1008984d3008b05e800f0ff3700ec
:1006b000881f78000604780006010700070278000a
:1006c0000001fd008101fd000201070087027800a2
:1006d000850372000778a300050032000001fd00c9
:1006e0008101fd00c80007004f04780000000600eb
:1006f000850372000748a30003003200f0ff2f00bb
:10070000f1ff2700f8ff37000000200001f8270064
:1007100088807000f4ff3700880178004848dd00c9
:10072000808171004848de00c850dd000100700083
:10073000c850de00060478000b017800bb000700fb
:1007400088807000d2ff37000500e000050032000d
:10075000170020007d0007009dff37008103700017
:10076000f9ff3a00860078004f0678004f05be007a
:100770004f04be000000050083037100f9ff320042
:10078000270020007100070094ff370001f82700c0
:1007900086807000f4ff3700020250008382580008
:1007a000610039000303710062003200050372002a
:1007b000590032000300e0005500330017003a00f2
:1007c0000100e0004b0032000208e10006003100a9
:1007d000110009004288d800010178008001eb0077
:1007e0008000eb00000006006110e10055003200bf
:1007f0000002be00110009008280d800800278004b
:1008000004007800110009004288d8000101780036
:100810008001eb008500780000000600889fbe0084
:100820008a9fbe008c9fbe000386cf000c06e900a5
:100830008c1f78008c19dd00f00216000512de0016
:10084000848171000c11dd000003be008004eb0008
:10085000053cde008c3bdd000532de008483730046
:100860000c33dd00070078008800780011000900d3
:100870004388d8000202b8000306b8008c82420008
:1008800060854e008005eb000402530085825b000a
:100890000a055c008b855c000b0033008000eb00d8
:1008a0004f0678000c21de00700516000a2ddd00d1
:1008b0000a0171008c29de004f06be004f05be0004
:1008c0004f04be00000006000202420083824a007c
:1008d00060054d00e0854d000000e9000b00e000e0
:1008e000eeff3d000202420083824a000000e90060
:1008f000eaff37000000e00012003200110009009a
:100900000280d800010178008000eb0000000600a2
:100910000401be00010037006011b8001000200083
:100920008000eb00000006000001be006000b8007f
:10093000000006000001be00f0ff2f00f1ff2f00b5
:10094000000006006011b80000000600889fbe008d
:100950000004eb006138e10016003a000100e000fd
:1009600008003a00c800de004800dd0088002000d2
:100970000100e00003003a00c800de004800dd008e
:10098000680444008184cf00e984540006003400e8
:100990008908dd00f08314008703de008780700083
:1009a0000900dd0009044400610214004f04be0088
:1009b000000006000300e00008003a00c811de0055
:1009c0004811dd00880020000300e00003003a0029
:1009d000c811de004811dd00680444008384cf00a4
:1009e000e9845400060034008919dd00f083140006
:1009f0008713de00878171000911dd0009044400be
:100a0000e1021400e9ff37000478a300040032007b
:100a10000578a300030032000168a30001003a003a
:100a20000200be000160a000000006000100e0001e
:100a300026003200610111007810e10023003c0023
:100a40006022b8007010e1000400350080027800d8
:100a5000010078008000eb00700151000200e0000e
:100a60000900340070031100062add00822ade002e
:100a70008603dd00878272000200de00860bdd0047
:100a8000070070008208de0084817100f4ff2700f7
:100a90000482620084817100040028008482620064
:100aa0006102600005f0a6000000060004827100eb
:100ab000070032000000e800e08048000000060067
:100ac0000002be006000b800efff37006000b80011
:100ad000000006002700200001f0a70017002000fa
:100ae000470bde00f60fb200040032000643e800b8
:100af0000a0032004702b30000000600010378003c
:100b0000f607b2000603700002003a000703b300c4
:100b1000000006008702b300000006000103780011
:100b2000f607b20006037000020032000770a00052
:100b3000000006000760a00000000600889fbe00bd
:100b40008a9fbe008c9fbe008e1f78000106780031
:100b50000c00e00001003200000e780080047800f4
:100b6000090578008a047800b905fb000b007800bd
:100b700015fe07000000e000f9ff3a00d002200057
:100b8000808f550003003a000905780018c0b300b3
:100b9000050037000044eb00b0022000808f5500b4
:100ba00001003a00090578006000b8008004eb00fd
:100bb0000007eb00010037000a05e8000a01780091
:100bc0000848a30005003a00e3c2b3009acf110021
:100bd00002003a000844a000f7ff37009a45780069
:100be0008b01fb000303b100e98f510016003e00aa
:100bf0000814a0000801fb00e98f54000e00320029
:100c00000248a300010032000e07e9008904e80051
:100c1000a2002000030020006301070002cdb30002
:100c200002c145000281fb008001eb000000410091
:100c300081804900e0ff37000248a300deff3a0050
:100c40000e07e800dcff370053c6b30083cf550022
:100c5000040032008004eb0053c4b30083cf55007e
:100c60002d003a005a417800d3c2b300834f51009f
:100c700002003a000834a00003003700b3c2b300fa
:100c8000834f510001003a000a05e8000a0178008c
:100c9000020578003a42780003c3b300834f520044
:100ca000faff32008402fb000503b1008004eb0070
:100cb000e98f520015003e00834452008984fb00f6
:100cc0000a017800124278008402fb000503b1009b
:100cd000e98f52000d003e006a4bb9008344520078
:100ce0008984fb0086844400524278008402fb0021
:100cf0000503b100e98f520004003e006a4bb900c1
:100d0000834452008984fb00868444000838a30091
:100d1000010032008904ea000c00e0000300320008
:100d20000818a30001003200020e78001b01070022
:100d30000005be000006be006011b80013010700e8
:100d4000000178006000b8000200e00058003200a6
:100d50008e84440032f82f00828f540003003d003f
:100d60002202200072528800510037000008200043
:100d7000808f540007003400200220007052880049
:100d80000808a300450032000000200001f82f00f1
:100d9000470037000900e0001b003d008904ea001d
:100da00006003700922f2000530125000a00be00e4
:100db000030107000005be00ea845400e98f5400d7
:100dc000f8ff3c0006003700020020000312240058
:100dd0000a00be00fa0007000005be008904e90011
:100de0000900e000f8ff3a000a06be0002002000f9
:100df000030820000a00be00e40007000000e00035
:100e000021003d001b0037000900e00007003a0008
:100e10001d003700922f2000530125000a00be005c
:100e2000d7fd07000005be00ea845400e9cf540056
:100e3000f8ff3e00060037000200200003122400e5
:100e40000a00be00cefd07000005be008904e900cf
:100e50000900e000f8ff3a000a06be00f2ff2f008a
:100e6000f3f727000a00be00ca0007000000e000f8
:100e7000050034000808a3000b0032000000200029
:100e8000010828000a0037000808a300010032000a
:100e90000df0a2000c00be0005003700000020008d
:100ea00001f82700020037000000200001082000a0
:100eb0004f0778004f06be004f05be004f04be002e
:100ec000000006001dff37008000eb001bff37000d
:100ed00080007800010078003041780003c2b30040
:100ee000834f5100faff3200e94f5100f8ff320002
:100ef000edc14100834f510003003a0080007800ab
:100f000013c0b300050037008041eb00b4c2b3004a
:100f1000844f510001003a00800078000000eb008f
:100f2000020037006a02b900040041003101fb00f1
:100f30000203b100e90f5100faff36000304e0009c
:100f4000010032000000ea00000006000004780002
:100f50002a0007000800780023fd0700000378003e
:100f600081027800850178000100370004037800d1
:100f7000110009008281d800800178000602e80093
:100f80000300e000f9ff3a00034a7800110009006d
:100f90008282d800000278008141780084027800c3
:100fa000e9cf510001003400e7c1410001c3b300a3
:100fb00001d341000400e000f4ff3a00060078008d
:100fc00000000600881f7800000478000100e0009f
:100fd00005003d0008007800d3c2b3000358780034
:100fe0008100ea000100370008007800dbff0700fd
:100ff000080078004f04780000000600000006009a
:10100000b041780031c1510002003a000304e00011
:10101000fbff3a000200fb00000006000001780020
:10102000b1417800035978000304e000fcff3a0066
:1010300000000600800078003104e000feff3a0066
:101040000080ea000080400000000600889fbe008b
:101050000004be000800e00003003a00885280004f
:101060000800e000130032000800be00270007005f
:10107000000444001804e00004003a000000eb0003
:10108000805288000004eb000a0037000800be0010
:101090000b00070000004400805288001004e000ac
:1010a000020032000058eb00010037000000eb00a6
:1010b00080528800080078004f04be00000006003f
:1010c000889fbe008a1f78000105780080047800a0
:1010d0000004eb00010037000804e800b940780084
:1010e0000104e000050032008100fb000a007800e6
:1010f000190007000000e000f7ff32000800780048
:101100004f0578004f04be0000000600889fbe0017
:101110008a1f780001057800800478000004eb0045
:10112000010037000804e800b94078000104e0003d
:10113000050032008100fb000a007800060007006d
:101140000000e000f7ff3a00080078004f05780043
:101150004f04be00000006000001eb006103b80070
:101160006112b8008601420066427a00814f520047
:10117000040032000201e8000404e000f7ff3a0036
:101180008001eb000300780000000600140020003e
:1011900070013700f4ff2f006e0137004f89de0029
:1011a0008201780086013700020ab900001bb900ed
:1011b0000200b800810042008100430000000600e8
:1011c000889fbe008a9fbe008c9fbe001b0020002f
:1011d0000202be00058668000600280006066600ba
:1011e0004709de00f20fb200820032000243e8003d
:1011f00080003200c729de00f30fb2007d0032000c
:101200000343e8007b003200f107b2000170a00048
:10121000f507b2000570a000c708dd004903de0035
:10122000868070004700dd00c72add004923de000c
:10123000868272004722dd0003055100040350003e
:101240008583580003003100000040008180480081
:101250000a05e9008c1f78008a9fbe000400500038
:10126000858058000402420085824a000000400048
:10127000818048000005eb000004be006033b80028
:101280000406be000d48e1005600310011000900bf
:101290004dccd8000c01b8000d02b800848141008b
:1012a00060824a008283530003045c0084845c00f3
:1012b00060055d000a00e00025003a008005780026
:1012c0000d40e100490031008800780007007800f7
:1012d000110009004d88d8000c01b8000d02b800bb
:1012e0008481410060824a006003110083835b00b7
:1012f00004045c00e0845c000900e00021003a0086
:101300004f01be000300e0002b003200e30160004b
:10131000070673008c8171000100320064007000c8
:101320004200de004e5edd000c007000c258de00a0
:1013300001e0a000b4000700cf01780081807100b7
:101340004f06be004f05be004f04be000000060061
:101350008c8343000d044c00e0844c0060054d007c
:101360000000e9000a00e000d4ff32008c83430053
:101370000d044c00e0844c0060054d000000e900c5
:10138000ceff37000c0343008d834b0060044c00fc
:10139000e0844c000000e9000900e000d8ff3200c2
:1013a0000c0343008d834b0060044c00e0844c0030
:1013b0000000e900d2ff37004200de004e5edd0093
:1013c0000c007000c258de0001e0a000cf017800e0
:1013d0000300e000daff320060001000e080180037
:1013e000d7ff3700f0ff2f00aaff3700f0ff2f00d4
:1013f000b9ff37000404be00b6fd07008706780079
:101400000004fd008104fd00b2fd070007836600b3
:101410000678a300030032000960a7000800be00a0
:101420002c0037000d78a300020032000800be0037
:10143000280037000778a30026003a0001f0a10039
:1014400009f0a1000668a30003003200f1ff2700a5
:10145000f0ff2f00baff37000d68a3000300320031
:101460000800be008c807000b5ff37000768a3003d
:1014700007003a000648a30003003200f1ff2700ee
:10148000f0ff2f00aeff37000d48a300030032002d
:101490006000b8008c807000a9ff37000748a300e7
:1014a0000400320001f82700000020008c8070004a
:1014b000a3ff3700210007000004fd008104fd00a8
:1014c000020578001d0007000802be008a017800ae
:1014d00059ff37000160a0001202200072528800fc
:1014e00097ff37000100e000120032000500e00025
:1014f00010003200889fbe008a9fbe008c9fbe00f5
:101500000006eb0001f8a3000300320060001000a9
:10151000e08018000cf0a00005f8a30003003200e2
:1015200060021200e0821a000cf0a2008005eb00bd
:1015300041ff37006000b800020005004f0ade00de
:101540004709de00f107b200f20fb2000b003200d3
:10155000f207b1000170a000c708dd00c901de007c
:10156000838070004700dd000400a6000000060034
:1015700060001000e080180000000600810f70007d
:1015800001003a00000006008182cf000500e00063
:1015900010003e008082cf00ee8242007028e10001
:1015a0000400390007003e00800078000000eb00d6
:1015b0000e003700708312008600de000500dd009b
:1015c0000a003700708352008600dd000000eb0047
:1015d00006003700e28252008508dd0070831200a9
:1015e0000603de00868070000500dd007507b00090
:1015f0000501ea000400a6000000060060001000db
:10160000e080180000000600810170002700320011
:101610008002eb0001f8a30003003200600010001c
:10162000e080180015002000f407200002024200ac
:1016300020003400f7032000870360000604200028
:101640000003630002082000000161004700de0083
:10165000c909dd0000807100c708de000600e00057
:101660000800320087037100060032001000b0004d
:101670000180b0000188a30002003200c108de0032
:101680000402e800f107b200f30f20000320e1009c
:1016900003003d004722dd00810072002900370071
:1016a00001f827000000eb00260037006000b800ba
:1016b00000000600680212007f20e10002003400f2
:1016c0006000b8001f0037006011b8007020e10012
:1016d0000400350080017800010078008000eb00f4
:1016e000700252000400e00009003400f003120010
:1016f0000719dd008419de000703dd008681710013
:101700000400de00070bdd00060070008408de0028
:10171000f7ff27008383630087037100060028001a
:1017200003036300070032000700e00003003a00f3
:101730006101600002817300020032001000b000fd
:101740000180b0000500a6000000060001f0a00026
:1017500000000600889fbe008a9fbe00841f78009c
:101760007c0007004f00780011003300f0ff2f00cd
:10177000838f6c0006003b00040565000a00a7008b
:101780000800370009f0a60010002000080037000c
:10179000820f5400838f5c0003003900100020008a
:1017a00001003e000000200009f0a7000000ea0050
:1017b0004f05be004f04be000000e0000000060020
:1017c000881f7800030478000300e00007003d0054
:1017d00060001000e080180060011900e08119002d
:1017e00002003b0001f02d00030037000400070059
:1017f00008f0a70001f0a0004f04780000000600e8
:10180000889fbe008a9fbe000082700004027100a3
:1018100004827100260032000004be000200be00f7
:101820006011b8006b092000950220000182cf00f2
:101830000a0039000541b1000082cf0007003900dd
:101840000541b1000982cf00040039000541b10013
:101850000882cf00010039000541b1000542520065
:10186000120032000a003b008281710061016400b5
:101870008100d1000080d3008984d3000884d30084
:101880008b05e8000442e800f7ff3a000700370044
:101890000804440089844c0000004800818048000e
:1018a0008b05e9000442e900f9ff3a000300070054
:1018b0004f05be004f04be0000000600810020005e
:1018c000618055000b003d000b00200061fe2f00e1
:1018d0000100e1001d00340082817100610164009b
:1018e0008904d1000884d3000000e800faff3a0020
:1018f00071002000610064000300700002006000bd
:101900000900320061044400e0844c000988a5000d
:10191000050032008b05e8006808e10002003a008b
:101920008904d1000884d300f20f20000258e1009e
:1019300005003d00c75ddd00f907b2008980750034
:1019400008007800000006000bf827008b007800e4
:10195000000005000004be00f4fa07000003be000a
:101960000405be000200be00f0fa0700844f7500b7
:04197000000006006d
:020000040000fa
:101974002d6e0000730000002d7500007300000040
:101984002d6d00007300000045720000726f0000ae
:101994007200000065720000726f000072000000a7
:1019a4004469000072650000637400006f720000f7
:1019b400790000004e6f00006e650000004e0000cc
:1019c4006f6e00002053000075700000706f0000ff
:1019d400727400000a0000004163000063650000a7
:1019e400737300000a00000045720000726f00006b
:1019f400723a00004665000077200000696e00001e
:101a040070750000747300000a0000004572000045
:101a1400726f0000723a0000446f00006e270000ed
:101a2400742000006f700000657200006174000093
:101a340065200000646900007265000063740000a2
:101a44006f7200007900000045720000726f0000a0
:101a5400723a0000466900006c6500005479000089
:101a6400706500004e6f00006e65000000450000c8
:101a7400727200006f7200003a4e00006f6e000038
:101a84002053000075700000706f00007274000035
:101a940000450000727200006f7200003a410000bd
:101aa400636300006573000073000000457200006a
:101ab400726f0000723a00004e6f00007420000044
:101ac4004578000069730000740000006d65000033
:101ad4006d6f0000727900000075000073650000ee
:101ae400643a00000066000072650000653a000078
:101af400006d0000656d00006f720000795b0000ee
:101b04004b4200005d00000065720000726f00002f
:101b1400723a00006e6f00007420000064690000d7
:101b240072650000637400006f72000079000000a9
:101b3400666f0000756e0000642000006f75000081
:101b440074000000616c00006c0000005d0d00007a
:101b540000650000786900007400000062690000fc
:101b64006e0000002a0d00000000000068650000ff
:101b74006c6c00006f200000776f0000726c000036
:101b840064200000696e000020650000657000009c
:101b9400726f00006d2e00000a0000002e0000008d
:101ba4002e2e0000007200006f6f00007400000011
:101bb4003a000000200d00000a000000656e0000dd
:101bc40076000000746500006d70000000000000e5
:101bd4006d740000720000006474000000000000d6
:101be40073620000696e000000000000ff7f0000c7
:020000040000fa
:101bf40065780000697400000065000063680000f7
:101c04006f0000006c730000007000007764000037
:101c14000074000072650000650000006364000049
:101c24000073000079730000746500006d0000000b
:101c34007365000074000000676500007400000014
:101c44006c6f00006f70000000640000656c0000a1
:101c54006179000000000000fa8d00001e120000ef
:101c6400ff8d0000a60e0000048e0000721100001b
:101c7400078e0000fe1100000b8e00008c12000085
:101c8400108e000040110000138e0000fc100000b4
:101c94001a8e0000581000001e8e0000ba0f0000bb
:101ca400228e0000520f0000278e0000b40e0000a8
:020000040000fa
:101cb4002a000000556e00006b6e00006f77000074
:101cc4006e0000004e6f000074450000786900004b
:101cd40073740000004e00006f7400005375000020
:101ce40072700000706f000072740000004e0000fb
:101cf4006f7400004578000063750000746500008f
:101d0400000000005a8e00005c8e0000648e00000b
:081d14006d8e0000798e0000c5
:020000040000fa
:101d1c007273000074000000736500006c0000001a
:101d2c008e8e00002a1c0000928e0000361c0000d3
:020000040000fa
:101d3c0045720000726f0000723a00000000000053
:020000040000fa
:101d4c00e10f5000030034001100900011c0b300eb
:101d5c00870407000000eb0000000600889fbe000f
:101d6c008a9fbe008c1f7800000478000105780063
:101d7c00e10f5400410034008a04780059007800c7
:101d8c0050fc0700800578000b00e00035003200a5
:101d9c00e20f54002f003400640645009c047800c8
:101dac00d0c2b300994f100024003a00a1cb2800f8
:101dbc00090078008ffc07000000e00003003a00e7
:101dcc000b0078007906070015003700e1cb2800de
:101ddc000900780087fc07000000e00003003a00cf
:101dec000b0078007a0607000d00370021cc280084
:101dfc00090078007ffc07000000e00003003a00b7
:101e0c000b00780081060700050037008040eb00ce
:101e1c0060cc2800560407000080eb001a00370045
:101e2c000000eb00e30f540017003400e6004500ff
:101e3c0063005400c2020700130037000b00780047
:101e4c00630607000880e9008c007800bc020700dc
:101e5c000d0037000b0078005d0607000000eb005a
:101e6c0009003700a0002000590607000800e9000f
:101e7c0089007800b202070003003700a0002000a0
:101e8c00530607000000eb004f0678004f05be001c
:101e9c004f04be0000000600889fbe008a9fbe0053
:101eac000005be000080eb00e10f55002b00340054
:101ebc008b0478005900780002fc070000047800bd
:101ecc000800e000150034008a84e90064854500b0
:101edc000c0037008a00780009007800980207008f
:101eec000000e00005003d008040eb00c0cc280065
:101efc001f0407000080eb00180037000804e900fd
:101f0c00e1030700600307000000e00010003a0046
:101f1c000800e000efff3c00100037000a05e90064
:101f2c0006003700890078000a0078008402070058
:101f3c000000e00008003500d3030700520307003f
:101f4c000000e000f7ff32000000eb000300370058
:101f5c000000eb00010037000080eb004f05be00d5
:101f6c004f04be00000006002000fa00889fbe004f
:101f7c008a9fbe008c9fbe00000678000184e8009a
:101f8c008044eb001a002000cbc2b3000d0f2000e0
:101f9c00390037000904e000020032000b407800e1
:101fac00e403070018007800910107000000e0002e
:101fbc00f8ff3200b00090000118a3002900320095
:101fcc008d806000f08f50000b00320003003e004b
:101fdc000100e0000b0032001f003700020320005c
:101fec00828f50000a00320070014100828f500035
:101ffc0019003a000e00370020cd28008c03070092
:10200c001a003700c0cd28008903070017003700dd
:10201c0040009000a20020009000780040fd2f00ae
:10202c000f004000e4fb0700810307000f0037009e
:10203c00400090001000be0018f90700a20020001c
:10204c008000780040fd2f000f004000dafb0700f5
:10205c00770307000500370010ce28007403070033
:10206c0002003700e0ce2800710307000a05e800e3
:10207c000884e80019c0b3008a0f5600c5ff3c0065
:10208c0081030700d0c0b300aa0307000000eb00d7
:10209c004f06be004f05be004f04be000080fa0084
:1020ac0000000600889fbe008a9fbe008c9fbe0069
:1020bc008e1f780000057800e20f550005003c00eb
:1020cc008040eb0060cf2800a90307000080eb00e4
:1020dc004100370064844000190020000b0f2000e1
:1020ec000d03200078b89700410107000000e000c4
:1020fc002e003200b00090000118a3002600320020
:10210c008b806000f08f50000a00320003003e000c
:10211c000100e0000c0032001a0037008d8f5000d7
:10212c000e00320002042000828f500015003a008d
:10213c000f0037008040eb0080d028008c03070094
:10214c000080eb00240037008040eb0060d22800b8
:10215c00870307000080eb001f003700400790004a
:10216c001800780057fb0700000f780013003700a9
:10217c00400790001800780050fb0700008fbe004d
:10218c000e0037008040eb0090d328007803070046
:10219c000080eb00100037008040eb00b0d428002a
:1021ac0073030700e0ff2f000b00370080d52800d9
:1021bc002c030700d0ff2f00070037008984e800ac
:1021cc00640444000900e8008a0f5000c5ff350084
:1021dc002d0307000000eb004f0778004f06be00f0
:1021ec004f05be004f04be00000006002000fa00a0
:1021fc0080d628001b030700f0d628000c0307002c
:10220c00f1040700a20020008000780000fe2f00df
:10221c000f00400068fb07001203070050d728008e
:10222c0003030700db040700a200200080007800f5
:10223c0000fe2f000f0040005ffb070009030700a2
:10224c00b0d72800fa020700e3040700a200200020
:10225c008000780000fe2f000f00400056fb0700a6
:10226c0000030700080307000000eb000080fa00e1
:10227c00000006000001eb00e10f500014003400d8
:10228c00110090005f0107000000e0000c0032001c
:10229c00b0009000010fb200f08f500003003a0024
:1022ac00a50007000001eb000900370011c0b300c6
:1022bc0060d828002e0307000001eb000400370053
:1022cc0011c0b300a0d92800290307000081eb003e
:1022dc0002007800000006002000fa00889fbe0073
:1022ec008a1f780000047800010578009000070030
:1022fc0080047800e10f54000e003a00490490006d
:10230c000800e00008003200c9c2b30018007800d1
:10231c00c702070009407800b802070028049000a3
:10232c000800e000f9ff3a00d0c0b300b302070088
:10233c001c003700e20f54001a003a001a009000fb
:10234c0041da28002bfb07000000e00015003a00e2
:10235c00490490000800e00012003200b9c5b30037
:10236c008ada280018007800b102070009407800ca
:10237c00a2020700b8009000ef806000020120006c
:10238c00a0fd2f000f0040000bfb0700a802070068
:10239c000a007800a6020700280490000800e0005c
:1023ac00f0ff3a00b80207000000eb004f05780080
:1023bc004f04be000080fa0000000600881f780061
:1023cc000004780058000700880f50000600320007
:1023dc0018009000f9ff0700f0c2b3008702070055
:1023ec0018007800920207004f04780000000600e5
:1023fc00881f78004e000700000478004a00070090
:10240c00880f50000300320008007800ebff070033
:10241c0002003700f0c2b30078020700d0c0b3004e
:10242c00c40207000000eb004f0478000000060017
:10243c0011c0b300b0da2800cd02070080002000e4
:10244c00bffa0700881f780000db2800f7000700a0
:10245c0000047800b2002000e1e2280008007800b7
:10246c00d5010700080078004f0478000000060032
:10247c00889fbe008a9fbe0080047800810578008a
:10248c000b00e0001e0032000900e00007003400e1
:10249c000004eb00cac7b3000a40780057020700db
:1024ac000804e800888f5400fbff3c003b009000c0
:1024bc00000fb200f00f50000f003a001b00780024
:1024cc005b02070040db2800590207004b04900018
:1024dc000800e0000a0032008904e8008800780057
:1024ec0009007800e2ff0700280490000800e000d3
:1024fc00faff3a00020037001b007800590207006f
:10250c004f05be004f04be00000006000800070087
:10251c00800078000000eb00d5ff07005a0207008e
:10252c000000eb0000000600b05080000000060028
:10253c00a050800000000600a0508800000006009b
:10254c000081eb000000e00007003200e2ff2f00ea
:10255c000100e0000400320020019000a20098006d
:10256c00210098000001eb0002007800000006003a
:10257c00800078000000eb000100e0000200320057
:10258c00310090006f006000000006000000e000c9
:10259c0006003200ef806000b001900002ff2f00b7
:1025ac00028161008100710031009800000006007a
:1025bc00800078000000eb000100e0000200320017
:1025cc0031009000000fb200000006000000e00097
:1025dc0006003200010fb200b0019000f2f02f00a3
:1025ec00028161008100710031009800000006003a
:1025fc006f02b000889fbe008a9fbe008c9fbe00f9
:10260c008e1f7800f1022000f1a79f008004eb00e0
:10261c000000e000570032008000780000fd2f0021
:10262c000f0040007afa0700f0c2b3008fd0970079
:10263c0080cf500007003a00b95080001fd097009f
:10264c000004e0004b00320010fd2f000f00400092
:10265c0003003700a950800000fd2f000f00400040
:10266c00c9049000e1fc2f008f80400074fa070031
:10267c00000478001bc0b3000800e00009003a0019
:10268c003c003700e1fc2f008f8040000000eb0085
:10269c006bfa0700000478000800e00004003a0020
:1026ac00340037000add28002cdd28008046eb00c2
:1026bc00880078000a0078004efa07000000e0005d
:1026cc00f0ff32000c0037000b04e0000200320077
:1026dc00990490008d45780099049000e1fc2f003e
:1026ec008f8040000000eb0055fa070000047800d2
:1026fc000800e0001f003200880078000c00780011
:10270c003cfa07000000e000efff320008077800f9
:10271c0089bf9f00990078000100e000130032008f
:10272c000800780033fa07000000e0000b003a00c4
:10273c00e1fc2f008f80400041fa07000004780074
:10274c000800e0000b0032000fb89700c0049000a6
:10275c000900e000d6ff3a00060037000fb89700da
:10276c00a00490000900e000020032000e00e0001e
:10277c00cfff3a00090078004f0778004f06be00e3
:10278c004f05be004f04be006f02b10000000600f2
:10279c00889fbe008a9fbe00800478000004eb0076
:1027ac000900e000130032006aa12000f00545008a
:1027bc005a0078000000e0000b003200400490004a
:1027cc000800e0000800320098007800090078004a
:1027dc0008fa07000000e000060032002804900010
:1027ec000800e000f8ff3a008b0f5500f0ff3a00ac
:1027fc000004eb00080078004f05be004f04be003b
:10280c0000000600881f780000047800080078009b
:10281c0077ff07000000e00002003a000800780093
:10282c00dbff07004f04780000000600881f7800cb
:10283c000004780008007800690307000800e00035
:10284c000500320001012000310098008000eb00ef
:10285c0041009800010037000000eb004f047800a5
:10286c00000006003503070050dd2800efff0700cd
:10287c00b0508800a0508800000006000081eb00da
:10288c000000e0000d003200e2ff2f000100e0002c
:10289c000a003200b0019000030fb200d2ff2f00eb
:1028ac00f08f510005003a00900098004001900014
:1028bc00a2009800410098000001eb000200780093
:1028cc0000000600800178000080eb000300e000af
:1028dc0011003200180ae2000500320082a120002b
:1028ec00110020005200e00007003a000100370000
:1028fc008000eb008180400080a1200003b07800b4
:10290c000000eb00040037008100e800e88f500065
:10291c00f4ff3a000080eb0000000600182aef00dc
:10292c001a2aef001c2aef001e2aef00202aef00c3
:10293c00222aef00242aef00262aef0000000600ce
:10294c00889fbe008004780001047800180078008d
:10295c00acff07000000e00003003a00200020005c
:10296c004d0407000f003700b00090000158a30081
:10297c000a0032000108a30005003200400190005b
:10298c00880078000900780002000100050037007b
:10299c0030002000400407000200370040002000f7
:1029ac003d0407004f04be00000006004f05b000b8
:1029bc00889fbe008a9fbe008c9fbe008e1f780031
:1029cc00a1dd28009ef907008000780081b79f00e8
:1029dc000000eb000100e0003000320008fe2f0088
:1029ec000f0444008006eb00a9dd28000005eb0075
:1029fc008d06e800890078000a00780090f907003d
:102a0c00002c78000000e000f9ff3a000d00e00017
:102a1c0022003400e0fd2f000080470080bf9f00a3
:102a2c000006eb008004eb000b022000c1dd280047
:102a3c000fb997005200780082bf9f0080f9070001
:102a4c0080979f00090478000000e0000c00320021
:102a5c000efa2f000f074700cadd28000804e80013
:102a6c008a0078000900780075f90700002f7800bb
:102a7c000000e000020032008b0f5400f7ff3a0018
:102a8c0001fa2f008f80400008007800acff07008f
:102a9c000c06e8008d0f5600e4ff35004f07780058
:102aac004f06be004f05be004f04be004f05b100df
:102abc0000000600881f780001047800c802070097
:102acc000000e000030032001102200031009800e9
:102adc00480098004f04780000000600889fbe0054
:102aec000104780082047800bd0207000000e000b9
:102afc00070032000800e000040032000903b300b4
:102b0c003900980048009800010037000000eb00e5
:102b1c004f04be0000000600889fbe000104780030
:102b2c0082047800ae0207000000e00007003200cb
:102b3c000800e000040032000960a0003900980091
:102b4c0048009800010037000000eb004f04be0065
:102b5c0000000600605188000000060050518800fb
:102b6c00000006004051880000000600ea00070043
:102b7c00605180000000e000010032000000010004
:102b8c0000000600e4000700505180000000e00047
:102b9c00010032000000010000000600d90007000f
:102bac00e0000700405180000000e000010032000e
:102bbc000000010000000600889fbe008a9fbe0036
:102bcc000005be00820478000900e0000e0032000f
:102bdc000000eb000004eb004200dd00008045002b
:102bec009000900010007800b2ff07008000780081
:102bfc000a00780021ff07000804e80008007800ac
:102c0c00888f5400f4ff3e000a0078004f05be0088
:102c1c004f04be0000000600004028007010880021
:102c2c000008b00060108800a0002000a0108800f0
:102c3c008520a9008540a900c00480000040a000a8
:102c4c000050a1000060a000c0048800f0cf2f004d
:102c5c009800b60000a0a000c00488008d20a80039
:102c6c008d40a8008629ef00cc29ef00cc09f80094
:102c7c008809f9008429ef004229ef004209f80085
:102c8c00ca09f90000000600304c80000000060064
:102c9c00314c8000624e80008081eb000100e0002e
:102cac0011003200a3982000e3417900f4032000c6
:102cbc0080cf510009003a00060037000201e800fd
:102ccc0004016100a3982000e341790080cf5100fa
:102cdc0002003a0082017800030037008100e9000d
:102cec00f6ff3a008081eb0003007800000006003c
:102cfc00614e800001004000f003b200a19820005a
:102d0c006140780000000600614e800081004000a8
:102d1c00f103b200614e88008629b5000000060060
:102d2c008629ef0000000600d7ff0700800078001e
:102d3c000040eb000100e0000c003200604e80000f
:102d4c00a1982000614078008000eb00f203200085
:102d5c00634e8000828f510002003200614e800071
:102d6c008100e800614e88008629ed000000060015
:102d7c00889fbe008a9fbe00000578000104780081
:102d8c000000eb000a00e000100032000800e00038
:102d9c000e0032008a04780089057800e2ff0700f3
:102dac00ed4f500004003200805c78000804e9000c
:102dbc00f9ff3a0003003700804ceb000a00780062
:102dcc0002003700804deb000a0078004f05be0072
:102ddc004f04be0000000600204c800000000600de
:102dec00204c80000060a20000f0a7000000ea0068
:102dfc000000e9004f00de0000000600514e80008c
:102e0c004294200000f178008000eb00f2032000d7
:102e1c00534e8000828f510002003200514e8000d0
:102e2c008100e800514e88008429ec000000060067
:102e3c00889fbe0080047800194078000004e000f0
:102e4c000500320009047800ecff070058407800b8
:102e5c000004e000fcff3a00090078004f04be00bb
:102e6c0000000600881f7800000478000800780035
:102e7c00efff0700d0c0b300e0ff070008007800a8
:102e8c004f047800000006008d40ab0019003a009a
:102e9c008409e200160032000f22ab0014003a0045
:102eac00f30320000001eb0004202000104a8000f6
:102ebc0041942000614078000000fb0080108800e5
:102ecc0002007800114a8000838f5000010032000c
:102edc004209ec00104a88008429ed008409e200c4
:102eec00030032007110800001006200efff32001d
:102efc008d40a800204c8000f00f5000fdff3e00dc
:102f0c00000006008429ef004229ef004209f80076
:102f1c00ca09f90000000600cda2a8000f42a900c2
:102f2c0000000600d1a2a800cda2a9000f42a80063
:102f3c0000000600881f780000447800214c8000b7
:102f4c008100e800f0032000808f500004003e0058
:102f5c0008407800a9ff0700cbff070001003700ed
:102f6c000044eb00084078004f0478000000060095
:102f7c00889fbe0000047800814478000800780027
:102f8c0029f80700214c8000010140000000eb00f3
:102f9c00f1032000810f510008003e00080078006a
:102fac00a3ff07000904e00002003200d0c0b30008
:102fbc0092ff0700b4ff0700080078004f04be0022
:102fcc0000000600809fbe00829fbe00841f780018
:102fdc003400f80000002000a0018800f00320005d
:102fec000002eb00911080008609e3000a003e000d
:102ffc00424c8000a3982000817179008629ec0056
:10300c00840078008809e30002003200414c800003
:10301c008100e800414c88000e02ab00f1ff3a0041
:10302c008520a9003400f9004f0278004f01be0042
:10303c004f00be0000400600809fbe00829fbe0075
:10304c00841f78003400f80000002000a0018800e4
:10305c008409e200160032000f22ab0014003a0083
:10306c00f30320000001eb0004202000104a800034
:10307c0041942000614078000000fb008010880023
:10308c0002007800114a8000838f5000010032004a
:10309c004209ec00104a88008429ed008409e20002
:1030ac00030032007110800001006200efff32005b
:1030bc00204c800000f0a7000000ea000000ea00ad
:1030cc004f00de004a00dd00f1bf2f0062048000db
:1030dc008280600081007000610488008540a90036
:1030ec003400f9004f0278004f01be004f00be00c3
:1030fc0000400600dc82a90000012000000e8800c0
:10310c00c221ef002e0ad500200e88000066200098
:10311c00400e8800ca21ef00cc21ef00d021ef0037
:10312c0000802200a00e8800d821ef00da21ef00e9
:10313c0088e0a9003005800000c0a10000d0a000ec
:10314c0000e0a0003005880090e0a800c1e1a800d4
:10315c00dc82a9000000060080007800b0518000dd
:10316c00810f50000600390090518000810f5000f3
:10317c00020036000000eb0001003700010078006f
:10318c0000000600881f780001447800f2ff070059
:10319c000000e0000a003200e14f540003003a0046
:1031ac00c00e8800da21ef0007003700e14f440021
:1031bc0003003a00d821ef00d00e8800020037003f
:1031cc00d821ef00da21ef004f0478000000060050
:1031dc00725180000201b8004118dd004f11de0071
:1031ec0002017000cf19de0002007800e5ff070035
:1031fc0000000600000178000200780000f0a70033
:10320c000000ea0080c0eb000200e0000100340086
:10321c0011c0b300eeff0700000006008000d100d3
:10322c00210e880070518800a25180000201b80064
:10323c00b3518800815180000100b8009151880081
:10324c00000006007051800000000600a0518800ac
:10325c00715180000100b800b151880000000600d7
:10326c00a051800000000600805188007151800040
:10327c000100b800915188000000060080518000c8
:10328c0000000600d10e8000c00e8000810f50009f
:10329c0001003100010078008000eb00c000dd006f
:1032ac0000002000725180008001eb0037f5070010
:1032bc00000006000004a200610060004400dd0074
:1032cc00f1fe2f00e2168000828060008100700009
:1032dc00e116880000000600d902a800d802a80058
:1032ec00d822a800c602a800c622a800a802a800de
:1032fc00a822a800c662a800c682a800c6a2a80080
:10330c00a862a800a882a800a8a2a800d842a90078
:10331c00c642a900d202a900d222a900dc42a9000f
:10332c00ca42a900d602a900d622a900d1a2a8009f
:10333c00cdc2a800cda2a900d862a900d882a9004c
:10334c00d8a2a900dc82a80000000600d0168000dc
:10335c00610060000000a2008000eb00da22ab00ec
:10336c0001003a0081002000808040000000eb004a
:10337c00c802ab0001003a00400020000080400071
:10338c000001eb00c822ab0001003a002200200033
:10339c00020040000000060061006000e1ff2f0009
:1033ac00b21680008280600081007000b116880027
:1033bc0000000600e30f50000f00320005003c0037
:1033cc00e10f500008003200e20f500010003a00ec
:1033dc0007003700e40f500009003200e50f5000e1
:1033ec000b003a0008003700401680000900370037
:1033fc007016800007003700a0168000050037000b
:10340c00d016800003003700001780000100370041
:10341c000080eb0000000600401680004c00dd0030
:10342c004f00de0000000600401680004b00dd005f
:10343c004f00de0000000600401680004a00dd0050
:10344c004f00de000000060000722000100988000a
:10345c00000120002009880028a1ef00f0ff2700c0
:10346c00300988008900a9009100a900000006001d
:10347c0030098000000006000052800000000600a9
:10348c000052800002192000110009000200d8002f
:10349c0000000600610060004700dd00f1f72f001e
:1034ac001209800082806000810070001109880080
:1034bc000000060002e224000201b800c25188009c
:1034cc00d35188006c00b900e05188000000060060
:1034dc00f051800000000600801f78003400f800d6
:1034ec0000002000a0018800e0518000420ae300a7
:1034fc0009003a0010002000f0518800100028004c
:10350c002601b40000528800f0ff27003009880023
:10351c00422aef00010037003e2aef00422aec005d
:10352c0088e0a9003400f9004f0078000040060044
:10353c00c0518000d1518000000006002180200085
:10354c00014088000000eb00010278000000e80058
:10355c006a01b90082084200ea804000ff0f500067
:10356c00faff3a003829ef00608020006213200037
:10357c00000141008000eb000108780071b89f0049
:10358c00210098006a004000820f5000faff3a00b8
:10359c0000000600014080000000eb000100e0008c
:1035ac000800320091007800100020000100e000bb
:1035bc00040032000000e800910078000100e000f7
:1035cc00fcff3a0000000600f2ff07000102200099
:1035dc0000805000000006000014200000000600cf
:1035ec0080017800014080000000eb000100e00049
:1035fc000800320011007800004088000001eb0048
:10360c0001007800120098004200980022009800f7
:10361c0003087800000006000140800001087800d3
:10362c0000408800000006000000eb0000000600cf
:10363c000000eb0000000600a0209000102090007d
:10364c00020220006df3070001002800023b8000fd
:10365c0002806000fdff3a0001002800023b800060
:10366c0002806000fdff3a0000000600002190007f
:10367c00017079000201e80002209800f10320009b
:10368c00010161008001eb00810f510002003a0042
:10369c00e9ff07001300200003007800000006007b
:1036ac00889fbe0080047800010478009840780060
:1036bc000104e0000500320009007800ebff070070
:1036cc00d84078000104e000fbff3a000000eb005a
:1036dc004f04be0000000600881f78000000eb00bd
:1036ec00d1ff07000004780081db28000800780077
:1036fc00ebff070008007800cfff07004f047800ad
:04370c0000000600b3
:020000040000fa
:10371000ce0900004600000000000000380a00004a
:10372000060000000200000080841e0000b00400bb
:103730003e0a000006000000000000002e0a000003
:103740000a000000020000003e06660026ef0000ae
:1037500032f3ee0005000000420900008c0000007a
:1037600000000000440a0000060000000000000005
:103770004a0a000004000000020000000000c80027
:1037800042000000140a00001a00000000000000bf
:103790000008000042010000000000004e0a000086
:1037a0000200000000000000500a000002000000bb
:0837b00000000000881d8000ec
:020000040000fa
:1037b8000019b10006003300211b20000100b800e9
:1037c8000100b100020032001100b100feff3a0012
:1037d800000006006500b8008100d1000080d30019
:1037e8000a0032000201240022088800100888001c
:1037f8000021ef008460a9008c60a90005e1a80001
:103808008460ae00041c04000000000000000600f4
:10381800f10420000100b8000000e0000a003200b6
:103828000203240022088800100888000021ef0005
:103838008460a9008c60a90005e1a8008460ae003e
:10384800221c040000000000000006000000fe002a
:103858000000eb0000000600bdfe070070004000fd
:1038680000000600881f7800e10f50000e003400a9
:103878001100900094f5070000047800f6ff070097
:10388800880f500002003200b9fc0700070037001b
:103898000000e00002003a00bbfc0700030037000c
:1038a800bffc070001003700b1fc07000000eb0077
:1038b8004f04780000000600881f780020df2800e9
:1038c800dbfb0700000478002200200061e92800e3
:1038d80008007800b9fc0700080078004f04780059
:1038e80000000600889fbe00dffb07000ffb0700f3
:1038f80000047800d4fa0700800478000800be00ad
:10390800dffb070009007800effb0700eaff07006c
:10391800800478000800be00d9fb07000900780081
:10392800e9fb070040000700800478000800be009b
:10393800d3fb070009007800e3fb070000de28003e
:10394800bbfb07008000780008007800ccfb07006c
:1039580062002000a1a4200040de28006ffc0700c0
:103968008000780008007800c5fb07004f04be00ff
:1039780000000600f0f12f004220b60011e1a90076
:1039880011a1a90010c1a9001081a90010a1a900c6
:103998001061a8001021a9000621ef000a21ef00fc
:1039a8000821ef0000000600740ab9007401b8008d
:1039b800830142003252880043528800000006000a
:1039c800cf00dd00f2ff27008308800003016100bb
:1039d80002817000820888000004e00001003a00bb
:1039e800442aef0000000600205280000000060074
:1039f800e10f500003003c000000eb00fefd070053
:103a080007003700110090002df5070002e02f0095
:103a1800f36f2400d8f20700a1f20700f6fd0700b3
:103a28000000eb0000000600881f7800a0de2800d8
:103a38007ffb070000047800c1cf2100e0de2800ea
:103a48001dfc070080007800080078008cfb070048
:103a5800080078004f04780000000600a1ff070066
:103a6800000006002000fa00d0c0b30089fc07005f
:103a7800e10f4000070032000102200000fe2f0085
:103a88000f004000bbfc070000fe2f000f004000a5
:103a9800c7fb07000080fa0000000600881f7800b6
:103aa80000047800e0e92800e2fc07000800440070
:103ab80041e828006100780011c0b3002dfd07001f
:103ac800785288000800ea004f04780000000600d9
:103ad80002fe070088fd07005cfe0700a5ff07003f
:103ae8004efc07000040eb00f3fd07000040eb0030
:103af80000000600f6ff0700d8ff07000afd0700d0
:083b0800d8ff0700feff3700a3
:020000040000fa
:043b100000000000b1
:020000040000fa
:0200000400fffb
:10f8000000000000000000000000000000000000f8
:10f8100000000000000000000000000000000000e8
:10f8200000000000000000000000000000000000d8
:10f8300000000000000000000000000000000000c8
:10f8400000000000000000000000000000000000b8
:10f8500000000000000000000000000000000000a8
:10f860000000000000000000000000000000000098
:10f870000000000000000000000000000000000088
:10f880000000000000000000000000000000000078
:10f890000000000000000000000000000000000068
:10f8a0000000000000000000000000000000000058
:10f8b0000000000000000000000000000000000048
:10f8c0000000000000000000000000000000000038
:10f8d0000000000000000000000000000000000028
:10f8e0000000000000000000000000000000000018
:10f8f0000000000000000000000000000000000008
:020000040000fa
:0200000401f009
:04000000f6bf000047
:020000040000fa
:0200000401f009
:04000400ff7f00007a
:020000040000fa
:0200000401f009
:04000800dfff000016
:020000040000fa
:0200000401f009
:04001400ffff0000ea
:020000040000fa
:0200000401f009
:04001800ffff0000e6
:00000001FF
