:020000040000fa
:080000000001040000000000f3
:020000040000fa
:04000800e80100000b
:020000040000fa
:04000c00e801000007
:020000040000fa
:04001000e801000003
:020000040000fa
:04001400e8010000ff
:020000040000fa
:04001800e8010000fb
:020000040000fa
:04001c00e8010000f7
:020000040000fa
:04002000e8010000f3
:020000040000fa
:04002400e8010000ef
:020000040000fa
:04002800e8010000eb
:020000040000fa
:04002c00e8010000e7
:020000040000fa
:04003000e8010000e3
:020000040000fa
:04003400e8010000df
:020000040000fa
:04003800e8010000db
:020000040000fa
:04003c00e8010000d7
:020000040000fa
:04004000e8010000d3
:020000040000fa
:04004400e8010000cf
:020000040000fa
:04004800e8010000cb
:020000040000fa
:04004c006613000037
:020000040000fa
:04005000ae130000eb
:020000040000fa
:04005400e8010000bf
:020000040000fa
:04005800e8010000bb
:020000040000fa
:04005c00e8010000b7
:020000040000fa
:04006000e8010000b3
:020000040000fa
:04006400d2160000b0
:020000040000fa
:04006800e8010000ab
:020000040000fa
:04006c00e8010000a7
:020000040000fa
:04007000e8010000a3
:020000040000fa
:04007400e80100009f
:020000040000fa
:04007800e80100009b
:020000040000fa
:04007c00e801000097
:020000040000fa
:04008000e801000093
:020000040000fa
:04008400e80100008f
:020000040000fa
:04008800e80100008b
:020000040000fa
:04008c00e801000087
:020000040000fa
:04009000e801000083
:020000040000fa
:04009400e80100007f
:020000040000fa
:04009800e80100007b
:020000040000fa
:04009c00e801000077
:020000040000fa
:0400a000e801000073
:020000040000fa
:0400a400e80100006f
:020000040000fa
:0400a800e80100006b
:020000040000fa
:0400ac00e801000067
:020000040000fa
:0400b000e801000063
:020000040000fa
:0400b400e80100005f
:020000040000fa
:0400b800e80100005b
:020000040000fa
:0400bc00e801000057
:020000040000fa
:0400c000e801000053
:020000040000fa
:0400c400881600009a
:020000040000fa
:0400c800e80100004b
:020000040000fa
:0400cc00e801000047
:020000040000fa
:0400d000e801000043
:020000040000fa
:0400d400e80100003f
:020000040000fa
:0400d800e80100003b
:020000040000fa
:04010800e80100000a
:020000040000fa
:04010c00e801000006
:020000040000fa
:04011000e801000002
:020000040000fa
:04011400e8010000fe
:020000040000fa
:04011800e8010000fa
:020000040000fa
:04011c00e8010000f6
:020000040000fa
:04012000e8010000f2
:020000040000fa
:04012400e8010000ee
:020000040000fa
:04012800e8010000ea
:020000040000fa
:04012c00e8010000e6
:020000040000fa
:04013000e8010000e2
:020000040000fa
:04013400e8010000de
:020000040000fa
:04013800e8010000da
:020000040000fa
:04013c00e8010000d6
:020000040000fa
:04014000e8010000d2
:020000040000fa
:04014400e8010000ce
:020000040000fa
:04014800e8010000ca
:020000040000fa
:04014c00e8010000c6
:020000040000fa
:04015000e8010000c2
:020000040000fa
:04015400e8010000be
:020000040000fa
:04015800e8010000ba
:020000040000fa
:04015c00e8010000b6
:020000040000fa
:04016000e8010000b2
:020000040000fa
:04016400e8010000ae
:020000040000fa
:04016800e8010000aa
:020000040000fa
:04016c00e8010000a6
:020000040000fa
:04017000e8010000a2
:020000040000fa
:04017400e80100009e
:020000040000fa
:04017800e80100009a
:020000040000fa
:04017c00e801000096
:020000040000fa
:04018000e801000092
:020000040000fa
:04018400e80100008e
:020000040000fa
:04018800e80100008a
:020000040000fa
:04018c00e801000086
:020000040000fa
:04019000e801000082
:020000040000fa
:04019400e80100007e
:020000040000fa
:04019800e80100007a
:020000040000fa
:04019c00e801000076
:020000040000fa
:0401a000e801000072
:020000040000fa
:0401a400e80100006e
:020000040000fa
:0401a800e80100006a
:020000040000fa
:0401ac00e801000066
:020000040000fa
:0401b000e801000062
:020000040000fa
:0401b400e80100005e
:020000040000fa
:0401b800e80100005a
:020000040000fa
:0401bc00e801000056
:020000040000fa
:0401c000e801000052
:020000040000fa
:0401c400e80100004e
:020000040000fa
:0401c800e80100004a
:020000040000fa
:0401cc00e801000046
:020000040000fa
:0401d000e801000042
:020000040000fa
:0401d400e80100003e
:020000040000fa
:0401d800e80100003a
:020000040000fa
:100200002fa220000eff20000e0188000000000039
:10021000000020000000e000020032000001200089
:10022000200288000c000700a0042200010020002a
:1002300011000700000020000000e0000200320072
:1002400000000200000000006e210200000000001b
:100250000040da000000fe004440a900201c2000fd
:100260000000e0000300320000002000a001880030
:100270004440a8000000060091018800800078003a
:100280000000eb0015003700e280400032a0b4000f
:100290009101ba00e280400032a0b4009102ba009d
:1002a000e280400032a0b4000002eb00472bde00e9
:1002b000f507b200602ce10004003a000059eb00a1
:1002c0008301e900fdff3e00040037006128e100e2
:1002d000010032000082eb000b00070011c3ba00de
:1002e0001101ba000604e00003003a000200e00039
:1002f000e5ff3a0000000600f607b200960188000c
:1003000082007800f5ff37003159ba008301e90017
:100310000c0032002159ba008301e90008003200c4
:100320000400e00003003a00e280400032a0b40084
:10033000f5ff370011d9ba008301e900faff3a004e
:100340008100e800e180400032a0b4000000060017
:10035000000000000000000000000000000000009d
:10036000000000000000000000000000000000008d
:10037000000000000000000000000000000000007d
:10038000000000000000000000000000000000006d
:10039000000000000000000000000000000000005d
:1003a000000000000000000000000000000000004d
:1003b000000000000000000000000000000000003d
:1003c000000000000000000000000000000000002d
:1003d0000040da000000fe006900e1000400350082
:1003e0006d00e100030034000002b10001003200a2
:1003f00000000500100005003200f800910188009f
:100400000008bb00410424006210e1000400320037
:10041000000220000010e1000a003a00510424000c
:10042000013b88000500fc0051052000313b88009d
:10043000a10a2000313b880061e7a800000000000d
:10044000000000003200f900000006003200f80051
:1004500060042400003b8800f2ff37003200f800ff
:100460009101880041002400013b88000208bb0084
:10047000ecff37003200f8009101880051002400a1
:10048000013b8800030120003218bb008301e90012
:10049000fdff3a00e3ff370003f0a200889fbe0093
:1004a0008a9fbe008c1f78001901070020013300cd
:1004b0006450e1004f0032006420e100520032003d
:1004c00003826c0007003b000905d0000306d00042
:1004d000820f54000c065d00020039000200320059
:1004e00089017800030678008582550004003d00ec
:1004f0000003fd008103fd008502ea008b854200b8
:10050000840f720002003b0060001000e0801800c1
:100510006011b8000005eb007a28e1000a003900fc
:1005200006007800c75ddd00f707b2008780750020
:100530002d003700828171000a017800610560009a
:100540008180d1000080d3008502e900f9ff3b00e3
:10055000060440008784480002003b006004140049
:10056000e0841c000988a300070032008a81710022
:1005700082817100610164008904d1000884d30084
:100580008b05e800170037000978a30013003a0034
:100590000b00e000130034008b05e9000804440060
:1005a00089844c000a4474000978a3000d003a00c5
:1005b0000b00e000070034008b05e900080444004c
:1005c00089844c0001003a000b0020000978a30048
:1005d000f7ff32000001eb0002003700828171005a
:1005e0000a0178008f0007000cf0a70001f0a000be
:1005f000d80037006420e10002003a00838f6c00cd
:10060000d80033000801be000200be00d100370050
:10061000889fbe008a9fbe008c1f7800bc00070028
:10062000c300330003866c006450e1002e003200ea
:100630006420e100330032006150e1002f003200fd
:100640006120e1003100320085855500eb07b000e4
:1006500009002000080420000500370008044400b9
:1006600089844c000a0031000603430087834b0055
:100670000001530081815b00f8ff33000203be00dc
:100680000800a0000804440089844c00f6ff3900eb
:10069000c639dd0083017300010032001300200021
:1006a0008904d1000884d3000998a3000500320012
:1006b0000800a7000300a0008904d1000884d3002b
:1006c0008b05e8008904d1000884d3000001eb0009
:1006d0000281d2005300070001f0a1000cf0a70036
:1006e00001f0a0009b0037006420e1009d00320073
:1006f0000801be000200be00f7ff37006120e100e4
:10070000980032006000b800f3ff370000002000be
:1007100001f82700f0ff370014002000d800370050
:10072000f4ff2f00d60037000001be006300070071
:100730000470a70003f0a1006509b10016003200a3
:100740000d0035006828e10006003500f0ff2f009d
:10075000f1ff27000300e00013003b000100280028
:100760000000050000004000818048008502e9008b
:10077000fcff3a0008003700f88f420002003c00fe
:100780008000eb00000005008100d1000080d30054
:100790008502e800fcff3a000300e00002003b0095
:1007a00060001000e0801800000006000001be009c
:1007b000420007000470a70003f0a10003f8a300a3
:1007c00013003a006509b10010003200090035003d
:1007d0006928e10002003500010028000000050042
:1007e00000004000818048008502e900fcff3a00db
:1007f00000000600f88f4200050035008100d1009e
:100800000080d3008502e800fcff3a0000000600eb
:100810008000eb00000005004f89de0082017800b7
:10082000b200370081002000618055000b003d00c0
:100830000b00200061fe2f000100e1001d003400cc
:1008400082817100610164008904d1000884d300b1
:100850000000e800faff3a00710020006100640027
:1008600003007000020060000900320061044400cf
:10087000e0844c000988a500050032008b05e800e3
:100880006808e10002003a008904d1000884d3001e
:10089000f20f20000258e10005003d00c75ddd00b9
:1008a000f907b20089807500080078000000060092
:1008b0000bf827008b00780000000500c70ade0057
:1008c000f107b200f50fb20008003200e1cf42009c
:1008d000020032000170a00024000500810f7000aa
:1008e000010032000408050044000500810f70007b
:1008f00002003a00140005008502e90000004000f3
:1009000081c04800fcff3b000170a00024000500ee
:100910000004be00e9ff07000003be000405be009e
:100920000200be00e5ff0700844f750000000600ce
:100930000200be006450e100050036006420e100c2
:10094000020036000968a30001003a000800be005a
:100950000160a0004f0678004f05be004f04be00a6
:1009600000000600f0ff2f00f1ff2700f9ff37001d
:10097000889fbe008a9fbe008c1f7800e4ff07009e
:10098000ebff330003866c006450e100240032006a
:100990006420e100270032006150e10022003200b3
:1009a0006120e100210032008b854200eb07b1009d
:1009b0000134b800003ab8000804420089844a00b3
:1009c000013ab8000030b8008880400009014a00b0
:1009d000040033000000400081804800020149000b
:1009e0008b05e900c909dd008301700001003200b8
:1009f00013002000c814de004814dd004709de00a3
:100a00001200b200c808de000884700085ff0700ed
:100a100001f0a1000cf0a70001f0a000cdff37000d
:100a20006120e100cfff32000801be000200be00dd
:100a3000f7ff37006150e100fcff3a00c9ff3700c3
:100a40006022b800060220000000d0008180d200a1
:100a50000482d2008582d2000000a000020252006f
:100a600083825a00030031000202420083824a005e
:100a70000000a1000603e900f3ff3a0000000600b1
:100a8000889fbe008a9fbe00841f7800a0ff0700d9
:100a90004f00780011003300f0ff2f00838f6c00af
:100aa00006003b00040565000a00a70008003700a7
:100ab00009f0a6001000200008003700820f540043
:100ac000838f5c00030039001000200001003e000d
:100ad0000000200009f0a7000000ea004f05be005a
:100ae0004f04be000000e00000000600881f7800f0
:100af000030478000300e00007003d0060001000e0
:100b0000e080180060011900e081190002003b003c
:100b100001f02d00030037000400070008f0a700d3
:100b200001f0a0004f04780000000600889fbe007e
:100b30008a9fbe000082700004027100048271006e
:100b4000260032000004be000200be006011b800a2
:100b50006b092000950220000182cf000a003900b5
:100b60000541b1000082cf00070039000541b10006
:100b70000982cf00040039000541b1000882cf008e
:100b8000010039000541b100054252001200320057
:100b90000a003b0082817100610164008100d10084
:100ba0000080d3008984d3000884d3008b05e8003b
:100bb0000442e800f7ff3a00070037000804440049
:100bc00089844c0000004800818048008b05e900c2
:100bd0000442e900f9ff3a0012ff07004f05be008a
:100be0004f04be0000000600889fbe008a9fbe0022
:100bf0008c9fbe008e1f7800010678000c00e0007c
:100c000001003200000e78008004780009057800a9
:100c10008a047800b905fb000b007800eefd0700a0
:100c20000000e000f9ff3a00d0022000808f55005c
:100c300003003a000905780018c0b300050037002a
:100c40000044eb00b0022000808f550001003a0004
:100c5000090578006000b8008004eb000007eb0095
:100c6000010037000a05e8000a0178000848a300df
:100c700005003a00e3c2b3009acf110002003a0027
:100c80000844a000f7ff37009a4578008b01fb006d
:100c90000303b100e98f510016003e000814a000c4
:100ca0000801fb00e98f54000e0032000248a30047
:100cb000010032000e07e9008904e800a2002000cc
:100cc000030020005701070002cdb30002c1450018
:100cd0000281fb008001eb0000004100818049009f
:100ce000e0ff37000248a300deff3a000e07e800ed
:100cf000dcff370053c6b30083cf55000400320039
:100d00008004eb0053c4b30083cf55002d003a009c
:100d10005a417800d3c2b300834f510002003a0019
:100d20000834a00003003700b3c2b300834f510062
:100d300001003a000a05e8000a017800020578007f
:100d40003a42780003c3b300834f5200faff3200e7
:100d50008402fb000503b1008004eb00e98f520020
:100d600015003e00834452008984fb000a0178008c
:100d7000124278008402fb000503b100e98f5200a3
:100d80000d003e006a4bb900834452008984fb0089
:100d900086844400524278008402fb000503b100bf
:100da000e98f520004003e006a4bb90083445200b0
:100db0008984fb00868444000838a30001003200c7
:100dc0008904ea000c00e000030032000818a300c8
:100dd00001003200020e78008ffe07000005be0001
:100de0000006be006011b8004bfe0700000178004d
:100df0006000b8000200e000580032008e84440019
:100e000032f82f00828f540003003d0022022000a0
:100e1000f25088005100370000082000808f5400f5
:100e20000700340020022000f05088000808a300ca
:100e3000450032000000200001f82f004700370075
:100e40000900e0001b003d008904ea0006003700ad
:100e5000922f2000530125000a00be00ecfd070080
:100e60000005be00ea845400e98f5400f8ff3c00fe
:100e70000600370002002000031224000a00be0012
:100e8000e3fd07000005be008904e9000900e00059
:100e9000f8ff3a000a06be00020020000308200006
:100ea0000a00be001cfe07000000e00021003d001b
:100eb0001b0037000900e00007003a001d00370062
:100ec000922f2000530125000a00be00a8fe070053
:100ed0000005be00ea845400e9cf5400f8ff3e004c
:100ee0000600370002002000031224000a00be00a2
:100ef0009ffe07000005be008904e9000900e0002c
:100f0000f8ff3a000a06be00f2ff2f00f3f72700b1
:100f10000a00be0002fe07000000e00005003400e9
:100f20000808a3000b003200000020000108280080
:100f30000a0037000808a300010032000df0a200eb
:100f40000c00be00050037000000200001f827005b
:100f50000200370000002000010820004f07780041
:100f60004f06be004f05be004f04be000000060045
:100f70001dff37008000eb001bff3700800078006a
:100f8000010078003041780003c2b300834f510064
:100f9000faff3200e94f5100f8ff3200edc1410085
:100fa000834f510003003a008000780013c0b30063
:100fb000050037008041eb00b4c2b300844f5100fc
:100fc00001003a00800078000000eb0002003700ca
:100fd0006a02b900040041003101fb000203b100c4
:100fe000e90f5100faff36000304e000010032006f
:100ff0000000ea000000060000037800810278008b
:101000008501780001003700040378001100090011
:101010008281d800800178000602e8000300e00029
:10102000f9ff3a00034a7800110009008282d800d3
:10103000000278008141780084027800e9cf5100f5
:1010400001003400e7c1410001c3b30001d34100f6
:101050000400e000f4ff3a000600780000000600fb
:10106000881f7800000478000100e00005003d00c2
:1010700008007800d3c2b300035878008100ea006a
:101080000100370008007800dbff07000800780047
:101090004f04780000000600b041780031c15100d3
:1010a00002003a000304e000fbff3a000200fb00ec
:1010b0000000060000017800b14178000359780073
:1010c0000304e000fcff3a00000006008000780006
:1010d0003104e000feff3a000080ea00008040009a
:1010e00000000600889fbe000004be000800e0006b
:1010f00003003a00085180000800e00013003200ad
:101100000800be0027000700000444001804e000a7
:1011100004003a000000eb00005188000004eb00de
:101120000a0037000800be000b0007000000440062
:10113000005188001004e000020032000058eb006b
:10114000010037000000eb00005188000800780023
:101150004f04be0000000600889fbe008a1f780072
:1011600001057800800478000004eb0001003700de
:101170000804e800b94078000104e00005003200ee
:101180008100fb000a007800190007000000e00061
:10119000f7ff3200080078004f0578004f04be00ca
:1011a00000000600889fbe008a1f780001057800b5
:1011b000800478000004eb00010037000804e80018
:1011c000b94078000104e000050032008100fb0016
:1011d0000a007800060007000000e000f7ff3a0070
:1011e000080078004f0578004f04be00000006009c
:1011f0000001eb006103b8006112b80086014200f3
:1012000066427a00814f5200040032000201e80079
:101210000404e000f7ff3a008001eb0003007800cf
:1012200000000600020ab900001bb9000200b80065
:0c12300081004200810043000000060025
:020000040000fa
:10123c00706f0000727400002e6500006e63000079
:10124c006f64000065720000007000006f72000097
:10125c00742e0000696400007800000061640000d6
:10126c00647200000061000064640000722e0000d3
:10127c006f6600007365000074000000707700005a
:10128c006d2e00006d61000078000000707700008a
:10129c006d2e00006d6900006e000000707700007c
:1012ac006d2e000070650000726900006f64000014
:1012bc0000700000776d00002e64000074000000c8
:1012cc006d6300002e70000065720000696f0000f5
:1012dc006400000070000000690000006400000061
:1012ec00686500006c700000006700006574000009
:1012fc00007300006574000000740000657300004a
:10130c007400000064740000006d000063000000b5
:10131c006d63000070000000657600000065000041
:10132c00767000000070000065720000696f0000ac
:10133c0064000000466f0000726d000061740000d4
:10134c003a20000067650000742000005b4e00002e
:10135c00616d0000655d00002e2e00000d5b00002d
:10136c004e6100006d6500005d2000003d7b0000bb
:10137c0000490000647800003a000000583a000070
:10138c00005900003a000000706f000072740000f9
:10139c002e6900006478000028000000293a000043
:1013ac000061000064640000723a000000610000fb
:1013bc0064640000722e00006f660000736500000c
:1013cc00743a000000700000776d00002e70000071
:1013dc0065720000696f0000643a00000070000044
:1013ec00776d00002e6d0000617800003a3000002f
:1013fc002e000000707700006d2e00006d6900005b
:10140c006e3a0000302e000000700000776d000076
:10141c002e640000743a0000006d0000632e000082
:10142c0070650000726900006f6400003a300000c3
:10143c007800000028000000757300003f290000b0
:10144c00003f0000004600006f7200006d6100005c
:10145c00743a00007365000074200000285b0000e3
:10146c004e6100006d6500005d2000005b760000a1
:10147c00616c0000756500005d2900002e2e0000d7
:10148c000d0000005b4e0000616d0000655d00000a
:10149c003d7b000000000000736500006c00000044
:1014ac0072650000626f00006f7400000072000033
:1014bc0065630000616c00006c0000006563000057
:1014cc00686f0000006f000070740000696f00000e
:1014dc006e00000072650000706500006174000011
:1014ec0000450000727200006f7200003a46000066
:1014fc006f7500006e640000206f000075740000b2
:10150c002e00000045720000726f0000723a00005d
:10151c00496e0000707500007420000069730000b3
:10152c00206200006164000000520000453a000097
:10153c0000630000686100006e67000065640000d5
:10154c00206400006562000061670000206d0000ef
:10155c006f64000065000000726500007365000098
:10156c00742000006d6f0000646500000020000016
:10157c003a000000686500006c6c00006f200000f1
:10158c00776f0000726c000064200000696e000030
:10159c002065000065700000726f00006d2e000069
:1015ac000a000000a086000001000000ff7f000080
:0415bc00ff7f0000ad
:020000040000fa
:1015c0000000fa000001eb00b1972800e0b2200013
:1015d000f50607000001eb00f197280060d9200014
:1015e000f10607000001eb0031982800e0ea200036
:1015f000ed0607000001eb0081982800a0ec200018
:10160000e90607000001eb00b198280000f4200073
:10161000e50607000001eb00e198280000f6200035
:10162000e10607000001eb0021992800e0f7200007
:10163000dd0607000001eb005199280000fe2000a4
:10164000d90607000001eb0091992800a0042100b1
:10165000d50607000080fa00000006004200fa00ec
:10166000701f9800012798000e2090000080e8006d
:1016700090007800210798000040eb00004f7800b0
:101680007e1890000000e900701f98000e20900066
:101690000080e80000279800619728002e00900045
:1016a0007dfe07000000e000030032007e1890007d
:1016b0000000e00014013d008040eb00009a28008b
:1016c000e80307000000eb00100798000f00370048
:1016d0001e0090000000e00002003200c0c2b30013
:1016e0007b0307001e00900080004000609b2000ec
:1016f00000804000100078008040eb00d903070014
:101700001e0090000000e800100798001e009000e6
:10171000eb0f5000eeff3600d0c7b300c203070046
:10172000fc0037000e20900010017800220798007e
:101730001e4078000004e00002003200c0c2b30086
:1017400063030700e19128002e00900052fe07007d
:101750000000e00020003a00f09b28007103070021
:10176000c80907000004e0000200320010c3b30003
:101770000100370000c3b30055030700c0c2b30027
:1017800053030700409c280066030700c9090700af
:101790000004e0000200320010c3b3000100370073
:1017a00000c3b3004a030700c0c2b30048030700e8
:1017b000709c28005b030700ca0907000004e000d2
:1017c0000200320010c3b3000100370000c3b300b1
:1017d0003f030700c3003700b19228002e0090009d
:1017e0002dfe07000000e0001d003a000e209000d2
:1017f0000080e80010007800e0fd07003007980046
:101800003e009000810907004007980078004700db
:1018100002012000ce00900011fe0700a09c2800cd
:10182000400307003e009000004078000043b000f5
:1018300027030700409d28003a030700780047006f
:10184000380307007e1890000000e900701f980020
:101850000e2090000080e80000279800a1003700cb
:10186000419328002e0090000bfe07000000e000ce
:101870000a003a00709d28002a0307007806070036
:101880008000780078004700a2002000f4fd0700e7
:101890007800470023030700920037009193280047
:1018a0002e009000fcfd07000000e00009003a0057
:1018b000d09d28001b030700e150800078004700fe
:1018c000a2002000e6fd070078004700150307008e
:1018d00084003700419528002e009000eefd07009f
:1018e0000000e00017003a00909e28000d0307005a
:1018f0009f040700a10020000101780011000900e9
:101900000280d8008000780078004700a200200004
:10191000d3fd070078004700020307009404070086
:10192000a100200001017800110009000280d80008
:101930008000fd00004078000043b000e402070092
:1019400068003700419428002e009000d2fd070067
:101950000000e00011003a009e04070050079800c4
:10196000de00900010042000000178001100090042
:101970008280d80060079800509f2800e902070085
:1019800078004700a2002000ee009000b4fd0700a0
:1019900078004700e302070052003700c194280096
:1019a0002e009000bcfd07000000e00011003a008e
:1019b000a104070070079800fe00900010042000aa
:1019c00000017800110009008280d800000f980003
:1019d00000a02800d302070078004700a2002000e2
:1019e0008e0890009efd070078004700cd0207009a
:1019f0003c003700f19528002e009000a6fd07005e
:101a00000000e00011003a008f040700100f98005a
:101a10009e089000100420000001780011000900c9
:101a20008280d800200f9800b0a02800bd020700d7
:101a300078004700a2002000ae08900088fd070053
:101a400078004700b702070026003700619628009b
:101a50002e00900090fd07000000e0001f003a00fb
:101a600010c0b30053080700c10320008e8040005f
:101a7000800320000e004000fe0407006e18900056
:101a8000300f980030a12800a60207007800470018
:101a9000a2002000be08900071fd070078004700fa
:101aa000a002070000a228009e0207004e18900026
:101ab000de189000300f980078004700a200200048
:101ac000be08900066fd07007800470095020700f9
:101ad00020a22800930207000200370070a228000d
:101ae00090020700a10207007e1890000000e900a4
:101af000701f98000e2090000080e80000279800da
:101b000010c0b300004f78007e1890000000e00085
:101b100004ff3c00d0c0b3006d0207009302070031
:101b20000000eb000080fa00000006000a00fa0046
:101b300030079800410798003e0090000000e9003f
:101b4000300798004e0090000080e80040079800a1
:101b50004e00900090007800110798003e00900021
:101b60000000e00005003500619728001e0090008d
:101b700049fd07000000e00071003a0090a2280033
:101b80006802070080a42800660207000000eb003e
:101b9000000f78000c0037001e0078000000e00005
:101ba00002003200c0c2b300490207001e007800e4
:101bb00080004000e09c2000008040001000780081
:101bc000580207001e0fe8001e007800e60f5000c4
:101bd000f1ff3600d0c7b3003d0207005b003700bd
:101be0004e00900090007800110798004e00900081
:101bf0000080e80090007800210798009193280069
:101c00001e00900024fd07000000e00004003a00e0
:101c10002e009000d9fc0700e050880042003700f9
:101c2000419428001e0090001bfd07000000e0000a
:101c300009003a002e009000cefc070002f02f00b1
:101c4000f37724004afb0700d8fa07000000780069
:101c5000cb03070034003700c19428001e00900019
:101c60000dfd07000000e00009003a002e00900082
:101c7000c0fc070002f02f00f37724003cfb0700b4
:101c8000cafa070000007800d603070026003700d4
:101c9000419528001e009000fffc07000000e000b6
:101ca00004003a002e009000b4fc070089030700ee
:101cb0001d003700019728001e009000f6fc070069
:101cc0000000e00004003a002e009000a9fc07008c
:101cd0005b07070014003700219728001e009000c2
:101ce000edfc07000000e00004003a002e00900028
:101cf000a0fc0700590707000b0037004197280098
:101d00001e009000e4fc07000000e00004003a0020
:101d10002e00900097fc07005707070002003700cd
:101d200070a22800ff0107003e0090000080e9003b
:101d3000300798004e009000640040004007980073
:101d40003e009000e10f5000a5ff3c000702070095
:101d50000000eb000080fa00000006000c00fa0012
:101d60004007980051079800a8070700a20020002c
:101d7000800078000e007800b9fc070011c0b300a5
:101d80000e007800370207000000eb000080fa0028
:101d9000000006000800fa00881f7800200798005d
:101da000310798000040eb00820707002e009000ea
:101db0000000e00003003a0010c0b300b5030700c4
:101dc0002b0037000040eb00b20307003e009000fc
:101dd0000080e8001000780066fc0700008fbe005d
:101de0001e00be0050fa070000007800f106070050
:101df0001e00be00b400070018c0b3006011b80098
:101e000045fa07000000e000010035000044eb0047
:101e10000804e0000b0032001e00be00aa0007000c
:101e20000200200003702400d1fa07000200200005
:101e300003f0230098f907003bfa07000000780040
:101e40000a0037001e00be009f00070002e02f00be
:101e5000f36f2400c6fa07000200200003f02300fd
:101e60008ef9070030fa070000007800070307002a
:101e70000000eb004f0478000080fa00000006002c
:101e80000800fa0020079800310798000040eb0096
:101e9000480707003e0090000080e800100078002e
:101ea00036fc0700cf80de00008fbe001e00be00a3
:101eb000cf0607000000eb000080fa0000000600db
:101ec0000800fa00200798003107980010c0b300fe
:101ed000380707003e0090000080e80010007800fe
:101ee00026fc0700cf80de00008fbe001e00be0073
:101ef000bf0607000080fa00000006001800fa0084
:101f0000200f9800310f980070070700008fbe0067
:101f1000250037003d070700800078006c0047006f
:101f2000a20020004efc07006c00470011c0b30067
:101f3000cc010700300880008000eb0020079800eb
:101f400031079800400880008000eb0040079800af
:101f5000510798004e009000de009000c000dd00a8
:101f6000000020002e019000be0190000200400001
:101f70008380480020079800310798002e009000c9
:101f8000be009000be0f5000ae8f5800030031001d
:101f9000c00007000000e000e6ff32000621ef006d
:101fa0000a21ef000821ef00ba0007000000e0005e
:101fb000d8ff32000000eb000080fa0000000600ad
:101fc0001800fa00200f9800310f9800f000470029
:101fd0006c004700a7030700280037000b07070025
:101fe0008000780064004700a20020001cfc07006d
:101ff0006400470011c0b3009a0107003008800058
:102000008000eb006007980071079800400880008e
:102010008000eb00008fbe001e00be00c001dd008e
:10202000020020006e009000fe00900002004000c0
:102030008380480060079800710798006e01900047
:10204000fe0190000e0890009e089000800f510045
:10205000818f5900030031008e0007000000e0006e
:10206000e6ff32000621ef000a21ef000821ef0011
:10207000f00047006c0047007e0307008500070062
:102080000000e000d5ff32000000eb000080fa0005
:10209000000006000600fa001007980021079800cb
:1020a0002e0090000080e80010007800b3fb0700cd
:1020b000000f78001e007800ec0607000000eb001f
:1020c0000080fa00000006000400fa00881f780073
:1020d000008fbe0018c0b30002002000e32b2c00cc
:1020e0001e00be008cf907000000e0000100350072
:1020f0000044eb000804e00004003200000020006f
:10210000e12b2c00008fbe000d00370018c0b3007b
:1021100002002000e32b24001e00be0080f907000f
:102120000000e00001003c000044eb000804e00077
:102130000300320000002000e12b2400008fbe00cd
:1021400002002000e32b24001e00be00d2f807008e
:102150003233230033ff230005fa0700020020007a
:10216000e33324002af907003233230033f7230036
:10217000caf807004f0478000080fa00000006004b
:102180000400fa001e00780000f0a000000f7800a4
:102190001e00780000d0a100000f78001e0078001b
:1021a00000a0a000000f78001e0078000070a000c2
:1021b000000f78001e0078000060a100000f78007a
:1021c0001e0078000050a100000f78001e0078006b
:1021d0000010a1000020a100000f78001e00780070
:1021e0000000a100000f78001e00900000f0a00089
:1021f000100798001e00900000b0a1001007980082
:102200001e00900000a0a000100798001e00900083
:102210000060a1000070a100100798009e009000cf
:10222000711088009e00780061108800a0002000d6
:10223000a01088008520a9008540a900c004800066
:102240000040a0000050a1000060a000c004880071
:10225000c00480000080a1000090a10000a0a000a8
:10226000c00488008d20a8008d40a800e428ef005d
:10227000e828ef0040478000304788002a29ef0017
:102280002e29ef0070498000604988000080fa0024
:10229000000006000000fa00204780000080fa00dd
:1022a000000006000200fa00889fbe00004f780080
:1022b00029478000484780000b003700a08e20008f
:1022c00000004400104078009e4f500002003a0089
:1022d00008007800070037008904e9008800e8005a
:1022e000f0032000008460000900e000f3ff3a00e2
:1022f0000080eb004f04be000080fa0000000600e2
:102300000400fa00100798009e00900040478000eb
:1023100080804000f0032000008f6000a08e20002d
:102320001e004000104078000080fa000000060007
:102330000200fa00000f7800404780009e00400035
:10234000f0032000008060004047880020478000a4
:102350001e005000204788000080fa0000000600a0
:102360000000fa00e428ef000080fa0000000600f8
:102370000000fa00881f7800c6ff07000000e00098
:102380001100320041478000a08e200000804000f4
:102390001044780041478000f0032000808f5000f7
:1023a00003003200404780000000e80001003700d1
:1023b0000000eb0040478800204780000000e90053
:1023c00020478800010037000044eb0008407800f7
:1023d0004f0478000080fa00000006000600fa00b2
:1023e000881f780010079800210798001e009000b1
:1023f0000000e000230032002e0090000000e0000a
:10240000200032009e009000010f7800d8ff0700e6
:1024100000447800ed4f54000c0032001e00900084
:10242000084878001e0090000000e800100798009f
:102430002e0090000000e900200798002e00900078
:102440000000e000f1ff3a00080037001e00900095
:102450008040eb00014878001e0090000000e8007a
:10246000100798001e007800070037001e0090003b
:102470000000e9008040eb00014878001e00780071
:10248000010037000000eb004f0478000080fa00e4
:10249000000006000000fa00504980000080fa00a9
:1024a000000006000000fa005149800000042000ee
:1024b0000080680000f0a7000000ea000000e900ca
:1024c0004f00de00004078000080fa0000000600a7
:1024d0000200fa00004f780061498000009320005c
:1024e000008040001e48780061498000f003200011
:1024f000808f500003003200604980000000e80037
:10250000010037000000eb0060498800504980005e
:102510000000e800504988001e4078000080fa0062
:10252000000006000400fa00100798009e009000ca
:10253000010f7800060037001e0090001040780060
:102540009e0090008100e80011079800e0ff07005e
:102550001e009000104078000004e000f6ff3a00f2
:102560001e0078000080fa00000006000000fa005b
:102570006104800000402000008060000000e00056
:102580001c003a00120037007149800000932000bf
:1025900000804000104078000000fb0080108800a0
:1025a00071498000f0032000808f5000030032004a
:1025b000704980000000e800010037000000eb00d7
:1025c00070498800504980000000e90050498800a7
:1025d000504980000000e0000500320071108000ca
:1025e00000202000008060000000e000e6ff3200d4
:1025f0008d40a8000080fa00000006000000fa00ec
:10260000cda2a8000f42a9000080fa000000060039
:102610000000fa00d1a2a800cda2a9000f42a80094
:102620000080fa00000006000200fa00004f780067
:10263000504980008000e800f0032000808f5000a7
:1026400005003e001e407800a1ff0700c7ff0700fd
:102650001e407800010037000040eb000080fa00c7
:10266000000006000800fa00200798006147980063
:102670002e00900095fa0700000f78005049800066
:102680009e004000f0032000808f50000c003e00b0
:10269000ae009000110798002e009000a1ff0700e7
:1026a0006e4090000004e00002003200d0c0b30091
:1026b00087ff0700adff07001e00900001003700f4
:1026c0000000eb000080fa0000000600809fbe00c2
:1026d0003400f80000002000a00188000200fa0089
:1026e00090108000004f780021478000f003200008
:1026f000808f500010003e0031478000a08e2000e7
:10270000008040001e487800204780000000e8005c
:102710002047880031478000f0032000808f500060
:1027200003003200304780000000e800010037005d
:102730000000eb00304788007010800061006000ee
:102740000000e000e6ff3a008520a9000080fa00c2
:102750003400f9004f00be0000400600809fbe001c
:10276000821f78003400f80000002000a0018800db
:102770000000fa0012003700714980000093200029
:1027800000804000104078000000fb0080108800ae
:1027900071498000f0032000808f50000300320058
:1027a000704980000000e800010037000000eb00e5
:1027b00070498800504980000000e90050498800b5
:1027c000504980000000e0000500320071108000d8
:1027d00000202000008060000000e000e6ff3200e2
:1027e0005049800000f0a7000000ea000000ea0065
:1027f0004f00de00004078000080fb0061006000b8
:102800004a00dd0062048000f1bf2f0081006100fa
:1028100001007000600488008540a9000080fa0073
:102820003400f9004f0178004f00be000040060060
:102830000600fa00dc82a9001e00780000f0a1006a
:10284000000f78001e00780000d0a100000f780073
:102850001e0078000040a0000050a1000060a10010
:102860000070a100000f78001e0078000020a10079
:102870000030a100000f78001e0078000000a100c9
:102880000010a100000f78009e007800010e880063
:10289000c221ef00c04f80000000d100200e880050
:1028a0001e0090000090a000100798001e009000ed
:1028b00000a0a000100798001e0090000040a1009a
:1028c000100798001e0090000000a100100798005b
:1028d0001e0090000050a000100798001e009000fd
:1028e0000010a100100798001e0090000060a000da
:1028f000100798001e0090000020a100100798000b
:102900009e009000410e8800ca21ef00cc21ef000c
:10291000d021ef002e00900000b0a000200798000a
:102920002e00900000d0a00020079800ae0090007c
:10293000a10e8800d821ef00da21ef0088e0a9007d
:102940003005800000c0a10000d0a00000e0a00081
:102950003005880090e0a800c1e1a800dc82a90051
:102960000080fa00000006000200fa00000f780064
:10297000e04f80009e007800808f500002003600fb
:10298000e04f800007003700005080009e00780074
:10299000808f5000020031000000eb000100370082
:1029a0001e0078000080fa00000006000400fa0013
:1029b000000f7800214798001e007800eaff07000a
:1029c000000f78001e0078000000e00002003200d6
:1029d0002e409000010037000040eb002047980097
:1029e0002e409000e14f500004003a009e00780015
:1029f000c10e8800da21ef00090037002e40900058
:102a0000e14f400004003a00d821ef009e0078001a
:102a1000d10e880002003700d821ef00da21ef0044
:102a20000080fa00000006000600fa001007980077
:102a3000414798001e0090006101b800c04f80001f
:102a40008000eb00009ab90004027800028bb90004
:102a500086027800050242000010b8000102420020
:102a6000840078004109dd004f00de0000007100a5
:102a7000cf08de00000f7800ce4090001e007800e6
:102a8000caff07000080fa00000006000600fa00f6
:102a9000200798002e00900000f0a7000000ea0038
:102aa000000f78002e0090000000e00002003400cb
:102ab00010c0b3000100370000c0eb0020479800b1
:102ac000ae4090001e007800d7ff07000080fa009b
:102ad000000006000200fa00000f78001e007800d7
:102ae0000000d100200e88009e007800c14f8800b1
:102af000d04f80006101b8001e0078008000eb001c
:102b0000009ab90004027800028bb90086027800ae
:102b1000050242000010b800010242008400780063
:102b20004008de0000007800e04f8800f04f800091
:102b30006101b8001e0078008000eb00009ab90027
:102b400004027800028bb900860278000502420078
:102b50000010b80001024200840078004008de0046
:102b600000007800005088000080fa000000060095
:102b70000000fa00c04f80000080fa00000006004c
:102b80000200fa00000f78009e007800d14f880004
:102b9000c04f80006101b8001e0078008000eb008b
:102ba000009ab90004027800028bb900860278000e
:102bb000050242000010b8000102420084007800c3
:102bc0004008de0000007800e04f88000080fa0036
:102bd000000006000000fa00d04f80000080fa00dc
:102be000000006000200fa00000f78009e00780046
:102bf000f14f8800c04f80006101b8001e007800ce
:102c00008000eb00009ab90004027800028bb90042
:102c100086027800050242000010b800010242005e
:102c2000840078004008de00000078000050880032
:102c30000080fa00000006000000fa00f04f80005b
:102c40000080fa00000006000200fa00d00e8000aa
:102c5000c10e8000810f500001003100010078009a
:102c6000000f78001e0078008000eb00c002dd003d
:102c700004002000c04f80008000eb000001be0077
:102c80000400be006ef70700000078000080fa0024
:102c9000000006000200fa00004f78001e40780095
:102ca0000004a2000080fb0000407800614060004a
:102cb0000080fb00610060004400dd00e21680003f
:102cc000f1fe2f008100610001007000e016880015
:102cd0000080fa00000006000000fa00305080007a
:102ce0000080fa00000006000200fa00000f7800e1
:102cf0009e007800115088000080fa000000060055
:102d00000000fa00205080000080fa000000060059
:102d1000809fbe003400f80000002000a001880061
:102d20000000fa006150800010508000808f500039
:102d30000a003a001000200030508800310980005d
:102d4000f05684000080500020508800f056840027
:102d5000300988000c2aef0001003700062aef0036
:102d6000605080000000e8006050880088e0a90002
:102d70000080fa003400f9004f00be000040060059
:102d80000200fa00000f78001e0078000000e0004a
:102d9000020032001e007800000001000080fa00ee
:102da000000006003600f800809fbe00829fbe0033
:102db000849fbe00869fbe003400f8000000200003
:102dc000a00188000400fa00a00880008000eb0049
:102dd0004050880051508800b00880008000eb000f
:102de000008fbe001e00be00c001dd0002002000fa
:102df0004050800051508000020040008380480015
:102e00004050880051508800405080005150800050
:102e1000420120000300200009f70700405088000d
:102e20005150880040508000515080000001be0089
:102e300000242400f100200001f7070000007800c2
:102e4000105088001421ef001821ef001621ef0028
:102e500085e0a9000080fa003400f9004f03be00ad
:102e60004f02be004f01be004f00be003600f90009
:102e7000004006000400fa00000f780011079800d7
:102e800040508000515080001e0178000089be0033
:102e9000115080001e009000010878000080fa00a8
:102ea000000006000200fa000000eb00000f7800ae
:102eb000080037001e0078006600b9008000780026
:102ec00040802000008040002100200001087800a0
:102ed0001e0fe8001e007800ff0f5000f5ff3400c1
:102ee0001200200021a52800e0982100ae00070074
:102ef0001200200061a52800c09c2100aa00070044
:102f000012002000d1a52800a09d2100a6000700e6
:102f10000001eb0041a6280020972100a200070035
:102f20000001eb0091a62800c0a321009e0007002d
:102f30000001eb0001a72800a09f21009a000700d4
:102f40000000eb00d30007000080fa00000006003c
:102f50004600fa00202798002e2090000000e00094
:102f60003f0032000000eb00000f780064004700d3
:102f7000ae2090004ff8070064004700d1ab280056
:102f800058f80700800078001e007800000040001c
:102f9000000047004002b000010878000a00370036
:102fa0001e0fe800d1ab28000000eb004df8070031
:102fb000800078001e0078000000400000004700fc
:102fc0004002b000010878001e00780000004000b8
:102fd00000004700201090000000e00003003200d5
:102fe0001e007800ef0f5000edff3400400220007b
:102ff0000e004000800078001e0078001b000700d3
:10300000100798001e009000e10f400006003200fb
:1030100041062000810f50000e003200e20f4000f8
:10302000050032000700370011c0b30070a7280068
:103030008cfd07000800370011c0b30080a82800ed
:1030400088fd0700ae209000208c200019f80700b2
:1030500001003700000000001e0090000100370052
:103060000080eb000080fa00000006000a00fa0071
:1030700030079800410798003e0090000000e000f3
:10308000460034000000eb00000f78003e003700df
:103090001e0078006600b90000007800e4004000df
:1030a0000080200000804000900078001107980008
:1030b0001e009000e20f50000f0032004e00900002
:1030c000100178001e0078006600b900000078004a
:1030d0008080e80000802000008040001000780020
:1030e00082007800ecf707000000e00002003a00e0
:1030f00010002000010037000000eb00404798005e
:103100004e4090000004e0001e00320000468000a7
:103110000000e00003003200e20f500019003e0002
:103120000d0037001e009000e10f500014003a001f
:103130001e0078006600b900800078000080200042
:103140000080400010017800ce0090003e0090000a
:1031500002000100120037001e0078006600b9006e
:10316000800078000080200000804000100178007e
:10317000ce0090003e0090000200010008003700e1
:10318000000000001e0fe8001e007800ff0f500036
:10319000bfff34000080eb0001003700e0ff2f008c
:1031a0000080fa00000006000a00fa0020079800dc
:1031b00031079800420798000000eb00000f7800ec
:1031c0000a0037001e0078006600b9000000780091
:1031d000e4004000008020000080400010007800e3
:1031e000e20f5000050032001e0fe8001e007800bc
:1031f000ff0f5000f3ff3400010037000000000013
:10320000000220009e007800808f500002003a00eb
:103210000080eb00100037001e0078006600b90047
:103220008000780000802000008040001007980097
:103230001e009000ae009000010878001e00900073
:10324000be009000110098001e009000ce0090007b
:10325000210098000000eb000080fa00000006004a
:103260000000fa00bd020700e150800001004000ac
:103270000080fa00000006000200fa00000f78004b
:103280001e0078004f00de00004078000080fa0049
:10329000000006000200fa00000f78009e0078008f
:1032a000014688001e007800e10f50000300360040
:1032b000e20f50000500320008003700cffc070085
:1032c0000040eb00c602070004003700d0fc0700f6
:1032d00010c0b300c2020700000000000080fa0026
:1032e000000006000400fa00000f780011079800a3
:1032f0001e0078000000e000050034001e00900071
:103300000080e8001000780011c0b300d5fc070071
:103310000000eb000080fa00000006000600fa0042
:1033200010079800210798001e0090000000e000a0
:10333000140034002e0090000080e8001000780097
:103340000ef70700000f78001e0078000000e00074
:1033500003003a0010002000ceff07000b003700ea
:10336000bfff07009e0f500003003a00200020001e
:10337000c8ff0700050037000000eb00c5ff07008d
:10338000020037000000eb00c2ff07000000eb0066
:103390000080fa00000006000400fa00000f780028
:1033a000110798000000fe000000eb000080fa000a
:1033b000000006000400fa00000f780011079800d2
:1033c000e2c8bf000004e00005003200b0a92800f8
:1033d00054fc070011c0b300208c2000a1fc0700a2
:1033e000208c2000dafe0700400620000080fa0052
:1033f000000006000800fa00200798003107980036
:103400002e009000e10f5000180034003e009000a4
:103410008080e8002e0090000000e90013ff070004
:10342000100798001e00900093ff07000004e000c2
:10343000020032001e0090000d0037000000eb007b
:10344000000f7800010037001e0fe8001e00780012
:10345000e10f4000fcff3a008efb07000000e00097
:10346000eaff32000000eb0001003700e0ff2f0010
:103470000080fa00000006000400fa00000f780047
:10348000110798001e007800e10f50001100340071
:103490001e0090000080e800100078009040780046
:1034a00040c6b30080cf500006003a0010c0b30001
:1034b000e2e8b70011c0b300f0a9280069fc0700da
:1034c00004003700e268ef0011c0b30020ab280011
:1034d00064fc07000000eb000080fa00000006001a
:1034e0000c00fa00889fbe00504f8000e10f500092
:1034f0002d013a00f8fd0700e10f50002a013a00c3
:10350000f84e8000094f8000c0010700cf80de0028
:103510000000540081805c00bff407002007980081
:1035200031079800104f8000214f8000baf4070047
:103530002e019000be019000d8f307007af4070036
:10354000104f8800214f8800604f8000714f80002d
:103550002e019000be01900005f507000004be009a
:10356000104f8000214f8000abf407000002be0026
:10357000804f8000914f80000001be000400be001b
:10358000fbf407000001be000800be00c3f3070003
:1035900040079800510798006000b800008fbe00f7
:1035a00018c0b30002002000e32b2c004e00900056
:1035b000de0090005af407000000e00001003c002b
:1035c0000044eb000804e0000f00320018c0b30014
:1035d00002002000e32b24004e009000de0090004b
:1035e0004df407000000e000010035000044eb004e
:1035f0000804e000040032004e019000de0190005b
:10360000028fbe001d00370018c0b300020020006a
:10361000e32b2c004e009000de0090003ef40700eb
:103620000000e000010035000044eb000804e00069
:103630000400320000002000e12b2c00008fbe00af
:103640000e00370018c0b30002002000e32b240056
:103650004e009000de00900031f407000000e00012
:1036600001003c000044eb000804e00003003200cd
:1036700000002000e12b2400008fbe00f04e8000ef
:10368000014f8000e00f5000e08f580007003a0023
:10369000304f8000414f80001e01be007ff30700c5
:1036a000304f8800414f880095003700f04e800071
:1036b000014f8000e00f5000e08f580045003400bb
:1036c000304f8000414f80001e01be0073f30700a1
:1036d00018c0b300020020000317240010f40700f4
:1036e0000000e00001003c000044eb000804e000a2
:1036f00014003200304f8000414f80001e01be0098
:1037000066f3070018c0b30002002000e32b24007a
:1037100001f407000000e000010035000044eb0068
:103720000804e00007003200304f8000414f800065
:103730001e01be0059f30700304f8800414f88003a
:103740006f003700304f8000414f80001e01be00e7
:1037500052f3070018c0b300020020000317240032
:10376000edf307000000e000010034000044eb002e
:103770000804e000050032000000200001172400ca
:10378000304f8800414f88005d003700304f800087
:10379000414f80001e01be0040f3070018c0b30077
:1037a00002002000e32b2400ddf307000000e0000e
:1037b00001003d000044eb000804e0004f0032002f
:1037c00000002000e12b2400304f8800414f88008a
:1037d0004b003700f04e8000014f8000e00f50009a
:1037e000e08f580046003d00304f8000414f800080
:1037f0001e01be0029f3070018c0b300020020001c
:1038000003172c00c4f307000000e000010035009e
:103810000044eb000804e00014003200304f800048
:10382000414f80001e01be001cf3070018c0b3000a
:1038300002002000e32b2c00b9f307000000e00099
:1038400001003c000044eb000804e00007003200e7
:10385000304f8000414f80001e01be000ff3070073
:10386000304f8800414f880025003700304f8000de
:10387000414f80001e01be0008f3070018c0b300ce
:103880000200200003172c00a5f307000000e00051
:1038900001003d000044eb000804e0000500320098
:1038a0000000200001172c00304f8800414f880095
:1038b00013003700304f8000414f80001e01be00d2
:1038c000f6f2070018c0b30002002000e32b2c0022
:1038d00091f307000000e000010034000044eb0019
:1038e0000804e0000600320000002000e12b2c005c
:1038f000304f8800414f8800010037000000000071
:10390000304f8000414f8000eff90700cf80de008c
:10391000c1f3070018c0b3006011b8007ef30700c0
:103920000000e000010035000044eb000804e00066
:103930000f003200304f8000414f8000e2f9070055
:103940006101b9004f18dd00c110de008100700078
:103950004f10dd00b0f307000200200003f0230049
:10396000cdf2070070f30700000078000d0037006b
:10397000304f8000414f8000d3f90700f1ff27004e
:103980000180b90000007800cf80de00a2f30700bc
:103990000200200003f02300c0f2070062f30700da
:1039a0000000780039fc07004f04be000080fa00d8
:1039b000000006000200fa00004f78001e41780067
:1039c000c19d200082487800ea29ef00de29ef003f
:1039d000e029ef00e229ef00e429ef006000b800e1
:1039e000304f8800414f88000080fa000000060038
:1039f0000400fa00008fbe00dc69ef001e01be006b
:103a0000f24e8800034f880010002000504f8800bd
:103a1000f04e8000014f8000be0f5000ae8f580066
:103a200005003200e229ef00e429ef006000b80051
:103a3000304f8800414f88000080fa0000000600e7
:103a40000400fa00008fbe001e01be00624f880015
:103a5000734f88000080fa00000006000400fa009e
:103a6000008fbe001e01be00824f8800934f880069
:103a70000080fa00000006000400fa00008fbe007b
:103a80001e01be00a24f8800b34f88000080fa00dc
:103a9000000006000400fa001e00780000d0a1001b
:103aa000000f78001e0078000080a0000090a000a9
:103ab00000a0a000000f78001e0078000070a10098
:103ac000000f78001e0078000060a100000f780051
:103ad0001e0078000050a000000f78001e00780043
:103ae0000030a1000040a100000f78001e00780007
:103af0000020a100000f78001e0078000010a10037
:103b0000000f78009e007800110988001e009000c8
:103b10000080a100100798001e0090000070a10016
:103b2000100798001e0090000040a0000050a10067
:103b30000060a100100798009e00900021098800f5
:103b40000080eb0040098800e056840030098800be
:103b50008900a9009100a9000080fa000000060079
:103b60000000fa008de0a900c0c0a80085e0a9000f
:103b7000d004800000c0a00000d0a10000e0a000a0
:103b8000d00488001fe1a9001fa1a9001ec1a9003f
:103b90001e81a9001ea1a9001e61a8001e21a90066
:103ba0001421ef001821ef001621ef000080fa0029
:103bb000000006000200fa00004f78001e80fb00a3
:103bc0004f00dd0062048000f1ff270081006100ea
:103bd00001007000600488001e80fb004f00dd00c3
:103be000f2088000f1ff27008100610001007000f1
:103bf000f00888000080fa00000006000000fa00cb
:103c0000300980000080fa00000006000000fa0081
:103c10003bfc07000080fa00000006000000fa00ec
:103c200037fc070071508000010178001100090085
:103c30000200d8000080fa00000006000200fa002e
:103c4000004f78001e80fb00610060004700dd002f
:103c500012098000f1f72f0081006100010070005f
:103c6000100988000080fa00000006000200fa0037
:103c7000000f78001e0078008000eb0002e22400b4
:103c80000289b900020178006002b900840178005d
:103c90000301410003e224000300b80001014100d8
:103ca0008200780080508800915088001e007800c3
:103cb0006c00b90000007800a0508800a05080007f
:103cc00009fc07000080fa00000006000000fa006e
:103cd00080508000915080000080fa0000000600b3
:103ce0000000fa00d902a800d802a800d822a80033
:103cf000c602a800c622a800a802a800a822a80000
:103d0000c662a800c682a800c6a2a800a862a80031
:103d1000a882a800a8a2a800d842a900c642a9006b
:103d2000d202a900d222a900dc42a900ca42a900fd
:103d3000d602a900d622a900d1a2a800cdc2a8000f
:103d4000cda2a900d862a900d882a900d8a2a90052
:103d5000dc82a8000080fa00000006000000fa00e3
:103d6000d01680006100600000f0a7000000ea00ab
:103d70000000e9004f00de00d1168000e280600004
:103d80000100e00002003a0081002000010037003d
:103d90008000eb0081004000401680006100600060
:103da0000000e00002003a0040002000010037005f
:103db0000000eb0080804000401680006200600040
:103dc0000000e00002003a0020002000010037005f
:103dd0000000eb00008040000080fa0000000600b8
:103de0000200fa00004f78001e80fb0061006000b6
:103df000b2168000e1ff2f00810061000100700019
:103e0000b01688000080fa00000006000200fa00e8
:103e1000000f78001e007800e30f50001000320001
:103e2000e30f500005003c00e10f50000800320095
:103e3000e20f5000080032000f003700e40f50007e
:103e400009003200e50f5000090032000a00370077
:103e50004016800009003700701680000700370008
:103e6000a016800005003700d01680000300370040
:103e700000178000010037000080eb000080fa008e
:103e8000000006000000fa00401680004300de003b
:103e9000614060000080fb0000f0a7000000ea0025
:103ea0000000ea004f00de00004078000080fa00c9
:103eb000000006000000fa00401680004400de000a
:103ec000614060000080fb0000f0a7000000ea00f5
:103ed0000000ea004f00de00004078000080fa0099
:103ee000000006000000fa00401680004500de00d9
:103ef000614060000080fb0000f0a7000000ea00c5
:103f00000000ea004f00de00004078000080fa0068
:103f1000000006000200fa000000eb000a000700a3
:103f2000000f780001ac28001e0078003200070066
:103f30001e007800430007001e00780010000700f4
:103f40000080fa00000006000800fa003007980020
:103f50000000eb00000f78003e0090000000e00041
:103f600004003a0000c02f00f1072000100798005d
:103f7000210798000000eb000080fa000000060016
:103f80000200fa00000f78000000eb000080fa0049
:103f9000000006000600fa0010079800414798004c
:103fa000f0032000000f78001e0090000020900019
:103fb0009e0090004e419000827078008000e800e2
:103fc0001e009000012098001e009000002090002c
:103fd0001e0060009e0f500004003a001e0090007a
:103fe0001800070010002000010037000000eb005f
:103ff0000080fa00000006000400fa00000f7800bc
:1040000011079800080037001e009000104078004b
:104010009e0090008100e800110798008040780021
:104020001e007800dbff07001e00900010407800a3
:104030000004e000f4ff3a000000eb000080fa000a
:10404000000006000200fa00000f78001e00780051
:10405000a02090001020900002022000e6f007004f
:10406000013b800000002800008060000000e000ac
:10407000fbff3a00013b8000000028000080600048
:104080000000e000fbff3a000000eb000080fa00b7
:044090000000060026
:020000040000fa
:10409400ec0900000c0000000200000017b7d1007a
:1040a4003817b700d1386f0012833a00dc090000da
:1040b400100000000000000070090000460000002d
:1040c400000000000e0a00000800000002000000ca
:1040d40090018000841e0000b0040000f809000074
:1040e4000c000000020000003e063200f3ee050062
:1040f4006626ef0000b00400040a00000a00000075
:1041040000000000160a0000060000000000000085
:10411400e40800008c00000000000000b609000064
:1041240026000000020000001e892b00893489004b
:1041340039894400894c890054895f008970890059
:10414400728974008966890039894400894c890020
:104154005489700089728900748900001c0a000067
:10416400020000000200000010000000000800002f
:10417400e4000000000000001e0a0000020000002d
:1041840000000000200a00000200000000000000ff
:04419400ae218000d8
:020000040000fa
:104198000000fa00100280000050a1000060a10099
:1041a8000070a1001002880011e1a90011a1a90066
:1041b80010c1a9001081a90010a1a9001061a800d0
:1041c8001021a9000621ef000a21ef000821ef00c5
:1041d8000080fa00000006000400fa00008fbe000c
:1041e8001e0090007400b900000178001e007800dd
:1041f8006000b90000007800000141009e007800ce
:10420800400120000008b800010141008200780048
:10421800b0508800c15088000080fa0000000600f5
:104228000200fa00004f78001e80fb004f00dd00fe
:1042380082088000f1ff2700810061000100700002
:10424800800888001e4078000004a2000004e000f6
:10425800010032001a2aef000080fa000000060070
:104268000000fa00d05080000080fa00000006002c
:104278000000fa0009fb0700cff40700060007005a
:104288000080fa00000006000000fa0005000700a0
:104298000080fa00000006000000fa000080fa0022
:1042a800000006002000fa00d0c0b300fbf70700aa
:1042b800e10f400005003200010220000e007800e6
:1042c80044f807000e0078001ffb07000080fa0082
:1042d800000006000000fa000f000700e4ff0700d6
:1042e80010002000ceff0700e7ff070061048000f0
:1042f80000002800008060000000e0000300320099
:1043080000a721009cfa0700f7ff370000a721004b
:1043180099fa0700f4ff37000000fa006efe070064
:1043280041f907000cfe0700d8fd070098ff0700b9
:1043380091f707000040eb0054fa07000040eb003b
:104348000080fa00000006000000fa000080fa0071
:04435800000006005b
:020000040000fa
:04435c00000000005d
:020000040000fa
:0200000400fffb
:10f8000000000000000000000000000000000000f8
:10f8100000000000000000000000000000000000e8
:10f8200000000000000000000000000000000000d8
:10f8300000000000000000000000000000000000c8
:10f8400000000000000000000000000000000000b8
:10f8500000000000000000000000000000000000a8
:10f860000000000000000000000000000000000098
:10f870000000000000000000000000000000000088
:10f880000000000000000000000000000000000078
:10f890000000000000000000000000000000000068
:10f8a0000000000000000000000000000000000058
:10f8b0000000000000000000000000000000000048
:10f8c0000000000000000000000000000000000038
:10f8d0000000000000000000000000000000000028
:10f8e0000000000000000000000000000000000018
:10f8f0000000000000000000000000000000000008
:020000040000fa
:0200000401f009
:04000000f6bf000047
:020000040000fa
:0200000401f009
:04000400ff7f00007a
:020000040000fa
:0200000401f009
:04000800dfff000016
:020000040000fa
:0200000401f009
:04001400ffff0000ea
:020000040000fa
:0200000401f009
:04001800ffff0000e6
:00000001FF
