:020000040000fa
:080000000001040000000000f3
:020000040000fa
:10000800c2010000c2010000c2010000c2010000dc
:10001800c2010000c2010000c2010000c2010000cc
:10002800c2010000c2010000c2010000c2010000bc
:10003800c2010000c2010000c2010000c2010000ac
:10004800c2010000f61100003e120000c2010000cb
:10005800c2010000c2010000c2010000c20100008c
:10006800c2010000c2010000c2010000c20100007c
:10007800c2010000c2010000c2010000c20100006c
:10008800c2010000c2010000c2010000c20100005c
:10009800c2010000c2010000c2010000c20100004c
:1000a800c2010000c2010000c2010000c20100003c
:1000b800c2010000c2010000c2010000c20100002c
:1000c800c2010000c2010000c2010000c20100001c
:1000d800c2010000c2010000c2010000c20100000c
:1000e800c2010000c2010000c2010000c2010000fc
:0800f800c2010000c20100007a
:020000040000fa
:10010800c2010000c2010000c2010000c2010000db
:10011800c2010000c2010000c2010000c2010000cb
:10012800c2010000c2010000c2010000c2010000bb
:10013800c2010000c2010000c2010000c2010000ab
:10014800c2010000f61100003e120000c2010000ca
:10015800c2010000c2010000c2010000c20100008b
:10016800c2010000c2010000c2010000c20100007b
:10017800c2010000c2010000c2010000c20100006b
:10018800c2010000c2010000c2010000c20100005b
:10019800c2010000c2010000c2010000c20100004b
:1001a800c2010000c2010000c2010000c20100003b
:1001b800c2010000c2010000c2010000c20100002b
:1001c800c2010000c2010000c2010000c20100001b
:1001d800c2010000c2010000c2010000c20100000b
:1001e800c2010000c2010000c2010000c2010000fb
:0801f800c2010000c201000079
:020000040000fa
:10020000ef9d20000eff20000e018800000000007e
:10021000000020000000e000020032000001200089
:10022000200288000c00070080b02100010020009f
:1002300011000700000020000000e0000200320072
:100240000000020000000000a01b020000000000ef
:100250000040da000000fe004440a900201b2000fe
:100260000000e0000300320000002000a001880030
:100270004440a8000000060091018800800078003a
:100280000000eb0015003700e280400032a0b4000f
:100290009101ba00e280400032a0b4009102ba009d
:1002a000e280400032a0b4000002eb00472bde00e9
:1002b000f507b200602ce10004003a000059eb00a1
:1002c0008301e900fdff3e00040037006128e100e2
:1002d000010032000082eb00040007001101ba00a7
:1002e0000200e000e8ff3a00000006003159ba00c1
:1002f0008301e9000c0032002159ba008301e900b2
:10030000080032000400e00003003a00e2804000f0
:1003100032a0b400f5ff370011d9ba008301e9001b
:10032000faff3a008100e800e180400032a0b4000a
:1003300000000600000000000000000000000000b7
:1003400000000000000000000000000000000000ad
:10035000000000000000000000000000000000009d
:10036000000000000000000000000000000000008d
:10037000000000000000000000000000000000007d
:10038000000000000040da000000fe006900e1000b
:10039000040035006d00e100030034000002b100ec
:1003a0000100320000000500100005003200f800d6
:1003b000910188000008bb00410424006210e100a4
:1003c00004003200000220000010e1000a003a00a0
:1003d00051042400013b88000500fc005105200069
:1003e000313b8800a10a2000313b880061e7a8006a
:1003f00000000000000000003200f90000000600cc
:100400003200f80060042400003b8800f2ff37004f
:100410003200f8009101880041002400013b88006f
:100420000208bb00ecff37003200f80091018800a1
:1004300051002400013b8800030120003218bb005a
:100440008301e900fdff3a00e3ff370003f0a2005b
:10045000889fbe008a9fbe008c1f7800d2000700d4
:10046000d90033006450e1004f0032006420e10005
:100470005200320003826c0007003b000905d000e7
:100480000306d000820f54000c065d000200390004
:100490000200320089017800030678008582550049
:1004a00004003d000003fd008103fd008502ea0019
:1004b0008b854200840f720002003b006000100038
:1004c000e08018006011b8000005eb007a28e10018
:1004d0000a00390006007800c75ddd00f707b200aa
:1004e000878075002d003700828171000a01780035
:1004f000610560008180d1000080d3008502e900a1
:10050000f9ff3b00060440008784480002003b00de
:1005100060041400e0841c000988a3000700320076
:100520008a81710082817100610164008904d100b7
:100530000884d3008b05e800170037000978a30072
:1005400013003a000b00e000130034008b05e900b3
:100550000804440089844c000a4474000978a3000c
:100560000d003a000b00e000070034008b05e900a5
:100570000804440089844c0001003a000b0020006c
:100580000978a300f7ff32000001eb0002003700fa
:10059000828171000a017800480007000cf0a70072
:1005a00001f0a000910037006420e10002003a0051
:1005b000838f6c00910033000801be000200be0072
:1005c0008a00370014002000d30037000001be006d
:1005d000600007000470a70003f0a1006509b100e6
:1005e000160032000d0035006828e10006003500d5
:1005f000f0ff2f00f1ff27000300e00013003b0095
:100600000100280000000500000040008180480033
:100610008502e900fcff3a0008003700f88f42002d
:1006200002003c008000eb00000005008100d100ca
:100630000080d3008502e800fcff3a000300e000e0
:1006400002003b0060001000e0801800000006007f
:100650000001be003f0007000470a70003f0a100e6
:1006600003f8a30013003a006509b100100032003e
:10067000090035006928e10002003500010028006a
:100680000000050000004000818048008502e9006c
:10069000fcff3a0000000600f88f4200050035001c
:1006a0008100d1000080d3008502e800fcff3a0001
:1006b000000006008000eb00000005008100200023
:1006c000618055000b003d000b00200061fe2f00f3
:1006d0000100e1001d0034008281710061016400ad
:1006e0008904d1000884d3000000e800faff3a0032
:1006f00071002000610064000300700002006000cf
:100700000900320061044400e0844c000988a5001f
:10071000050032008b05e8006808e10002003a009d
:100720008904d1000884d300f20f20000258e100b0
:1007300005003d00c75ddd00f907b2008980750046
:1007400008007800000006000bf827008b007800f6
:1007500000000500c70ade00f107b200f50fb20085
:1007600008003200e1cf4200020032000170a00018
:1007700024000500810f700001003200040805000c
:1007800044000500810f700002003a0014000500cb
:100790008502e9000000400081c04800fcff3b00ea
:1007a0000170a000240005000004be00e9ff07005e
:1007b0000003be000405be000200be00e5ff070006
:1007c000844f7500000006000200be006450e10086
:1007d000050036006420e100020036000968a3002d
:1007e00001003a000800be000160a0004f0678003a
:1007f0004f05be004f04be0000000600f0ff2f00b2
:10080000f1ff2700f9ff3700889fbe008a9fbe00d6
:100810008c1f7800e4ff0700ebff330003866c00b9
:100820006450e100240032006420e100270032001f
:100830006150e100220032006120e100210032001d
:100840008b854200eb07b1000134b800003ab800d4
:100850000804420089844a00013ab8000030b80018
:100860008880400009014a00040033000000400075
:1008700081804800020149008b05e900c909dd00bb
:10088000830170000100320013002000c814de0054
:100890004814dd004709de001200b200c808de007f
:1008a0000884700085ff070001f0a1000cf0a7008c
:1008b00001f0a000cdff37006120e100cfff320042
:1008c0000801be000200be00f7ff37006150e100e2
:1008d000fcff3a00c9ff37006022b8000602200082
:1008e0000000d0008180d2000482d2008582d20034
:1008f0000000a0000202520083825a00030031006f
:100900000202420083824a000000a1000603e900bf
:10091000f3ff3a0000000600889fbe008a9fbe00d9
:10092000841f7800a0ff07004f00780011003300fb
:10093000f0ff2f00838f6c0006003b00040565006c
:100940000a00a7000800370009f0a60010002000e8
:1009500008003700820f5400838f5c0003003900c9
:100960001000200001003e000000200009f0a70058
:100970000000ea004f05be004f04be000000e0008a
:1009800000000600ea874700889fbe008a9fbe00dd
:10099000810578008c9fbe008e1f7800e08f550087
:1009a00001003200800d7800000578008a0478008c
:1009b000090578003a06fb000c00780073fe07007a
:1009c000e00f5000f9ff3a00d4022000840f5600d7
:1009d00003003a008a04780018c0b300050037000d
:1009e00000447800b4022000840f560001003a0051
:1009f0008a0478008006eb006000b8000d057800de
:100a00000ecdb300e4c2b300010037008904e80052
:100a1000890278007003640004003a00994f1200c4
:100a200002003a000844a000f8ff37001946780099
:100a30000c03fb000603b100e90f530017003e0052
:100a40000814a0008802fb00e98f56000f00320056
:100a5000f0826200010032000a05e900e4b79f005d
:100a6000a2002000030020008d06e800b501070069
:100a70000e4346006fb297000683fb00070020007c
:100a80000000430081804b00e0ff3700f0826200ed
:100a9000deff3a000a05e800dcff370054c6b30069
:100aa000844f5600040032008006eb0054c4b300ab
:100ab000844f56002e003a0059427800d5c2b30048
:100ac000854f520002003a000834a00003003700ae
:100ad000b5c2b300854f520001003a008904e80016
:100ae00007c3b300890278008504780004c3b3000b
:100af00039437800874f5300faff32008603fb002a
:100b00008006eb000703b100e98f530015003e009b
:100b10008902780084465300154378008d86fb00d7
:100b20008603fb000703b100e98f53000d003e0070
:100b30006a69b90084465300554378008d86fb00ee
:100b40008603fb00828646000703b100e98f53004d
:100b500004003e006a69b900844653008d86fb009c
:100b60008286460068026400010032008d06ea00b9
:100b7000e08f550003003200620264000100320081
:100b8000850d78006c0107006011b8000002be00fe
:100b90000003be00e4b79f00d5b79f00f4b79f00e5
:100ba00087bf9f0087fe07006fb2970000017800a3
:100bb000dfb297006000b8007fb397008fbb97004b
:100bc000e00f5100600032000a85460032f82f0025
:100bd000820f550003003d0024022000d44e8800ff
:100be0005900370000082000800f5500070034002e
:100bf0002402200061046400d44e88004d003200bd
:100c00000000200001f82f004f003700e00f5500d2
:100c10001f003d000a05ea00060037000400be0080
:100c2000922f2000530125006a055500fe000700a1
:100c30000002be00e90f5500f8ff3c000600370037
:100c40000400be0002002000031224000a05e9008f
:100c5000f50007000002be00e00f5500f8ff3a0063
:100c60000403be00020020000308200087bf9f008d
:100c70000400be00f4b79f0052fe07007fb3970048
:100c80008fbb9700e00f500025003d001f0037008c
:100c9000e00f550007003a00210037000400be00b5
:100ca000922f2000530125006a055500d6fe07004b
:100cb0000002be00e94f5500f8ff3e000600370075
:100cc0000400be0002002000031224000a05e9000f
:100cd000cdfe07000002be00e00f5500f8ff3a000d
:100ce0000403be00f2ff2f00f3f7270087bf9f0029
:100cf0000400be00f4b79f000d0107007fb397000a
:100d00008fbb9700e00f50000500340061046400c1
:100d10000b00320000002000010828000a00370004
:100d2000610464000100320007f0a2000600be006a
:100d3000050037000000200001f8270002003700fe
:100d400000002000010820004f0778004f06be0079
:100d50004f05be004f04be00af00b100000006000a
:100d600008ff37008000eb0006ff370006c2b30023
:100d70000002780004007800b042780086cf52006c
:100d8000fbff3200e9cf5200f9ff3200d6c2b300b8
:100d900086cf520003003a000002780016c0b3006c
:100da000050037000043eb00b7c2b30087cf520005
:100db00001003a00000278000000eb00020037005a
:100dc0006a00b90000804200b402fb000503b100d4
:100dd000e98f5200faff3600e04f53000100320065
:100de0000000ea000000060081037800800178001e
:100df0000702780001003700850178001100090022
:100e00000282d8008302e80000027800e00f52005e
:100e1000f9ff3a00844a7800110009008283d80063
:100e2000800278000142780085037800e94f520083
:100e3000010034006742420001c3b3008151420007
:100e4000e08f5200f4ff3a00030078000000060033
:100e5000881f780000047800e08f500005003d00f6
:100e600008007800d4c2b3008100ea00045878007a
:100e70000100370008007800dbff07000800780059
:100e80004f04780000000600b042780031c25200e2
:100e900002003a00e0cf5200fbff3a000400fb00e2
:100ea0000000060000027800b1427800055a780080
:100eb000e0cf5200fcff3a0000000600000278007c
:100ec0008042eb00b4cf1200fdff3a000080ea0040
:100ed0000000420000000600889fbe000004be0023
:100ee000e00f540003003a00e84e8000e00f540089
:100ef000150032000800be0029000700000444006d
:100f00000042eb00984f120003003a000004eb008f
:100f1000e84e88000c0037000800be000d000700f6
:100f2000000044000042eb00e04e8800904f1200a9
:100f3000030032000058eb00e04e8800020037004a
:100f40000002eb00e44e8800080078004f04be0069
:100f500000000600889fbe00800478008a1f780089
:100f60000004eb0001057800010037000804e800e8
:100f7000b9407800e0cf5000050032008100fb004e
:100f80000a00780019000700e00f5000f7ff320058
:100f9000080078004f0578004f04be0000000600ee
:100fa000889fbe00800478008a1f78000004eb0050
:100fb00001057800010037000804e800b940780016
:100fc000e0cf5000050032008100fb000a007800ed
:100fd00006000700e00f5000f7ff3a000800780015
:100fe0004f0578004f04be00000006000002eb0031
:100ff000881f78006103b800060478006121b800fa
:1010000006004100e842790081cf5200040032001e
:101010000402e800e0cf5200f8ff3a000000eb00c5
:101020004f04780000000600889fbe008a9fbe0023
:101030008c1f7800dcfd0700e3fd330003866c00a5
:101040006450e1002e0032006420e10033003200e1
:101050006150e1002f0032006120e10031003200d8
:1010600085855500eb07b00009002000080420002a
:10107000050037000804440089844c000a00310050
:101080000603430087834b000001530081815b000e
:10109000f8ff33000203be000800a000080444006b
:1010a00089844c00f6ff3900c639dd0083017300e6
:1010b00001003200130020008904d1000884d3000d
:1010c0000998a300050032000800a7000300a00053
:1010d0008904d1000884d3008b05e8008904d1007d
:1010e0000884d3000001eb000281d20073fd0700e9
:1010f00001f0a1000cf0a70001f0a000bbfd37003b
:101100006420e100bdfd32000801be000200be0007
:10111000f7ff37006120e100b8fd32006000b80041
:10112000f3ff37000000200001f82700f0ff370030
:10113000f4ff2f00f8fd37004f89de0082017800b0
:1011400006003700020ab900001bb9000200b8000f
:10115000810042008100430000000600881f7800e3
:10116000030478000300e00007003d006000100069
:10117000e080180060011900e081190002003b00c6
:1011800001f02d00030037000400070008f0a7005d
:1011900001f0a0004f04780000000600889fbe0008
:1011a0008a9fbe00008270000402710004827100f8
:1011b000260032000004be000200be006011b8002c
:1011c0006b092000950220000182cf000a0039003f
:1011d0000541b1000082cf00070039000541b10090
:1011e0000982cf00040039000541b1000882cf0018
:1011f000010039000541b1000542520012003200e1
:101200000a003b0082817100610164008100d1000d
:101210000080d3008984d3000884d3008b05e800c4
:101220000442e800f7ff3a000700370008044400d2
:1012300089844c0000004800818048008b05e9004b
:101240000442e900f9ff3a001cfd07004f05be000b
:081250004f04be00000006007f
:020000040000fa
:10125800706f0000727400002e6500006e6300005d
:101268006f64000065720000007000006f7200007b
:10127800742e0000696400007800000061640000ba
:10128800647200000061000064640000722e0000b7
:101298006f6600007365000074000000707700003e
:1012a8006d2e00006d61000078000000707700006e
:1012b8006d2e00006d6900006e0000007077000060
:1012c8006d2e000070650000726900006f640000f8
:1012d80000700000776d00002e64000074000000ac
:1012e800686500006c70000000670000657400000d
:1012f800007300006574000000740000657300004e
:101308007400000064740000004600006f72000062
:101318006d610000743a00002067000065740000e9
:10132800205b00004e6100006d6500005d2e00002e
:101338002e0d00005b4e0000616d0000655d000031
:10134800203d00007b00000049640000783a00005e
:10135800005800003a000000593a000000700000f0
:101368006f720000742e0000696400007828000085
:10137800002900003a000000616400006472000067
:101388003a00000061640000647200002e6f0000e3
:1013980066730000657400003a0000007077000072
:1013a8006d2e000070650000726900006f64000017
:1013b8003a000000707700006d2e00006d6100009b
:1013c800783a0000302e000000700000776d0000b1
:1013d8002e6d0000696e00003a3000002e000000fb
:1013e800707700006d2e0000647400003a00000061
:1013f8003f000000466f0000726d0000617400003d
:101408003a73000065740000202800005b4e00005d
:10141800616d0000655d0000205b000076610000e2
:101428006c750000655d0000292e00002e0d00007f
:10143800005b00004e6100006d6500005d3d00002e
:101448007b000000736500006c00000072650000fe
:10145800626f00006f740000007200006563000096
:10146800616c00006c00000065630000686f00009c
:10147800006f000070740000696f00006e000000cb
:10148800726500007065000061740000007700005c
:10149800616b00006520000075700000206f00007f
:1014a8006e20000064650000626100006720000093
:1014b8006d6f000064650000205b0000446f000051
:1014c8006e270000742000004d7500006c74000049
:1014d80069200000636f00006e65000063740000ff
:1014e800696f00006e2e00005d0d000000450000d1
:1014f800727200006f7200003a4600006f750000bb
:101508006e640000206f0000757400002e0000005b
:1015180045720000726f0000723a0000496e0000c8
:1015280070750000742000006973000020620000dc
:101538006164000000520000453a000000630000aa
:10154800686100006e6700006564000020640000a8
:101558006562000061670000206d00006f64000094
:1015680065000000726500007365000074200000cb
:101578006d6f000064650000002000003a00000064
:10158800686500006c6c00006f200000776f000039
:10159800726c000064200000696e00002065000085
:1015a80065700000726f00006d2e00000a000000d8
:0415b800ff7f0000b1
:020000040000fa
:1015bc000000fa000001eb009197280040b02000d9
:1015cc00ad0407000001eb00d1972800a0d7200044
:1015dc00a90407000001eb001198280080e8200006
:1015ec00a50407000001eb006198280080ea2000a8
:1015fc00a10407000080fa00000006003a00fa007f
:10160c00301f9800411f98004e1a90000482e80089
:10161c0014007800200798000042eb00044f78007b
:10162c003e1a90000402e900341f98004e1a9000f4
:10163c000482e800441f9800419728002e00900077
:10164c000efe070000027800e00f5200030032008b
:10165c003e1a9000e00f520019013d008040eb0053
:10166c0090982800420307000002eb001407980032
:10167c00100037001e029000e00f520002003200f2
:10168c00c0c2b300d10207001e02900084024200c7
:10169c00649b200004824200140278008040eb001e
:1016ac0004007800320307001e0290000402e800d8
:1016bc00140798001e029000e70f5200edff360051
:1016cc00d0c7b3001a030700000137004e1a900070
:1016dc0094007800210798001e427800e04f5200d9
:1016ec0002003200c0c2b300b8020700c192280049
:1016fc002e009000e1fd070000027800e00f520080
:10170c0026003a00809a2800c6020700ea06070065
:10171c0000427800e04f52000200320014c3b300c4
:10172c000100370004c3b30004407800a70207008f
:10173c00c0c2b300a5020700d09a2800b902070066
:10174c00ea06070000427800e04f52000200320027
:10175c0014c3b3000100370004c3b3000440780085
:10176c009a020700c0c2b30098020700009b280031
:10177c00ac020700ea06070000427800e04f520076
:10178c000200320014c3b3000100370004c3b300dd
:10179c00044078008d020700c000370091932800a8
:1017ac002e009000b5fd070000027800e00f5200fb
:1017bc0023003a004e1a90000482e80014027800cc
:1017cc000400780066fd07000002780034079800da
:1017dc003e0090009706070000027800440798002e
:1017ec007602470002012000ce0090000400780031
:1017fc0094fd0700309b28008a0207003e029000ef
:10180c00044278000443b000044078006f020700e3
:10181c00d09b280083020700760247000400780062
:10182c00800207003e1a90000402e900341f980061
:10183c004e1a90000482e800441f9800970037006d
:10184c00219428002e0090008cfd070000027800e7
:10185c00e00f52000d003a00009c280071020700b6
:10186c00340407008002780076024700a2002000b2
:10187c00850078000400780072fd070076024700ae
:10188c000400780067020700840037007194280078
:10189c002e00900079fd070000027800e00f520046
:1018ac000c003a00609c28005e020700c54e8000c8
:1018bc0076024700a2002000850078000400780022
:1018cc0060fd07007602470004007800550207000f
:1018dc0072003700219628002e00900067fd07004b
:1018ec0000027800e00f52001c003a00209d2800f6
:1018fc004c0207009f05070000027800a50020009d
:10190c00110009000582d8000002780084027800da
:10191c0076024700a20020008500780004007800c1
:10192c0048fd070076024700040078003d020700de
:10193c009005070000027800a500200011000900a6
:10194c000582d80001027800044278000443b000fc
:10195c00044078001d020700500037002195280034
:10196c002e00900045fd070000027800e00f5200a9
:10197c0014003a009b0507000002780054079800f9
:10198c00de02900014042000110009008482d800ab
:10199c000002780064079800e09d280021020700ef
:1019ac0076024700a2002000ee00900004007800b0
:1019bc0024fd070076024700040078001902070096
:1019cc0036003700a19528002e0090002bfd070053
:1019dc0000027800e00f520014003a009d05070049
:1019ec000002780074079800fe0290001404200096
:1019fc00110009008482d80000027800040f9800be
:101a0c00909e28000702070076024700a2002000e3
:101a1c008e089000040078000afd0700760247004b
:101a2c0004007800ff0107001c003700d196280045
:101a3c002e00900011fd070000027800e00f52000c
:101a4c0014003a008805070000027800140f980073
:101a5c009e0a900014042000110009008482d80012
:101a6c0000027800240f9800409f2800ed01070029
:101a7c0076024700a2002000ae0890000400780017
:101a8c00f0fc07007602470004007800e50107002f
:101a9c0002003700c09f2800e2010700f501070093
:101aac003e1a90000402e900341f98004e1a900070
:101abc000482e800441f980014c0b300044f78005f
:101acc003e1a9000e00f520000ff3c00d0c0b30063
:101adc00be010700e70107000002eb0004007800dc
:101aec000080fa00000006000a00fa003007980097
:101afc00410798003e0290000402e9003407980068
:101b0c004e0290000482e800440798004e029000b8
:101b1c0094027800150798003e029000e00f5200e6
:101b2c0006003500419728001e009000d3fc0700ea
:101b3c0000027800e00f52006a003a00e09f280093
:101b4c00b8010700d0a12800b60107000002eb0085
:101b5c00040f78000d0037001e027800e00f5200d1
:101b6c0002003200c0c2b300980107001e027800c8
:101b7c0084024200649c200004824200140278001b
:101b8c0004007800a70107001e0fe8001e02780071
:101b9c00e30f5200f0ff3600d0c7b3008b010700f3
:101bac00530037004e0290009402780015079800fd
:101bbc004e0290000482e8009402780025079800f9
:101bcc00719428001e009000acfc07000002780005
:101bdc00e00f520005003a002e00900060fc070058
:101bec0000027800c44e8800380037002195280088
:101bfc001e009000a1fc070000027800e00f5200cc
:101c0c000f003a002e00900053fc07000002be00ab
:101c1c0002f02f00f37724000400be00f7fa07004f
:101c2c000002be000400be0086fa07000002be00df
:101c3c000402780004007800d30407002300370066
:101c4c00a19528001e0090008cfc07000002780073
:101c5c00e00f52000f003a002e0090003efc0700ef
:101c6c000002be0002f02f00f37724000400be0037
:101c7c00e2fa07000002be000400be0071fa070081
:101c8c000002be000402780004007800da040700a9
:101c9c000e003700219628001e00900077fc0700ec
:101cac0000027800e00f520006003a002e0090006f
:101cbc002bfc070000027800040078008204070067
:101ccc0002003700c09f2800560107003e0290001a
:101cdc000482e900340798004e029000640242002e
:101cec00440798003e029000e10f5200adff3c000b
:101cfc00600107000002eb00040078000080fa008d
:101d0c00000006000c00fa004007980051079800ec
:101d1c002a06070000027800a20020008400780048
:101d2c000e00780047fc070011c0b3000e007800cd
:101d3c008f0107000002eb00040078000080fa001d
:101d4c00000006000800fa00881f780020079800a1
:101d5c00310798002e029000e00f520003003a0069
:101d6c0010c0b300d5040700320037000040eb0070
:101d7c00d20407003e0290000482e80014027800ae
:101d8c0004007800f4fb07000002be00048fbe00c4
:101d9c0018c0b3006011b8001e00be0006fa0700a0
:101dac0000027800e00f5200010035000044eb0007
:101dbc00e04f54000f00320002002000037024009a
:101dcc001e00be008dfa07000002be0002002000bb
:101ddc0003f023000400be0099f907000002be00c6
:101dec000400be00f6f907000002be0004027800f1
:101dfc000e00370002e02f00f36f24001e00be001f
:101e0c007efa07000002be000200200003f023004f
:101e1c000400be008bf907000002be000400be00e7
:101e2c00e7f907000002be00040278000400780005
:101e3c00130407000002eb00040078004f04780044
:101e4c000080fa00000006000400fa001e02780070
:101e5c0004f0a000040f78001e02780004d0a1004a
:101e6c00040f78001e02780004a0a000040f780074
:101e7c001e0278000470a000040f78001e02780087
:101e8c000460a100040f78001e0278000450a10029
:101e9c00040f78001e0278000410a1000420a10099
:101eac00040f78001e0278000400a100040f7800d3
:101ebc001e02900004f0a000140798001e0290006f
:101ecc0004b0a100140798001e02900004a0a0000a
:101edc00140798001e0290000460a1000470a10079
:101eec00140798001e029000741088001e027800df
:101efc0064108800a4002000a41088008520a9008c
:101f0c008540a900c40480000440a0000450a10036
:101f1c000460a000c4048800c40480000480a100f4
:101f2c000490a10004a0a000c40488008d20a80087
:101f3c008d40a8000002eb00244788000002eb0053
:101f4c004447880044478000344788000002eb0077
:101f5c00544988000002eb007449880074498000e1
:101f6c00644988000080fa00000006000000fa00b6
:101f7c0024478000040078000080fa00000006006e
:101f8c000200fa00889fbe00004f780029478000ad
:101f9c00484780000b003700a48e20000402440048
:101fac00144278009e4f520002003a00080278005a
:101fbc00070037008904e9008802e800f4032000d8
:101fcc0004846200e08f5400f3ff3a000082eb00bf
:101fdc00040078004f04be000080fa0000000600e8
:101fec000400fa00100798009e02900044478000fd
:101ffc0084824200f4032000048f6200a48e20002f
:10200c001e02420014427800044078000080fa005e
:10201c00000006000200fa00000f78004447800020
:10202c009e024200f40320000482620044478800b0
:10203c00244780001e025200244788000080fa00ca
:10204c00000006000000fa000002eb0024478800a4
:10205c000080fa00000006000000fa00881f7800db
:10206c00c2ff070000027800e00f5200110032009e
:10207c0045478000a48e200004824200144478005e
:10208c0045478000f4032000848f52000300320087
:10209c00444780000402e800010037000002eb0016
:1020ac0044478800244780000402e9002447880044
:1020bc00010037000044eb0008427800044078002f
:1020cc004f0478000080fa00000006000600fa00b9
:1020dc00881f780010079800210798001e029000b6
:1020ec00e00f5200230032002e029000e00f52004d
:1020fc00200032001e029000040f7800d6ff07006b
:10210c0000447800ed4f54000c0032001e02900089
:10211c00084a78001e0290000402e8001407980098
:10212c002e0290000402e900240798002e02900071
:10213c00e00f5200f1ff3a00080037001e02900039
:10214c008042eb00054a78001e0290000402e80071
:10215c00140798001e027800070037001e0290003a
:10216c000402e9008042eb00054a78001e02780068
:10217c00010037000002eb00040078004f047800e7
:10218c000080fa00000006000000fa0054498000ac
:10219c00040078000080fa00000006000000fa003d
:1021ac00554980000404200004826a0004f0a70052
:1021bc000402ea000402e9004f22de000442780027
:1021cc00044078000080fa00000006000200fa00cb
:1021dc00004f78006549800004932000048242007f
:1021ec001e4a780065498000f4032000848f520059
:1021fc0003003200644980000402e800010037004b
:10220c000002eb0064498800544980000402e80095
:10221c00544988001e427800044078000080fa007f
:10222c00000006000400fa00100798001e0290003f
:10223c00040f7800070037001e029000144278004b
:10224c009e0290008502e800150798000440780073
:10225c00deff07001e02900014427800e04f52008f
:10226c00f5ff3a001e027800040078000080fa00a6
:10227c00000006000000fa00650480000440200005
:10228c0004826200e00f52001c003a00120037007a
:10229c0075498000049320000482420014427800a7
:1022ac000402fb008410880075498000f4032000b0
:1022bc00848f520003003200744980000402e8004d
:1022cc00010037000002eb0074498800544980007b
:1022dc000402e9005449880054498000e00f520080
:1022ec00050032007510800004202000048262007a
:1022fc00e00f5200e6ff32008d40a8000080fa008b
:10230c00000006000000fa00cda2a8000f42a900b0
:10231c000080fa00000006000000fa00d1a2a8001c
:10232c00cda2a9000f42a8000080fa000000060010
:10233c000200fa00004f7800544980008402e80043
:10234c00f4032000848f520005003e001e407800ec
:10235c009eff0700c7ff07001e42780001003700f0
:10236c000042eb00044078000080fa0000000600f8
:10237c000800fa0020079800614798002e00900092
:10238c00cbfa070000027800040f78005449800053
:10239c009e024200f4032000848f52000c003e0089
:1023ac002e029000140798002e0090009dff07004d
:1023bc006e429000e04f520002003200d0c0b300d9
:1023cc0082ff0700abff07001e02900001003700e0
:1023dc000002eb00040078000080fa000000060008
:1023ec00849fbe003400f80004002000a401880083
:1023fc000200fa0094108000044f780025478000fa
:10240c00f4032000848f520010003e0035478000fa
:10241c00a48e2000048242001e4a780024478000cb
:10242c000402e8002447880035478000f4032000ac
:10243c00848f520003003200344780000402e8000d
:10244c00010037000002eb00344788007410800054
:10245c0061026200e00f5200e6ff3a008520a900fd
:10246c000080fa003400f9004f02be000040060064
:10247c00849fbe00861f78003400f8000400200002
:10248c00a40188000000fa00120037007549800092
:10249c000493200004824200144278000402fb00e2
:1024ac008410880075498000f4032000848f52004a
:1024bc0003003200744980000402e8000100370078
:1024cc000002eb0074498800544980000402e900c2
:1024dc005449880054498000e00f52000500320036
:1024ec00751080000420200004826200e00f52006e
:1024fc00e6ff32005449800004f0a7000402ea0011
:10250c000402ea004f22de00044278000482fb0041
:10251c00610262004a22dd0066048000f5bf2f00d4
:10252c008502630005027200640488008540a900de
:10253c000080fa003400f9004f0378004f02be000f
:10254c00004006000200fa000002eb00040f7800c5
:10255c00080037001e0278006622b9008402780059
:10256c00448020000482420025002000050a7800e7
:10257c001e0fe8001e027800ff0f5200f5ff34001a
:10258c001200200061a2280080502100ba00070030
:10259c0012002000a1a22800e0542100b600070080
:1025ac001200200011a32800e0552100b200070002
:1025bc000001eb0081a32800804e2100ae00070033
:1025cc000001eb00d1a32800005d2100aa00070048
:1025dc000001eb0041a4280020582100a6000700b0
:1025ec0020002000e30007008040eb00b0a428008e
:1025fc005fff07000080fa00000006004600fa00aa
:10260c00202798002e229000e00f5200420032004a
:10261c000002eb00040f780064024700ae2090002b
:10262c00040078001cfa07006402470011ac280073
:10263c000400780025fa0700800278001e0278005a
:10264c0004024200040247004402b000050a78006c
:10265c000a0037001e0fe80011ac28000000eb0048
:10266c001afa0700800278001e0278000402420069
:10267c00040247004402b000050a78001e027800ec
:10268c00040242000402470024129000e00f5200a2
:10269c00030032001e027800ef0f5200edff3400f1
:1026ac00440220000e024200840078001e007800d4
:1026bc001d00070000027800140798001e0290000d
:1026cc00e10f42000600320045062000850f520043
:1026dc000e003200e20f4200050032000700370006
:1026ec0011c0b300b0a7280021ff07000800370075
:1026fc0011c0b300c0a828001dff0700ae20900039
:10270c00208c2000e4f907000100370000000000d5
:10271c001e029000010037000082eb0004007800dc
:10272c000080fa00000006000a00fa00300798004a
:10273c00410798003e029000e00f52004a0034001e
:10274c000002eb00040f7800420037001e027800f4
:10275c006622b90004027800e402420004802000e2
:10276c000482420094027800150798001e02900023
:10277c00e20f5200110032004e0290001403780058
:10278c001e0278006622b900040278008482e800f8
:10279c000480200004824200140278008600780035
:1027ac0004007800b5f9070000027800e00f520031
:1027bc0002003a0014002000010037000002eb0078
:1027cc00444798004e429000e04f520020003200e7
:1027dc0004468000e00f520003003200e20f52006a
:1027ec001b003e000e0037001e029000e10f52004d
:1027fc0016003a001e0278006622b90084027800a6
:10280c00048020000482420014027800ce00900064
:10281c003e00900004000100000278001300370015
:10282c001e0278006622b900840278000480200021
:10283c000482420014027800ce0090003e0090000a
:10284c0004000100000278000800370000000000be
:10285c001e0fe8001e027800ff0f5200bbff340071
:10286c000082eb0001003700e4ff2f000400780029
:10287c000080fa00000006000a00fa002007980009
:10288c0031079800420798000002eb00040f780013
:10289c000a0037001e0278006622b9000402780094
:1028ac00e4024200048020000482420014027800fa
:1028bc00e20f5200050032001e0fe8001e027800e5
:1028cc00ff0f5200f3ff340001003700000000003e
:1028dc00040220009e027800848f520002003a000d
:1028ec000082eb00100037001e0278006622b9004f
:1028fc0084027800048020000482420014079800af
:10290c001e029000ae029000050a78001e02900094
:10291c00be029000150298001e029000ce0290009c
:10292c00250298000002eb00040078000080fa00f9
:10293c00000006000000fa001002070000027800f8
:10294c00c54e800005024200040078000080fa00a9
:10295c00000006000200fa00000f78001e0278004a
:10296c004f22de0004427800044078000080fa0018
:10297c00000006000200fa00000f78001e0278002a
:10298c00044688001e027800e10f52000300360056
:10299c00e20f5200050032000800370059fe070014
:1029ac000040eb0017020700040037005afe070036
:1029bc0010c0b30013020700000000000080fa00f2
:1029cc00000006000400fa00000f780011079800c0
:1029dc001e027800e00f5200060034001e02900028
:1029ec000482e8001402780011c0b30004007800df
:1029fc005ffe07000002eb00040078000080fa0084
:102a0c00000006000600fa00100798002107980045
:102a1c001e029000e00f5200170034002e029000ae
:102a2c000482e8001402780004007800ccf8070057
:102a3c0000027800040f78001e027800e00f5200ac
:102a4c0003003a0010002000caff07000c003700fa
:102a5c00b8ff0700000278009e0f520003003a00f6
:102a6c0020002000c3ff0700050037000000eb002a
:102a7c00c0ff0700020037000000eb00bdff07009d
:102a8c000002eb00040078000080fa000000060051
:102a9c000400fa00000f7800110798000000fe00f7
:102aac000002eb00040078000080fa000000060031
:102abc000400fa00000f780011079800248e200003
:102acc0014427800e04f520005003200f0a92800b3
:102adc00d4fd070011c0b300208c200024fe070099
:102aec00208c2000c5fe070044062000040078005e
:102afc000080fa00000006000800fa002007980089
:102b0c00310798002e029000e10f52001d00340096
:102b1c003e0290008482e8002e0290000402e9003c
:102b2c008500780004007800fffe070000027800a2
:102b3c00140798001e00900086ff070000427800e2
:102b4c00e04f5200020032001e0290000e003700cf
:102b5c000002eb00040f7800010037001e0fe800a4
:102b6c001e027800e10f4200fcff3a00fffc070058
:102b7c0000027800e00f5200e5ff32000002eb008b
:102b8c0001003700e4ff2f00040078000080fa00f9
:102b9c00000006000400fa00000f780011079800ee
:102bac001e027800e10f5200160034001e02900045
:102bbc000482e800140278009442780044c6b30002
:102bcc0084cf520008003a0014c0b30004437800cc
:102bdc00258e2000864a780011c0b30030aa280048
:102bec00e3fd0700070037000042eb0004437800c8
:102bfc00258e2000864a780011c0b30060ab2800f7
:102c0c00dbfd07000002eb00040078000080fa00f6
:102c1c00000006000600fa00dc82a9001e02780003
:102c2c0004f0a100040f78001e02780004d0a1006b
:102c3c00040f78001e0278000440a0000450a1008c
:102c4c000460a1000470a100040f78001e0278003b
:102c5c000420a1000430a100040f78001e027800ab
:102c6c000400a1000410a100040f78001e027800db
:102c7c00040e88000002eb00140e8800744e8000d5
:102c8c000402d100240e88001e0290000490a000c3
:102c9c00140798001e02900004a0a00014079800ce
:102cac001e0290000440a100140798001e02900020
:102cbc000400a100140798001e0290000450a0000c
:102ccc00140798001e0290000410a100140798002d
:102cdc001e0290000460a000140798001e029000d1
:102cec000420a100140798001e029000440e8800d6
:102cfc000002eb00540e88000002eb00640e88000a
:102d0c000002eb00840e88002e02900004b0a0009c
:102d1c00240798002e02900004d0a00024079800ed
:102d2c002e029000a40e88000002eb00c40e880056
:102d3c000002eb00d40e8800c1e1a800dc82a900df
:102d4c000080fa00000006000200fa00000f780074
:102d5c00944e80009e027800848f52000200360050
:102d6c00944e800007003700b44e80009e0278001d
:102d7c00848f5200020031000002eb00010037008a
:102d8c001e027800040078000080fa0000000600a3
:102d9c000400fa00000f7800214798001e0078000c
:102dac00e9ff070000027800040f78001e0278008b
:102dbc00e00f5200020032002e429000010037005a
:102dcc000042eb00244798002e429000e14f520045
:102ddc0005003a001e027800c40e88000002eb00c9
:102dec00d40e88000c0037002e429000e14f4200b8
:102dfc0005003a000002eb00c40e88001e027800a9
:102e0c00d40e8800040037000002eb00c40e8800ca
:102e1c000002eb00d40e88000080fa0000000600cf
:102e2c000600fa0010079800414798001e02900017
:102e3c006123b800744e80000500200004b8b9006e
:102e4c000000780006a9b90082007800010040005b
:102e5c0006037800040278000432b8000500400034
:102e6c0080027800402ade00040f7800ce409000eb
:102e7c001e007800c6ff07000080fa000000060064
:102e8c000600fa00200798002e02900004f0a7001c
:102e9c000402ea00040f78002e029000e00f5200aa
:102eac000200340014c0b3000100370000c2eb0074
:102ebc0024479800ae4090001e007800d8ff070011
:102ecc000080fa00000006000200fa00000f7800f3
:102edc001e0278000402d100240e88001e02780025
:102eec00744e8800844e80006123b8001e02780066
:102efc000500200004b8b9000000780006a9b9004c
:102f0c00820078000100400006037800040278007b
:102f1c000432b8000500400080027800402ade0030
:102f2c0004027800944e8800a44e80006123b800ff
:102f3c001e0278000500200004b8b90000007800db
:102f4c0006a9b90082007800010040000603780051
:102f5c00040278000432b8000500400080027800ba
:102f6c00402ade0004027800b44e88000080fa008b
:102f7c00000006000000fa00744e80000400780087
:102f8c000080fa00000006000200fa00000f780032
:102f9c001e027800844e8800744e80006123b800b5
:102fac001e0278000500200004b8b900000078006b
:102fbc0006a9b900820078000100400006037800e1
:102fcc00040278000432b80005004000800278004a
:102fdc00402ade0004027800944e88000080fa003b
:102fec00000006000000fa00844e80000400780007
:102ffc000080fa00000006000200fa00000f7800c2
:10300c001e027800a44e8800744e80006123b80024
:10301c001e0278000500200004b8b90000007800fa
:10302c0006a9b90082007800010040000603780070
:10303c00040278000432b8000500400080027800d9
:10304c00402ade0004027800b44e88000080fa00aa
:10305c00000006000000fa00a44e80000400780076
:10306c000080fa00000006000200fa00d40e800076
:10307c00c50e8000850f520001003100050278005a
:10308c00040f78001e02780005002000c023dd002c
:10309c0006002000744e8000050020000401be00d4
:1030ac000600be0009f607000002be00040278000c
:1030bc00040078000080fa00000006000200fa000c
:1030cc00004f78001e4278000404a2000482fb002a
:1030dc0004427800614262000482fb0061026200db
:1030ec004422dd00e6168000f5fe2f008502630009
:1030fc0005027200e41688000080fa000000060049
:10310c000000fa00d902a800d802a800d822a80012
:10311c00c602a800c622a800a802a800a822a800df
:10312c00c662a800c682a800c6a2a800a862a80011
:10313c00a882a800a8a2a800d842a900c642a9004b
:10314c00d202a900d222a900dc42a900ca42a900dd
:10315c00d602a900d622a900d1a2a800cdc2a800ef
:10316c00cda2a900d862a900d882a900d8a2a90032
:10317c00dc82a8000080fa00000006000000fa00c3
:10318c00d41680006102620004f0a7000402ea0079
:10319c000402e9004f22de00d5168000e2826200b4
:1031ac00e08f520002003a00850020000100370039
:1031bc008002eb008502420044168000610262002e
:1031cc00e00f520002003a004400200001003700da
:1031dc000002eb008482420044168000620262000e
:1031ec00e00f520002003a002400200001003700da
:1031fc000002eb0004824200040078000080fa0018
:10320c00000006000200fa00004f78009e42780091
:10321c000582fb0061026200b6168000e5ff2f00fc
:10322c008502630005027200b41688000080fa0063
:10323c00000006000200fa00000f78001e02780061
:10324c006123b9000082eb008082eb000602420091
:10325c0087824a004600200007002000860f52009b
:10326c00878f5a0010003e000460010004003700f4
:10327c00050037000600370007003700080037004c
:10328c0044168000090037007416800007003700d0
:10329c00a416800005003700d41680000300370008
:1032ac0004178000010037000082eb000400780056
:1032bc000080fa00000006000000fa0044168000ae
:1032cc004322de00614262000482fb0004f0a7008e
:1032dc000402ea000402ea004f22de0004427800f5
:1032ec00044078000080fa00000006000000fa009c
:1032fc00441680004422de00614262000482fb001e
:10330c0004f0a7000402ea000402ea004f22de00e7
:10331c0004427800044078000080fa0000000600a7
:10332c000000fa00441680004522de006142620073
:10333c000482fb0004f0a7000402ea000402ea0085
:10334c004f22de0004427800044078000080fa002e
:10335c00000006000200fa000000eb000b00070062
:10336c0000027800040f780041ac28001e007800a1
:10337c00350007001e007800470007001e0078008b
:10338c00110007000080fa00000006000800fa0097
:10339c00300798000002eb00040f78003e0290000a
:1033ac00e00f520004003a0004c02f00f507200083
:1033bc0014079800250798000002eb000400780021
:1033cc000080fa00000006000200fa00000f7800ee
:1033dc000002eb00040078000080fa0000000600f8
:1033ec000600fa001007980041479800f4032000eb
:1033fc00040f78001e029000042290009e029000a0
:10340c004e43900086727a008402e8001e029000ff
:10341c00052298001e029000042290001e026200f9
:10342c009e0f520004003a001e0090001a00070084
:10343c0014002000010037000002eb0004007800ab
:10344c000080fa00000006000400fa00000f78006b
:10345c0011079800080037001e02900014427800f3
:10346c009e0290008502e8001507980084407800c1
:10347c001e007800daff07001e029000144278004c
:10348c00e04f5200f4ff3a000002eb000400780019
:10349c000080fa00000006000200fa00000f78001d
:1034ac001e027800a4229000142290000202200038
:1034bc000400be00baf30700053b8000040028009e
:1034cc0004826200e00f5200fbff3a00053b8000d3
:1034dc000400280004826200e00f5200fbff3a0057
:1034ec000002eb00040078000080fa0000000600e7
:1034fc000400fa001e02780004d0a100040f78002a
:10350c001e0278000480a0000490a00004a0a0007b
:10351c00040f78001e0278000470a100040f7800dc
:10352c001e0278000460a100040f78001e027800cf
:10353c000450a000040f78001e0278000430a10093
:10354c000440a100040f78001e0278000420a100a2
:10355c00040f78001e0278000410a100040f7800fc
:10356c001e027800140988001e0290000480a1003d
:10357c00140798001e0290000470a1001407980014
:10358c001e0290000440a0000450a1000460a100a1
:10359c00140798001e029000240988000082eb009a
:1035ac0044098800e4568400340988008900a90085
:1035bc009100a9000080fa00000006000000fa004b
:1035cc0034098000040078000080fa000000060036
:1035dc000200fa00004f78009e4278000582fb0042
:1035ec00610262004722dd0016098000f5f72f000a
:1035fc008502630005027200140988000080fa003d
:04360c0000000600b4
:020000040000fa
:10361000700900004600000000000000ce09000014
:103620000a00000002000000ffff3200f331f30047
:103630006626660026000000e40800008c000000fa
:1036400000000000b60900001800000002000000a1
:103650002c8939008942890047895200895a89009a
:1036600062896d008947890052895a008962890000
:10367000d809000002000000020000001000000055
:1036800000080000e400000000000000da0900006b
:103690000200000000000000dc0900000200000041
:0836a000000000000000000022
:020000040000fa
:1036a8000000fa00a8fb0700c2f7070006000700a1
:1036b8000080fa00000006000000fa00050007007c
:1036c8000080fa00000006000000fa000080fa00fe
:1036d800000006002000fa00d0c0b30029fa070055
:1036e80000027800e10f42000500320001022000cc
:1036f8000e00780076fa07000e007800c0fb07007d
:103708000080fa00000006000000fa007dfe0700b5
:1037180011ff070040fd070076ff0700cbf90700ff
:103728000040eb0066fe07000042eb000440780012
:103738000080fa00000006000000fa00f2ff07000f
:10374800d7ff0700dcff0700feff37000000fa0084
:083758000080fa0000000600e9
:020000040000fa
:0200000400fffb
:10f8000000000000000000000000000000000000f8
:10f8100000000000000000000000000000000000e8
:10f8200000000000000000000000000000000000d8
:10f8300000000000000000000000000000000000c8
:10f8400000000000000000000000000000000000b8
:10f8500000000000000000000000000000000000a8
:10f860000000000000000000000000000000000098
:10f870000000000000000000000000000000000088
:10f880000000000000000000000000000000000078
:10f890000000000000000000000000000000000068
:10f8a0000000000000000000000000000000000058
:10f8b0000000000000000000000000000000000048
:10f8c0000000000000000000000000000000000038
:10f8d0000000000000000000000000000000000028
:10f8e0000000000000000000000000000000000018
:10f8f0000000000000000000000000000000000008
:020000040000fa
:0200000401f009
:04000000f6bf000047
:020000040000fa
:0200000401f009
:04000400ff7f00007a
:020000040000fa
:0200000401f009
:04000800dfff000016
:020000040000fa
:0200000401f009
:04001400ffff0000ea
:020000040000fa
:0200000401f009
:04001800ffff0000e6
:00000001FF
