:020000040000fa
:080000000001040000000000f3
:020000040000fa
:04000800e001000013
:020000040000fa
:04000c00e00100000f
:020000040000fa
:04001000e00100000b
:020000040000fa
:04001400e001000007
:020000040000fa
:04001800e001000003
:020000040000fa
:04001c00e0010000ff
:020000040000fa
:04002000e0010000fb
:020000040000fa
:04002400e0010000f7
:020000040000fa
:04002800e0010000f3
:020000040000fa
:04002c00e0010000ef
:020000040000fa
:04003000e0010000eb
:020000040000fa
:04003400e0010000e7
:020000040000fa
:04003800e0010000e3
:020000040000fa
:04003c00e0010000df
:020000040000fa
:04004000e0010000db
:020000040000fa
:04004400e0010000d7
:020000040000fa
:04004800e0010000d3
:020000040000fa
:04004c00501300004d
:020000040000fa
:040050008a1300000f
:020000040000fa
:04005400e0010000c7
:020000040000fa
:04005800e0010000c3
:020000040000fa
:04005c00e0010000bf
:020000040000fa
:04006000e0010000bb
:020000040000fa
:04006400e0010000b7
:020000040000fa
:04006800e0010000b3
:020000040000fa
:04006c00e0010000af
:020000040000fa
:04007000e0010000ab
:020000040000fa
:04007400e0010000a7
:020000040000fa
:04007800e0010000a3
:020000040000fa
:04007c00e00100009f
:020000040000fa
:04008000e00100009b
:020000040000fa
:04008400e001000097
:020000040000fa
:04008800e001000093
:020000040000fa
:04008c00e00100008f
:020000040000fa
:04009000e00100008b
:020000040000fa
:04009400e001000087
:020000040000fa
:04009800e001000083
:020000040000fa
:04009c00e00100007f
:020000040000fa
:0400a000e00100007b
:020000040000fa
:0400a400e001000077
:020000040000fa
:0400a800e001000073
:020000040000fa
:0400ac00e00100006f
:020000040000fa
:0400b000e00100006b
:020000040000fa
:0400b400e001000067
:020000040000fa
:0400b800e001000063
:020000040000fa
:0400bc00e00100005f
:020000040000fa
:0400c000e00100005b
:020000040000fa
:0400c400da15000049
:020000040000fa
:0400c800e001000053
:020000040000fa
:0400cc00e00100004f
:020000040000fa
:0400d000e00100004b
:020000040000fa
:0400d400e001000047
:020000040000fa
:0400d800e001000043
:020000040000fa
:04010800e001000012
:020000040000fa
:04010c00e00100000e
:020000040000fa
:04011000e00100000a
:020000040000fa
:04011400e001000006
:020000040000fa
:04011800e001000002
:020000040000fa
:04011c00e0010000fe
:020000040000fa
:04012000e0010000fa
:020000040000fa
:04012400e0010000f6
:020000040000fa
:04012800e0010000f2
:020000040000fa
:04012c00e0010000ee
:020000040000fa
:04013000e0010000ea
:020000040000fa
:04013400e0010000e6
:020000040000fa
:04013800e0010000e2
:020000040000fa
:04013c00e0010000de
:020000040000fa
:04014000e0010000da
:020000040000fa
:04014400e0010000d6
:020000040000fa
:04014800e0010000d2
:020000040000fa
:04014c00e0010000ce
:020000040000fa
:04015000e0010000ca
:020000040000fa
:04015400e0010000c6
:020000040000fa
:04015800e0010000c2
:020000040000fa
:04015c00e0010000be
:020000040000fa
:04016000e0010000ba
:020000040000fa
:04016400e0010000b6
:020000040000fa
:04016800e0010000b2
:020000040000fa
:04016c00e0010000ae
:020000040000fa
:04017000e0010000aa
:020000040000fa
:04017400e0010000a6
:020000040000fa
:04017800e0010000a2
:020000040000fa
:04017c00e00100009e
:020000040000fa
:04018000e00100009a
:020000040000fa
:04018400e001000096
:020000040000fa
:04018800e001000092
:020000040000fa
:04018c00e00100008e
:020000040000fa
:04019000e00100008a
:020000040000fa
:04019400e001000086
:020000040000fa
:04019800e001000082
:020000040000fa
:04019c00e00100007e
:020000040000fa
:0401a000e00100007a
:020000040000fa
:0401a400e001000076
:020000040000fa
:0401a800e001000072
:020000040000fa
:0401ac00e00100006e
:020000040000fa
:0401b000e00100006a
:020000040000fa
:0401b400e001000066
:020000040000fa
:0401b800e001000062
:020000040000fa
:0401bc00e00100005e
:020000040000fa
:0401c000e00100005a
:020000040000fa
:0401c400e001000056
:020000040000fa
:0401c800e001000052
:020000040000fa
:0401cc00e00100004e
:020000040000fa
:0401d000e00100004a
:020000040000fa
:0401d400e001000046
:020000040000fa
:0401d800e001000042
:020000040000fa
:100200002fb520000eff20000e0188000000000026
:10021000000020000000e000020032000001200089
:10022000200288000c000700e06e21000100200081
:1002300011000700000020000000e0000200320072
:100240000000020000000000d218020000000000c0
:100250000040da000000fe004440a90060162000c3
:100260000000e0000300320000002000a001880030
:100270004440a8000000060091018800800078003a
:100280000000eb0015003700e280400032a0b4000f
:100290009101ba00e280400032a0b4009102ba009d
:1002a000e280400032a0b4000002eb00472bde00e9
:1002b000f507b200602ce10004003a000059eb00a1
:1002c0008301e900fdff3e00040037006128e100e2
:1002d000010032000082eb000b00070011c3ba00de
:1002e0001101ba000604e00003003a000200e00039
:1002f000e5ff3a0000000600f607b200960188000c
:1003000082007800f5ff37003159ba008301e90017
:100310000c0032002159ba008301e90008003200c4
:100320000400e00003003a00e280400032a0b40084
:10033000f5ff370011d9ba008301e900faff3a004e
:100340008100e800e180400032a0b4000000060017
:10035000000000000000000000000000000000009d
:10036000000000000000000000000000000000008d
:10037000000000000000000000000000000000007d
:10038000000000000000000000000000000000006d
:10039000000000000000000000000000000000005d
:1003a000000000000000000000000000000000004d
:1003b000000000000000000000000000000000003d
:1003c0000040da000000fe006900e1000400350092
:1003d0006d00e100030034000002b10001003200b2
:1003e00000000500100005000c02e20004003d00c2
:1003f0000f42ab00020032000f02ab00feff3200e2
:100400000040da00feff37003200f800910188005a
:100410000008bb00410424006210e1000400320027
:10042000000220000010e1000a003a0051042400fc
:10043000013b88000500fc0051052000313b88008d
:10044000a10a2000313b880061e7a80000000000fd
:10045000000000003200f900000006003200f80041
:1004600060042400003b8800f2ff37003200f800ef
:100470009101880041002400013b88000208bb0074
:10048000ecff37003200f800910188005100240091
:10049000013b8800030120003218bb008301e90002
:1004a000fdff3a00e3ff37000001be001f00070018
:1004b0000470a70003f0a1006509b1001600320026
:1004c0000d0035006828e10006003500f0ff2f0020
:1004d000f1ff27000300e00013003b0001002800ab
:1004e0000000050000004000818048008502e9000e
:1004f000fcff3a0008003700f88f420002003c0081
:100500008000eb00000005008100d1000080d300d6
:100510008502e800fcff3a000300e00002003b0017
:1005200060001000e080180000000600c70ade002e
:10053000f107b200f50fb20008003200e1cf42002f
:10054000020032000170a00024000500810f70003d
:10055000010032000408050044000500810f70000e
:1005600002003a00140005008502e9000000400086
:1005700081c04800fcff3b000170a0002400050082
:10058000889fbe008a9fbe008c1f7800660007000f
:100590006d00330003866c006450e10024003200db
:1005a0006420e100270032006150e10022003200a7
:1005b0006120e100210032008b854200eb07b10091
:1005c0000134b800003ab8000804420089844a00a7
:1005d000013ab8000030b8008880400009014a00a4
:1005e00004003300000040008180480002014900ff
:1005f0008b05e900c909dd008301700001003200ac
:1006000013002000c814de004814dd004709de0096
:100610001200b200c808de00088470001c00070049
:1006200001f0a1000cf0a70001f0a0004f0037007e
:100630006120e100510032000801be000200be004e
:10064000f7ff37006150e100fcff3a004b00370034
:100650006022b800060220000000d0008180d20095
:100660000482d2008582d2000000a0000202520063
:1006700083825a00030031000202420083824a0052
:100680000000a1000603e900f3ff3a0000000600a5
:1006900081002000618055000b003d000b00200010
:1006a00061fe2f000100e1001d0034008281710015
:1006b000610164008904d1000884d3000000e800cf
:1006c000faff3a007100200061006400030070002e
:1006d000020060000900320061044400e0844c0024
:1006e0000988a500050032008b05e8006808e100d4
:1006f00002003a008904d1000884d300f20f2000e0
:100700000258e10005003d00c75ddd00f907b200b9
:100710008980750008007800000006000bf82700ab
:100720008b007800000005000004be007fff07007a
:100730000003be000405be000200be007bff0700f0
:10074000844f7500000006000200be006450e10006
:10075000050036006420e100020036000968a300ad
:1007600001003a000800be000160a0004f067800ba
:100770004f05be004f04be0000000600f0ff2f0032
:10078000f1ff2700f9ff3700889fbe008a9fbe0057
:100790008c9fbe008e1f7800010678000c00e000e0
:1007a00001003200000e780080047800090578000e
:1007b0008a047800b905fb000b00780002ff0700ef
:1007c0000000e000f9ff3a00d0022000808f5500c1
:1007d00003003a000905780018c0b300050037008f
:1007e0000044eb00b0022000808f550001003a0069
:1007f000090578006000b8008004eb000007eb00fa
:10080000010037000a05e8000a0178000848a30043
:1008100005003a00e3c2b3009acf110002003a008b
:100820000844a000f7ff37009a4578008b01fb00d1
:100830000303b100e98f510016003e000814a00028
:100840000801fb00e98f54000e0032000248a300ab
:10085000010032000e07e9008904e800a200200030
:1008600003002000a501070002cdb30002c145002e
:100870000281fb008001eb00000041008180490003
:10088000e0ff37000248a300deff3a000e07e80051
:10089000dcff370053c6b30083cf5500040032009d
:1008a0008004eb0053c4b30083cf55002d003a0001
:1008b0005a417800d3c2b300834f510002003a007e
:1008c0000834a00003003700b3c2b300834f5100c7
:1008d00001003a000a05e8000a01780002057800e4
:1008e0003a42780003c3b300834f5200faff32004c
:1008f0008402fb000503b1008004eb00e98f520085
:1009000015003e00834452008984fb000a017800f0
:10091000124278008402fb000503b100e98f520007
:100920000d003e006a4bb900834452008984fb00ed
:1009300086844400524278008402fb000503b10023
:10094000e98f520004003e006a4bb9008344520014
:100950008984fb00868444000838a300010032002b
:100960008904ea000c00e000030032000818a3002c
:1009700001003200020e78005d0107000005be0094
:100980000006be006011b8005501070000017800a4
:100990006000b8000200e000580032008e8444007d
:1009a00032f82f00828f540003003d002202200005
:1009b000725a88005100370000082000808f5400d0
:1009c0000700340020022000705a88000808a300a5
:1009d000450032000000200001f82f0047003700da
:1009e0000900e0001b003d008904ea000600370012
:1009f000922f2000530125000a00be00f6000700d8
:100a00000005be00ea845400e98f5400f8ff3c0062
:100a10000600370002002000031224000a00be0076
:100a2000ed0007000005be008904e9000900e000b0
:100a3000f8ff3a000a06be0002002000030820006a
:100a40000a00be00260107000000e00021003d0072
:100a50001b0037000900e00007003a001d003700c6
:100a6000922f2000530125000a00be00c4fe07009b
:100a70000005be00ea845400e9cf5400f8ff3e00b0
:100a80000600370002002000031224000a00be0006
:100a9000bbfe07000005be008904e9000900e00074
:100aa000f8ff3a000a06be00f2ff2f00f3f7270016
:100ab0000a00be000c0107000000e0000500340041
:100ac0000808a3000b0032000000200001082800e5
:100ad0000a0037000808a300010032000df0a20050
:100ae0000c00be00050037000000200001f82700c0
:100af0000200370000002000010820004f077800a6
:100b00004f06be004f05be004f04be0000000600a9
:100b10001dff37008000eb001bff370080007800ce
:100b2000010078003041780003c2b300834f5100c8
:100b3000faff3200e94f5100f8ff3200edc14100e9
:100b4000834f510003003a008000780013c0b300c7
:100b5000050037008041eb00b4c2b300844f510060
:100b600001003a00800078000000eb00020037002e
:100b70006a02b900040041003101fb000203b10028
:100b8000e90f5100faff36000304e00001003200d3
:100b90000000ea0000000600000478002a000700b8
:100ba0000800780010fe070000037800810278003a
:100bb0008501780001003700040378001100090066
:100bc0008281d800800178000602e8000300e0007e
:100bd000f9ff3a00034a7800110009008282d80028
:100be000000278008141780084027800e9cf51004a
:100bf00001003400e7c1410001c3b30001d341004b
:100c00000400e000f4ff3a0006007800000006004f
:100c1000881f7800000478000100e00005003d0016
:100c200008007800d3c2b300035878008100ea00be
:100c30000100370008007800dbff0700080078009b
:100c40004f0478000000060000000600b041780064
:100c500031c1510002003a000304e000fbff3a00fa
:100c60000200fb000000060000017800b14178009e
:100c7000035978000304e000fcff3a00000006007e
:100c8000800078003104e000feff3a000080ea00b6
:100c90000080400000000600889fbe000004be00e7
:100ca0000800e00003003a00885a80000800e000d5
:100cb000130032000800be002700070000044400b3
:100cc0001804e00004003a000000eb00805a88009d
:100cd0000004eb000a0037000800be000b0007000c
:100ce00000004400805a88001004e0000200320036
:100cf0000058eb00010037000000eb00805a88002c
:100d0000080078004f04be0000000600889fbe0067
:100d10008a1f780001057800800478000004eb0049
:100d2000010037000804e800b94078000104e00041
:100d3000050032008100fb000a007800190007005e
:100d40000000e000f7ff3200080078004f0578004f
:100d50004f04be0000000600889fbe008a1f780076
:100d600001057800800478000004eb0001003700e2
:100d70000804e800b94078000104e00005003200f2
:100d80008100fb000a007800060007000000e00078
:100d9000f7ff3a00080078004f0578004f04be00c6
:100da000000006000001eb006103b8006112b8000a
:100db0008601420066427a00814f520004003200f0
:100dc0000201e8000404e000f7ff3a008001eb00b4
:100dd0000300780000000600889fbe008a9fbe00c6
:100de0008c1f780050fe070057fe330003866c000e
:100df0006450e1002e0032006420e1003300320034
:100e00006150e1002f0032006120e100310032002a
:100e100085855500eb07b00009002000080420007c
:100e2000050037000804440089844c000a003100a2
:100e30000603430087834b000001530081815b0060
:100e4000f8ff33000203be000800a00008044400bd
:100e500089844c00f6ff3900c639dd008301730038
:100e600001003200130020008904d1000884d3005f
:100e70000998a300050032000800a7000300a000a5
:100e80008904d1000884d3008b05e8008904d100cf
:100e90000884d3000001eb000281d200fcfd0700b2
:100ea00001f0a1000cf0a70001f0a0002ffe370018
:100eb0006420e10031fe32000801be000200be00e5
:100ec000f7ff37006120e1002cfe32006000b8001f
:100ed000f3ff37000000200001f82700f0ff370083
:100ee000140020000b003700f4ff2f00090037002a
:100ef0004f89de008201780021003700020ab90024
:100f0000001bb9000200b8008100420081004300cc
:100f100000000600889fbe008a9fbe00841f7800e4
:100f200001fe07004f00780011003300f0ff2f0092
:100f3000838f6c0006003b00040565000a00a700d3
:100f40000800370009f0a600100020000800370054
:100f5000820f5400838f5c000300390010002000d2
:100f600001003e000000200009f0a7000000ea0098
:100f70004f05be004f04be000000e0000000060068
:100f8000881f7800030478000300e00007003d009c
:100f900060001000e080180060011900e081190075
:100fa00002003b0001f02d000300370004000700a1
:100fb00008f0a70001f0a0004f0478000000060030
:100fc000889fbe008a9fbe000082700004027100ec
:100fd00004827100260032000004be000200be0040
:100fe0006011b8006b092000950220000182cf003b
:100ff0000a0039000541b1000082cf000700390026
:101000000541b1000982cf00040039000541b1005b
:101010000882cf00010039000541b10005425200ad
:10102000120032000a003b008281710061016400fd
:101030008100d1000080d3008984d3000884d300cc
:101040008b05e8000442e800f7ff3a00070037008c
:101050000804440089844c00000048008180480056
:101060008b05e9000442e900f9ff3a0088fd07001a
:0c1070004f05be004f04be00000006004b
:020000040000fa
:10107c002d6e0000730000002d7500007300000041
:10108c002d6d00007300000045720000726f0000af
:10109c007200000065720000726f000072000000a8
:1010ac004469000072650000637400006f720000f8
:1010bc00790000004e6f00006e650000004e0000cd
:1010cc006f6e00002053000075700000706f000000
:1010dc00727400000a0000004163000063650000a8
:1010ec00737300000a00000045720000726f00006c
:1010fc00723a00004665000077200000696e00001f
:10110c0070750000747300000a0000004572000046
:10111c00726f0000723a0000446f00006e270000ee
:10112c00742000006f700000657200006174000094
:10113c0065200000646900007265000063740000a3
:10114c006f7200007900000045720000726f0000a1
:10115c00723a0000466900006c650000547900008a
:10116c00706500004e6f00006e65000000450000c9
:10117c00727200006f7200003a4e00006f6e000039
:10118c002053000075700000706f00007274000036
:10119c0000450000727200006f7200003a410000be
:1011ac00636300006573000073000000457200006b
:1011bc00726f0000723a00004e6f00007420000045
:1011cc004578000069730000740000006d65000034
:1011dc006d6f0000727900000075000073650000ef
:1011ec00643a00000066000072650000653a000079
:1011fc0000650000727200006f7200003a6e000011
:10120c006f740000206400006972000065630000c8
:10121c00746f000072790000006600006f750000aa
:10122c006e640000206f0000757400000061000007
:10123c006c6c0000005d00000d0000006578000083
:10124c006974000000620000696e0000002a000052
:10125c000d0000002e0000002e2e00000072000079
:10126c006f6f00007400000045720000726f000088
:10127c00723a00006e6f00006e200000657800006e
:10128c006973000074000000446f00006e270000ba
:10129c0074200000527500006e210000210a00002d
:1012ac0000450000727200006f7200003a440000aa
:1012bc006f6e00002774000020650000786300004a
:1012cc007574000065210000210000003a00000048
:1012dc00200d00000a000000686500006c6c000026
:1012ec006f200000776f0000726c0000642000001b
:1012fc00696e00002065000065700000726f0000d0
:10130c006d2e00000a000000656e000076000000e3
:10131c00746500006d700000000000006d7400002a
:10132c007200000064740000000000007362000092
:0c133c00696e000000000000ff7f000050
:020000040000fa
:1013480065780000697400000065000063680000ab
:101358006f0000006c7300000070000077640000ec
:1013680000740000726500006500000063640000fe
:101378000073000079730000746500006d000000c0
:1013880073650000740000006765000074000000c9
:101398006c6f00006f70000000640000656c000056
:1013a8006179000000000000a48900007a0d0000a7
:1013b800a9890000140a0000ae890000ce0c0000c4
:1013c800b18900005a0d0000b5890000e80d000041
:1013d800ba8900009c0c0000bd8900006a0c00005e
:1013e800c4890000c60b0000c8890000280b000053
:1013f800cc890000c00a0000d1890000220a000040
:020000040000fa
:101408007273000074000000736500006c00000037
:10141800048a000090170000088a00009c1700004a
:020000040000fa
:10142800e10f5000030034001100900011c0b30018
:10143800840407000000eb0000000600889fbe003f
:101448008a9fbe008c1f7800000478000105780090
:10145800e10f5400410034008a04780059007800f4
:10146800acfd0700800578000b00e0003500320075
:10147800e20f54002f003400640645009c047800f5
:10148800d0c2b300994f100024003a00e18328002d
:1014980009007800ebfd07000000e00003003a00b7
:1014a8000b00780075060700150037002184280016
:1014b80009007800e3fd07000000e00003003a009f
:1014c8000b007800760607000d00370061842800bd
:1014d80009007800dbfd07000000e00003003a0087
:1014e8000b0078007d060700050037008040eb0000
:1014f800a0842800530407000080eb001a0037007e
:101508000000eb00e30f540017003400e60045002c
:1015180063005400b9020700130037000b0078007d
:101528005f0607000880e9008c007800b302070016
:101538000d0037000b007800590607000000eb008b
:1015480009003700a0002000550607000800e90040
:1015580089007800a902070003003700a0002000d6
:101568004f0607000000eb004f0678004f05be004d
:101578004f04be0000000600889fbe008a9fbe0080
:101588000005be000080eb00e10f55002b00340081
:101598008b047800590078005efd0700000478008d
:1015a8000800e000150034008a84e90064854500dd
:1015b8000c0037008a007800090078008f020700c5
:1015c8000000e00005003d008040eb000085280099
:1015d8001c0407000080eb00180037000804e9002d
:1015e800de0307005d0307000000e00010003a007a
:1015f8000800e000efff3c00100037000a05e90092
:1016080006003700890078000a0078007b0207008e
:101618000000e00008003500d00307004f03070072
:101628000000e000f7ff32000000eb000300370085
:101638000000eb00010037000080eb004f05be0002
:101648004f04be00000006002000fa00889fbe007c
:101658008a9fbe008c9fbe00000678000184e800c7
:101668008044eb001a002000cbc2b3000d0f20000d
:10167800390037000904e000020032000b4078000e
:10168800e103070018007800880107000000e00067
:10169800f8ff3200c00090000118a30029003200b2
:1016a8008d806000f08f50000b00320003003e0078
:1016b8000100e0000b0032001f0037000203200089
:1016c800828f50000a00320070014100828f500062
:1016d80019003a000e0037006085280089030700ca
:1016e8001a00370000862800860307001700370015
:1016f80050009000a20020009000780040fd2f00cc
:101708000f00400040fd07007e0307000f00370070
:10171800500090001000be0061fb0700a2002000ee
:101728008000780040fd2f000f00400036fd0700c4
:10173800740307000500370050862800710307006e
:1017480002003700208728006e0307000a05e8001a
:101758000884e80019c0b3008a0f5600c5ff3c0092
:101768007e030700d0c0b300a70307000000eb000a
:101778004f06be004f05be004f04be000080fa00b1
:1017880000000600889fbe008a9fbe008c9fbe0096
:101798008e1f780000057800e20f550005003c0018
:1017a8008040eb00a0872800a60307000080eb001c
:1017b8004100370064844000190020000b0f20000e
:1017c8000d03200078b89700380107000000e000fa
:1017d8002e003200c00090000118a300260032003d
:1017e8008b806000f08f50000a00320003003e003a
:1017f8000100e0000c0032001a0037008d8f500005
:101808000e00320002042000828f500015003a00ba
:101818000f0037008040eb00c088280089030700cc
:101828000080eb00240037008040eb00a08a2800ed
:10183800840307000080eb001f003700500790006a
:1018480018007800b3fc0700000f78001300370079
:101858005007900018007800acfc0700008fbe000d
:101868000e0037008040eb00d08b2800750307007e
:101878000080eb00100037008040eb00f08c28005f
:1018880070030700e0ff2f000b003700c08d280011
:1018980029030700d0ff2f00070037008984e800dc
:1018a800640444000900e8008a0f5000c5ff3500b1
:1018b8002a0307000000eb004f0778004f06be0020
:1018c8004f05be004f04be00000006002000fa00cd
:1018d800c08e280018030700308f2800090307006e
:1018e800ef040700a20020008000780000fe2f000f
:1018f8000f004000c4fc07000f030700908f28006a
:1019080000030700d9040700a20020008000780027
:1019180000fe2f000f004000bbfc07000603070075
:101928000e0307000000eb000080fa00000006002c
:101938000001eb00e10f500014003400110090008a
:101948005f0107000000e0000c003200c0009000ba
:10195800010fb200f08f500003003a00a500070005
:101968000001eb000900370011c0b300f08f280018
:10197800340307000001eb000400370011c0b30076
:10198800309128002f0307000081eb000200780047
:10199800000006002000fa00889fbe008a1f780019
:1019a80000047800010578009000070080047800a2
:1019b800e10f54000e003a00590490000800e000be
:1019c80008003200c9c2b30018007800cd02070031
:1019d80009407800be020700380490000800e000c3
:1019e800f9ff3a00d0c0b300b90207001c00370065
:1019f800e20f54001a003a001a009000d191280012
:101a080090fc07000000e00015003a00590490001f
:101a18000800e00012003200b9c5b3001a9228008d
:101a280018007800b702070009407800a8020700ec
:101a3800c8009000ef80600002012000a0fd2f0088
:101a48000f00400070fc0700ae0207000a00780093
:101a5800ac020700380490000800e000f0ff3a00ec
:101a6800be0207000000eb004f0578004f04be00df
:101a78000080fa0000000600881f78000004780043
:101a880058000700880f5000060032002800900018
:101a9800f9ff0700f0c2b3008d02070018007800b4
:101aa800980207004f04780000000600881f78009d
:101ab8004e000700000478004a000700880f500015
:101ac8000300320008007800ebff0700020037002f
:101ad800f0c2b3007e020700d0c0b300ca020700fc
:101ae8000000eb004f0478000000060011c0b300ae
:101af80040922800d30207008000200024fc070041
:101b0800881f780090922800f700070000047800ea
:101b1800b2002000819d280008007800db01070042
:101b2800080078004f04780000000600889fbe0077
:101b38008a9fbe0080047800810578000b00e000d1
:101b48001e0032000900e000070034000004eb002a
:101b5800cac7b3000a4078005d0207000804e8001d
:101b6800888f5400fbff3c004b009000000fb20030
:101b7800f00f50000f003a001b00780061020700c8
:101b8800d09228005f0207005b0490000800e00084
:101b98000a0032008904e80088007800090078000b
:101ba800e2ff0700380490000800e000faff3a005e
:101bb800020037001b0078005f0207004f05be00d7
:101bc8004f04be00000006000800070080007800ef
:101bd8000000eb00d5ff0700600207000000eb00e3
:101be80000000600b058800000000600a0588000e1
:101bf80000000600a0588800000006000081eb00e5
:101c08000000e00007003200e2ff2f000100e000c2
:101c18000400320030019000b200980031009800b2
:101c28000001eb0002007800000006008000780048
:101c38000000eb000100e0000200320041009000cb
:101c48006f006000000006000000e000060032009f
:101c5800ef806000c001900002ff2f000281610048
:101c680081007100410098000000060080007800a3
:101c78000000eb000100e00002003200410090008b
:101c8800000fb200000006000000e000060032006d
:101c9800010fb200c0019000f2f02f000281610034
:101ca8008100710041009800000006006f02b0003a
:101cb800889fbe008a9fbe008c9fbe008e1f780042
:101cc800f1022000f1a79f008004eb000000e00073
:101cd800570032008000780000fd2f000f00400000
:101ce800dffb0700f0c2b3008fd0970080cf500011
:101cf80007003a00b95880001fd097000004e000a0
:101d08004b00320010fd2f000f0040000300370089
:101d1800a958800000fd2f000f004000d904900052
:101d2800e1fc2f008f804000d9fb070000047800f9
:101d38001bc0b3000800e00009003a003c0037006f
:101d4800e1fc2f008f8040000000eb00d0fb070073
:101d5800000478000800e00004003a00340037006e
:101d68000a9328002c9328008046eb00880078000e
:101d78000a007800b3fb07000000e000f0ff320023
:101d88000c0037000b04e00002003200a9049000a8
:101d98008d457800a9049000e1fc2f008f80400059
:101da8000000eb00bafb0700000478000800e00020
:101db8001f003200880078000c007800a1fb0700a3
:101dc8000000e000efff32000807780089bf9f009d
:101dd800990078000100e000130032000800780044
:101de80098fb07000000e0000b003a00e1fc2f0020
:101df8008f804000a6fb0700000478000800e00080
:101e08000b0032000fb89700d00490000900e000e2
:101e1800d6ff3a00060037000fb89700b0049000cc
:101e28000900e000020032000e00e000cfff3a0097
:101e3800090078004f0778004f06be004f05be0026
:101e48004f04be006f02b10000000600889fbe006c
:101e58008a9fbe00800478000004eb000900e000bf
:101e6800130032006ab12000f00545005a007800de
:101e78000000e0000b003200500490000800e00071
:101e88000800320098007800090078006dfb070010
:101e98000000e00006003200380490000800e0006e
:101ea800f8ff3a008b0f5500f0ff3a000004eb00f2
:101eb800080078004f05be004f04be000000060071
:101ec800881f7800000478000800780077ff070072
:101ed8000000e00002003a0008007800dbff07007d
:101ee8004f04780000000600881f7800000478007e
:101ef800080078006e0307000800e00005003200c3
:101f080001012000410098008000eb00510098007a
:101f1800010037000000eb004f04780000000600c5
:101f28003b03070050932800efff0700b0588800d4
:101f3800a0588800000006000081eb000000e000c7
:101f48000d003200e2ff2f000100e0000a0032001d
:101f5800c0019000030fb200d2ff2f00f08f510094
:101f680005003a00a000980050019000b2009800c7
:101f7800510098000001eb00020078000000060004
:101f8800800178000080eb000300e00011003200bf
:101f9800180be2000500320082b120001100200079
:101fa8005200e00007003a00010037008000eb0013
:101fb8008180400080b1200003b078000000eb0071
:101fc800040037008100e800e88f5000f4ff3a0071
:101fd8000080eb0000000600182bef001a2bef0022
:101fe8001c2bef001e2bef00202bef00222bef0005
:101ff800242bef00262bef0000000600889fbe0070
:10200800800478000104780018007800acff07000d
:102018000000e00005003a0011c0b300a0932800ba
:10202800880107000080eb0013003700c000900013
:102038000158a3000c0032000108a300050032007b
:102048005001900088007800090078000200010023
:102058000900370011c0b300a094280079010700d7
:10206800d0ff2f000400370011c0b300709528007e
:1020780074010700c0ff2f004f04be0000000600d7
:102088004f05b000889fbe008a9fbe008c9fbe008f
:102098008e1f7800c1962800fdfa0700800078009e
:1020a80081b79f000000eb000100e0003000320023
:1020b80008fe2f000f0444008006eb00c996280094
:1020c8000005eb008d06e800890078000a0078001a
:1020d800effa0700002c78000000e000f9ff3a0052
:1020e8000d00e00022003400e0fd2f0000804700d2
:1020f80080bf9f000006eb008004eb000b0220006d
:10210800e19628000fb997005200780082bf9f001f
:10211800dffa070080979f00090478000000e000bc
:102128000c0032000efa2f000f074700ea9628002d
:102138000804e8008a00780009007800d4fa07004b
:10214800002f78000000e000020032008b0f5400de
:10215800f7ff3a0001fa2f008f804000080078004e
:10216800a6ff07000c06e8008d0f5600e4ff3500b7
:102178004f0778004f06be004f05be004f04be0053
:102188004f05b10000000600881f780001047800a0
:10219800c70207000000e00003003200110220001f
:1021a80041009800580098004f047800000006008d
:1021b800889fbe000104780082047800bc020700f2
:1021c8000000e000070032000800e00004003200d0
:1021d8000903b3004900980058009800010037002f
:1021e8000000eb004f04be0000000600889fbe0000
:1021f8000104780082047800ad0207000000e000c6
:10220800070032000800e000040032000960a00066
:102218004900980058009800010037000000eb00c2
:102228004f04be0000000600605988000000060048
:102238005059880000000600405988000000060038
:10224800ea000700605980000000e0000100320049
:102258000000010000000600e4000700505980005b
:102268000000e0000100320000000100000006004c
:10227800d9000700e0000700405980000000e00096
:10228800010032000000010000000600889fbe0027
:102298008a9fbe000005be00820478000900e000a5
:1022a8000e0032000000eb000004eb004200dd00ed
:1022b800008045009000900010007800b2ff0700f1
:1022c800800078000a0078001bff07000804e80077
:1022d80008007800888f5400f4ff3e000a00780058
:1022e8004f05be004f04be00000006000040280055
:1022f800701088000008b00060108800a00020005e
:10230800a01088008520a9008540a900c00480008d
:102318000040a0000050a1000060a000c004880098
:10232800f0cf2f009800b60000a0a000c0048800dd
:102338008d20a8008d40a800862aef00cc2aef0047
:10234800cc0af800880af900842aef00422aef0034
:10235800420af800ca0af90000000600305480005a
:102368000000060031548000625680008081eb0036
:102378000100e00011003200a3a82000e341790029
:10238800f403200080cf510009003a00060037000e
:102398000201e80004016100a3a82000e3417900dc
:1023a80080cf510002003a00820178000300370014
:1023b8008100e900f6ff3a008081eb000300780015
:1023c800000006006156800001004000f003b200e2
:1023d800a1a8200061407800000006006156800036
:1023e80081004000f103b20061568800862ab500da
:1023f80000000600862aef0000000600d7ff07004d
:10240800800078000040eb000100e0000c00320082
:1024180060568000a1a82000614078008000eb0091
:10242800f203200063568000828f510002003200c0
:10243800615680008100e80061568800862aed0018
:1024480000000600889fbe008a9fbe000005780035
:10245800010478000000eb000a00e00010003200e0
:102468000800e0000e0032008a0478008905780030
:10247800e2ff0700ed4f500004003200805c780056
:102488000804e900f9ff3a0003003700804ceb002c
:102498000a00780002003700804deb000a0078003f
:1024a8004f05be004f04be00000006002054800007
:1024b80000000600205480000060a20000f0a70081
:1024c8000000ea000000e9004f00de0000000600fe
:1024d8005156800042a4200000f178008000eb00f3
:1024e800f203200053568000828f51000200320010
:1024f800515680008100e80051568800842aec007b
:1025080000000600889fbe0080047800194078000b
:102518000004e0000500320009047800ecff070021
:10252800584078000004e000fcff3a0009007800f9
:102538004f04be0000000600881f780000047800e1
:1025480008007800efff0700d0c0b300e0ff0700e5
:10255800080078004f047800000006008d40ab00aa
:1025680019003a00840ae200160032000f22ab007c
:1025780014003a00f30320000001eb0004202000bf
:102588001052800041a42000614078000000fb0048
:10259800801088000200780011528000838f50005c
:1025a80001003200420aec0010528800842aed0033
:1025b800840ae2000300320071108000010062000a
:1025c800efff32008d40a80020548000f00f50002b
:1025d800fdff3e0000000600842aef00422aef00bb
:1025e800420af800ca0af90000000600cda2a800b5
:1025f8000f42a90000000600d1a2a800cda2a900a0
:102608000f42a80000000600881f780000447800e8
:10261800215480008100e800f0032000808f5000e2
:1026280004003e0008407800a9ff0700cbff070020
:10263800010037000044eb00084078004f047800a0
:1026480000000600889fbe000004780081447800de
:102658000800780088f90700215480000101400033
:102668000000eb00f1032000810f510008003e003c
:1026780008007800a3ff07000904e0000200320008
:10268800d0c0b30092ff0700b4ff0700080078002d
:102698004f04be0000000600809fbe00829fbe005f
:1026a800841f78003400f80000002000a001880092
:1026b800f00320000002eb0091108000860ae3007e
:1026c8000a003e0042548000a3a8200081717900ce
:1026d800862aec0084007800880ae30002003200b1
:1026e800415480008100e800415488000e02ab008c
:1026f800f1ff3a008520a9003400f9004f02780064
:102708004f01be004f00be0000400600809fbe0083
:10271800829fbe00841f78003400f800000020006b
:10272800a0018800840ae200160032000f22ab00e4
:1027380014003a00f30320000001eb0004202000fd
:102748001052800041a42000614078000000fb0086
:10275800801088000200780011528000838f50009a
:1027680001003200420aec0010528800842aed0071
:10277800840ae20003003200711080000100620048
:10278800efff32002054800000f0a7000000ea00ac
:102798000000ea004f00de004a00dd00f1bf2f0014
:1027a80062048000828060008100700061048800fb
:1027b8008540a9003400f9004f0278004f01be009f
:1027c8004f00be0000400600dc82a9000001200086
:1027d800000e8800c221ef002e0bd500200e8800c5
:1027e80000662000400e8800ca21ef00cc21ef00cf
:1027f800d021ef0000802200a00e8800d821ef0031
:10280800da21ef0088e0a9003005800000c0a100af
:1028180000d0a00000e0a0003005880090e0a800eb
:10282800c1e1a800dc82a900000006008000780051
:10283800b0598000810f500006003900905980007f
:10284800810f5000020036000000eb000100370045
:102858000100780000000600881f78000144780015
:10286800f2ff07000000e0000a003200e14f5400c8
:1028780003003a00c00e8800da21ef000700370095
:10288800e14f440003003a00d821ef00d00e880041
:1028980002003700d821ef00da21ef004f0478005a
:1028a80000000600725980000201b8004118dd00de
:1028b8004f11de0002017000cf19de00020078001f
:1028c800e5ff07000000060000017800020078001c
:1028d80000f0a7000000ea0080c0eb000200e00062
:1028e8000100340011c0b300eeff0700000006002d
:1028f8008000d100210e880070598800a2598000fc
:102908000201b800b3598800815980000100b8005d
:1029180091598800000006007059800000000600e8
:10292800a0598800715980000100b800b159880089
:1029380000000600a05980000000060080598800a9
:10294800715980000100b800915988000000060004
:102958008059800000000600d10e8000c00e800063
:10296800810f500001003100010078008000eb0069
:10297800c000dd0000002000725980008001eb00db
:1029880031f70700000006000004a20061006000a3
:102998004400dd00f1fe2f00e21680008280600016
:1029a80081007000e116880000000600d902a80026
:1029b800d802a800d822a800c602a800c622a800eb
:1029c800a802a800a822a800c662a800c682a8007b
:1029d800c6a2a800a862a800a882a800a8a2a80069
:1029e800d842a900c642a900d202a900d222a90051
:1029f800dc42a900ca42a900d602a900d622a90031
:102a0800d1a2a800cdc2a800cda2a900d862a90071
:102a1800d882a900d8a2a900dc82a800000006007c
:102a2800d0168000610060000000a2008000eb006a
:102a3800da22ab0001003a008100200080804000cb
:102a48000000eb00c802ab0001003a004000200083
:102a5800008040000001eb00c822ab0001003a00f2
:102a68002200200002004000000006006100600013
:102a7800e1ff2f00b21680008280600081007000a4
:102a8800b116880000000600e30f50000f00320066
:102a980005003c00e10f500008003200e20f500032
:102aa80010003a0007003700e40f50000900320018
:102ab800e50f50000b003a00080037004016800070
:102ac800090037007016800007003700a016800044
:102ad80005003700d016800003003700001780007b
:102ae800010037000080eb0000000600401680005f
:102af8004c00dd004f00de0000000600401680009c
:102b08004b00dd004f00de0000000600401680008c
:102b18004a00dd004f00de000000060000722000c1
:102b280010098800000120002009880028a1ef0072
:102b3800f0ff2700300988008900a9009100a9004a
:102b4800000006003009800000000600005a8000de
:102b580000000600005a8000021920001100090038
:102b68000200d80000000600610060004700dd0098
:102b7800f1f72f0012098000828060008100700048
:102b8800110988000000060002e224000201b800d2
:102b9800c2598800d35988006c00b900e0598800f0
:102ba80000000600f059800000000600801f780031
:102bb8003400f80000002000a0018800e0598000df
:102bc800420be30009003a0010002000f059880089
:102bd800100028002601b400005a8800f0ff2700e2
:102be80030098800422bef00010037003e2bef0030
:102bf800422bec0088e0a9003400f9004f0078006f
:102c080000400600c0598000d1598000000006002d
:102c180021802000014088000000eb00810278003c
:102c2800f40220000000e8006c01b900828842002c
:102c3800ec804000840f5000faff3a00362aef007b
:102c48008080200042232000000141008000eb002a
:102c58000108780071b89f00210098006c004000be
:102c6800820f5000faff3a00000006000140800081
:102c78000000eb000100e00008003200910078003d
:102c8800100020000100e000040032000000e8000d
:102c9800910078000100e000fcff3a000000060007
:102ca800f2ff07000103200000805000000006002a
:102cb80080017800014080000000eb000100e00086
:102cc8000800320011007800004088000001eb0085
:102cd8000100780022009800520098003200980005
:102ce8000308780000000600014080000108780011
:102cf80000408800000006000000eb00000006000d
:102d08000000eb0000000600a020900010209000ba
:102d180002022000baf5070001002800023b8000eb
:102d280002806000fdff3a0001002800023b80009d
:102d380002806000fdff3a000000060000219000bc
:102d4800017079000201e80002209800f1032000d8
:102d5800010161008001eb00810f510002003a007f
:102d6800e9ff0700130020000300780000000600b8
:102d7800889fbe008004780001047800984078009d
:102d88000104e0000500320009007800ebff0700ad
:102d9800d84078000104e000fbff3a000000eb0097
:102da8004f04be0000000600881f78000000eb00fa
:102db800d1ff070000047800219728000800780058
:102dc800ebff070008007800cfff07004f047800ea
:042dd80000000600f1
:020000040000fa
:102ddc00ce0a00004600000000000000380b000086
:102dec00060000000200000080841e0000b00400f9
:102dfc003e0b000006000000000000002e0b00003f
:102e0c000a000000020000003e06660026ef0000eb
:102e1c0032f3ee0005000000420a00008c000000b6
:102e2c0000000000440b0000060000000000000041
:102e3c004a0b000004000000020000000000c80063
:102e4c0042000000140b00001a00000000000000fb
:102e5c000008000042020000000000004e0b0000c1
:102e6c000200000000000000500b000002000000f7
:082e7c0000000000dc188000da
:020000040000fa
:102e84000019b10006003300211b20000100b80026
:102e94000100b100020032001100b100feff3a004f
:102ea400000006006500b8008100d1000080d30056
:102eb4000a00320002012400220888001008880059
:102ec4000021ef008460a9008c60a90005e1a8003e
:102ed4008460ae006a1704000000000000000600d1
:102ee400f10420000100b8000000e0000a003200f4
:102ef4000203240022088800100888000021ef0043
:102f04008460a9008c60a90005e1a8008460ae007b
:102f14008817040000000000000006000000fe0006
:102f24000000eb0000000600befe07007000400039
:102f340000000600881f7800e10f50000e003400e6
:102f440011009000f4f6070000047800f6ff070073
:102f5400880f500002003200bafc07000700370057
:102f64000000e00002003a00bcfc07000300370048
:102f7400c0fc070001003700b2fc07000000eb00b2
:102f84004f04780000000600881f7800c0992800cc
:102f9400d6fb07000004780022002000c1a028000e
:102fa40008007800bafc0700080078004f04780095
:102fb40000000600889fbe00dafb07000afb07003a
:102fc40000047800cffa0700800478000800be00ef
:102fd400dafb070009007800eafb0700eaff0700b4
:102fe400800478000800be00d4fb070009007800c4
:102ff400e4fb070040000700800478000800be00de
:10300400cefb070009007800defb0700a09828002b
:10301400b6fb07008000780008007800c7fb0700b3
:1030240062002000a1b42000e098280070fc070092
:103034008000780008007800c0fb07004f04be0041
:1030440000000600f0f12f004220b60011e1a900b3
:1030540011a1a90010c1a9001081a90010a1a90003
:103064001061a8001021a9000621ef000a21ef0039
:103074000821ef0000000600740ab9007401b800ca
:1030840083014200325a8800435a88000000060037
:10309400cf00dd00f2ff27008308800003016100f8
:1030a40002817000820888000004e00001003a00f8
:1030b400442bef0000000600205a800000000600a8
:1030c400e10f500003003c000000eb00fffd07008f
:1030d40007003700110090008df6070002e02f0072
:1030e400f36f240025f50700eef40700f7fd070051
:1030f4000000eb0000000600881f780040992800bb
:103104007afb0700000478002186210080992800ba
:103114001efc0700800078000800780087fb070089
:10312400080078004f04780000000600a1ff0700a3
:10313400000006002000fa00d0c0b3008afc07009b
:10314400e10f4000070032000102200000fe2f00c2
:103154000f004000bcfc070000fe2f000f004000e1
:10316400c8fb07000080fa000000060001022000ee
:10317400123a800002806000fdff32000cfe07005e
:1031840092fd070066fe0700aeff070058fc07002b
:103194000040eb00fdfd07000040eb0000000600ce
:1031a400f2ff0700e1ff070014fd0700e1ff07003d
:0431b400feff3700e3
:020000040000fa
:0431b8000000000013
:020000040000fa
:0200000400fffb
:10f8000000000000000000000000000000000000f8
:10f8100000000000000000000000000000000000e8
:10f8200000000000000000000000000000000000d8
:10f8300000000000000000000000000000000000c8
:10f8400000000000000000000000000000000000b8
:10f8500000000000000000000000000000000000a8
:10f860000000000000000000000000000000000098
:10f870000000000000000000000000000000000088
:10f880000000000000000000000000000000000078
:10f890000000000000000000000000000000000068
:10f8a0000000000000000000000000000000000058
:10f8b0000000000000000000000000000000000048
:10f8c0000000000000000000000000000000000038
:10f8d0000000000000000000000000000000000028
:10f8e0000000000000000000000000000000000018
:10f8f0000000000000000000000000000000000008
:020000040000fa
:0200000401f009
:04000000f6bf000047
:020000040000fa
:0200000401f009
:04000400ff7f00007a
:020000040000fa
:0200000401f009
:04000800dfff000016
:020000040000fa
:0200000401f009
:04001400ffff0000ea
:020000040000fa
:0200000401f009
:04001800ffff0000e6
:00000001FF
