:020000040000fa
:080000000001040000000000f3
:020000040000fa
:04000800ec01000007
:020000040000fa
:04000c00ec01000003
:020000040000fa
:04001000ec010000ff
:020000040000fa
:04001400ec010000fb
:020000040000fa
:04001800ec010000f7
:020000040000fa
:04001c00ec010000f3
:020000040000fa
:04002000ec010000ef
:020000040000fa
:04002400ec010000eb
:020000040000fa
:04002800ec010000e7
:020000040000fa
:04002c00ec010000e3
:020000040000fa
:04003000ec010000df
:020000040000fa
:04003400ec010000db
:020000040000fa
:04003800ec010000d7
:020000040000fa
:04003c00ec010000d3
:020000040000fa
:04004000ec010000cf
:020000040000fa
:04004400ec010000cb
:020000040000fa
:04004800ec010000c7
:020000040000fa
:04004c006c2b000019
:020000040000fa
:04005000a62b0000db
:020000040000fa
:04005400ec010000bb
:020000040000fa
:04005800ec010000b7
:020000040000fa
:04005c00ec010000b3
:020000040000fa
:04006000ec010000af
:020000040000fa
:04006400bc310000ab
:020000040000fa
:04006800ec010000a7
:020000040000fa
:04006c00ec010000a3
:020000040000fa
:04007000ec0100009f
:020000040000fa
:04007400ec0100009b
:020000040000fa
:04007800ec01000097
:020000040000fa
:04007c00ec01000093
:020000040000fa
:04008000ec0100008f
:020000040000fa
:04008400ec0100008b
:020000040000fa
:04008800ec01000087
:020000040000fa
:04008c00ec01000083
:020000040000fa
:04009000ec0100007f
:020000040000fa
:04009400ec0100007b
:020000040000fa
:04009800ec01000077
:020000040000fa
:04009c00ec01000073
:020000040000fa
:0400a000ec0100006f
:020000040000fa
:0400a400ec0100006b
:020000040000fa
:0400a800ec01000067
:020000040000fa
:0400ac00ec01000063
:020000040000fa
:0400b000ec0100005f
:020000040000fa
:0400b400ec0100005b
:020000040000fa
:0400b800ec01000057
:020000040000fa
:0400bc00ec01000053
:020000040000fa
:0400c000ec0100004f
:020000040000fa
:0400c4007031000097
:020000040000fa
:0400c800ec01000047
:020000040000fa
:0400cc00ec01000043
:020000040000fa
:0400d000ec0100003f
:020000040000fa
:0400d400ec0100003b
:020000040000fa
:0400d800ec01000037
:020000040000fa
:04010800ec01000006
:020000040000fa
:04010c00ec01000002
:020000040000fa
:04011000ec010000fe
:020000040000fa
:04011400ec010000fa
:020000040000fa
:04011800ec010000f6
:020000040000fa
:04011c00ec010000f2
:020000040000fa
:04012000ec010000ee
:020000040000fa
:04012400ec010000ea
:020000040000fa
:04012800ec010000e6
:020000040000fa
:04012c00ec010000e2
:020000040000fa
:04013000ec010000de
:020000040000fa
:04013400ec010000da
:020000040000fa
:04013800ec010000d6
:020000040000fa
:04013c00ec010000d2
:020000040000fa
:04014000ec010000ce
:020000040000fa
:04014400ec010000ca
:020000040000fa
:04014800ec010000c6
:020000040000fa
:04014c00ec010000c2
:020000040000fa
:04015000ec010000be
:020000040000fa
:04015400ec010000ba
:020000040000fa
:04015800ec010000b6
:020000040000fa
:04015c00ec010000b2
:020000040000fa
:04016000ec010000ae
:020000040000fa
:04016400ec010000aa
:020000040000fa
:04016800ec010000a6
:020000040000fa
:04016c00ec010000a2
:020000040000fa
:04017000ec0100009e
:020000040000fa
:04017400ec0100009a
:020000040000fa
:04017800ec01000096
:020000040000fa
:04017c00ec01000092
:020000040000fa
:04018000ec0100008e
:020000040000fa
:04018400ec0100008a
:020000040000fa
:04018800ec01000086
:020000040000fa
:04018c00ec01000082
:020000040000fa
:04019000ec0100007e
:020000040000fa
:04019400ec0100007a
:020000040000fa
:04019800ec01000076
:020000040000fa
:04019c00ec01000072
:020000040000fa
:0401a000ec0100006e
:020000040000fa
:0401a400ec0100006a
:020000040000fa
:0401a800ec01000066
:020000040000fa
:0401ac00ec01000062
:020000040000fa
:0401b000ec0100005e
:020000040000fa
:0401b400ec0100005a
:020000040000fa
:0401b800ec01000056
:020000040000fa
:0401bc00ec01000052
:020000040000fa
:0401c000ec0100004e
:020000040000fa
:0401c400ec0100004a
:020000040000fa
:0401c800ec01000046
:020000040000fa
:0401cc00ec01000042
:020000040000fa
:0401d000ec0100003e
:020000040000fa
:0401d400ec0100003a
:020000040000fa
:0401d800ec01000036
:020000040000fa
:100200006fc720000eff20000e01880000000000d4
:10021000000020000000e000020032000001200089
:10022000200288000c00070000e4220001002000ea
:1002300011000700000020000000e0000200320072
:100240000000020000000000543402000000000022
:100250000040da000000fe004440a900c022200057
:100260000000e0000300320000002000a001880030
:100270004440a8000000060091018800800078003a
:100280000000eb0015003700e280400032a0b4000f
:100290009101ba00e280400032a0b4009102ba009d
:1002a000e280400032a0b4000002eb00472bde00e9
:1002b000f507b200602ce10004003a000059eb00a1
:1002c0008301e900fdff3e00040037006128e100e2
:1002d000010032000082eb000b00070011c3ba00de
:1002e0001101ba000604e00003003a000200e00039
:1002f000e5ff3a0000000600f607b200960188000c
:1003000082007800f5ff37003159ba008301e90017
:100310000c0032002159ba008301e90008003200c4
:100320000400e00003003a00e280400032a0b40084
:10033000f5ff370011d9ba008301e900faff3a004e
:100340008100e800e180400032a0b4000000060017
:10035000000000000000000000000000000000009d
:10036000000000000000000000000000000000008d
:10037000000000000000000000000000000000007d
:10038000000000000000000000000000000000006d
:10039000000000000000000000000000000000005d
:1003a000000000000000000000000000000000004d
:1003b000000000000000000000000000000000003d
:1003c000000000000000000000000000000000002d
:1003d00000000000000000000040da000000fe0005
:1003e0006900e100040035006d00e1000300340005
:1003f0000002b100010032000000050010000500fd
:100400000a00fa00e20f500020003e00a0638000c6
:10041000e10f50000600320000002000050020001f
:1004200003002000040020000000e00004003a0067
:100430004021200005212000e3202000c4202000ce
:10044000060028001403630003003a000608780041
:1004500000002800140a700013a8a30001003a004d
:1004600013a0a00002007800050037001388a30045
:10047000feff32003102fb00840a78000000e90030
:100480000000e000f9ff3a000800370033002000c8
:10049000b3bf9f00c0bf9f00d1bf9f00e2bf9f00be
:1004a0006a805700f30907006fb9970002007800cf
:1004b0000080fa00000006003200f8009101880078
:1004c0000008bb00410424006210e1000400320077
:1004d000000220000010e1000a003a00510424004c
:1004e000013b88000500fc0051052000313b8800dd
:1004f000a10a2000313b880061e7a800000000004d
:10050000000000003200f900000006003200f80090
:1005100060042400003b8800f2ff37003200f8003e
:100520009101880041002400013b88000208bb00c3
:10053000ecff37003200f8009101880051002400e0
:10054000013b8800030120003218bb008301e90051
:10055000fdff3a00e3ff370003f0a200889fbe00d2
:100560008a9fbe008c1f780019010700200133000c
:100570006450e1004f0032006420e100520032007c
:1005800003826c0007003b000905d0000306d00081
:10059000820f54000c065d00020039000200320098
:1005a00089017800030678008582550004003d002b
:1005b0000003fd008103fd008502ea008b854200f7
:1005c000840f720002003b0060001000e080180001
:1005d0006011b8000005eb007a28e1000a0039003c
:1005e00006007800c75ddd00f707b2008780750060
:1005f0002d003700828171000a01780061056000da
:100600008180d1000080d3008502e900f9ff3b0022
:10061000060440008784480002003b006004140088
:10062000e0841c000988a300070032008a81710061
:1006300082817100610164008904d1000884d300c3
:100640008b05e800170037000978a30013003a0073
:100650000b00e000130034008b05e900080444009f
:1006600089844c000a4474000978a3000d003a0004
:100670000b00e000070034008b05e900080444008b
:1006800089844c0001003a000b0020000978a30087
:10069000f7ff32000001eb00020037008281710099
:1006a0000a0178008f0007000cf0a70001f0a000fd
:1006b000d80037006420e10002003a00838f6c000c
:1006c000d80033000801be000200be00d100370090
:1006d000889fbe008a9fbe008c1f7800bc00070068
:1006e000c300330003866c006450e1002e0032002a
:1006f0006420e100330032006150e1002f0032003d
:100700006120e1003100320085855500eb07b00023
:1007100009002000080420000500370008044400f8
:1007200089844c000a0031000603430087834b0094
:100730000001530081815b00f8ff33000203be001b
:100740000800a0000804440089844c00f6ff39002a
:10075000c639dd0083017300010032001300200060
:100760008904d1000884d3000998a3000500320051
:100770000800a7000300a0008904d1000884d3006a
:100780008b05e8008904d1000884d3000001eb0048
:100790000281d2005300070001f0a1000cf0a70075
:1007a00001f0a0009b0037006420e1009d003200b2
:1007b0000801be000200be00f7ff37006120e10023
:1007c000980032006000b800f3ff370000002000fe
:1007d00001f82700f0ff370014002000d800370090
:1007e000f4ff2f00d60037000001be0063000700b1
:1007f0000470a70003f0a1006509b10016003200e3
:100800000d0035006828e10006003500f0ff2f00dc
:10081000f1ff27000300e00013003b000100280067
:100820000000050000004000818048008502e900ca
:10083000fcff3a0008003700f88f420002003c003d
:100840008000eb00000005008100d1000080d30093
:100850008502e800fcff3a000300e00002003b00d4
:1008600060001000e0801800000006000001be00db
:10087000420007000470a70003f0a10003f8a300e2
:1008800013003a006509b10010003200090035007c
:100890006928e10002003500010028000000050081
:1008a00000004000818048008502e900fcff3a001a
:1008b00000000600f88f4200050035008100d100dd
:1008c0000080d3008502e800fcff3a00000006002b
:1008d0008000eb00000005004f89de0082017800f7
:1008e000b200370081002000618055000b003d0000
:1008f0000b00200061fe2f000100e1001d0034000c
:1009000082817100610164008904d1000884d300f0
:100910000000e800faff3a00710020006100640066
:10092000030070000200600009003200610444000e
:10093000e0844c000988a500050032008b05e80022
:100940006808e10002003a008904d1000884d3005d
:10095000f20f20000258e10005003d00c75ddd00f8
:10096000f907b200898075000800780000000600d1
:100970000bf827008b00780000000500c70ade0096
:10098000f107b200f50fb20008003200e1cf4200db
:10099000020032000170a00024000500810f7000e9
:1009a000010032000408050044000500810f7000ba
:1009b00002003a00140005008502e9000000400032
:1009c00081c04800fcff3b000170a000240005002e
:1009d0000004be00e9ff07000003be000405be00de
:1009e0000200be00e5ff0700844f7500000006000e
:1009f0000200be006450e100050036006420e10002
:100a0000020036000968a30001003a000800be0099
:100a10000160a0004f0678004f05be004f04be00e5
:100a200000000600f0ff2f00f1ff2700f9ff37005c
:100a3000889fbe008a9fbe008c1f7800e4ff0700dd
:100a4000ebff330003866c006450e10024003200a9
:100a50006420e100270032006150e10022003200f2
:100a60006120e100210032008b854200eb07b100dc
:100a70000134b800003ab8000804420089844a00f2
:100a8000013ab8000030b8008880400009014a00ef
:100a9000040033000000400081804800020149004a
:100aa0008b05e900c909dd008301700001003200f7
:100ab00013002000c814de004814dd004709de00e2
:100ac0001200b200c808de000884700085ff07002d
:100ad00001f0a1000cf0a70001f0a000cdff37004d
:100ae0006120e100cfff32000801be000200be001d
:100af000f7ff37006150e100fcff3a00c9ff370003
:100b00006022b800060220000000d0008180d200e0
:100b10000482d2008582d2000000a00002025200ae
:100b200083825a00030031000202420083824a009d
:100b30000000a1000603e900f3ff3a0000000600f0
:100b4000889fbe008a9fbe00841f7800a0ff070018
:100b50004f00780011003300f0ff2f00838f6c00ee
:100b600006003b00040565000a00a70008003700e6
:100b700009f0a6001000200008003700820f540082
:100b8000838f5c00030039001000200001003e004c
:100b90000000200009f0a7000000ea004f05be0099
:100ba0004f04be000000e00000000600881f78002f
:100bb000030478000300e00007003d00600010001f
:100bc000e080180060011900e081190002003b007c
:100bd00001f02d00030037000400070008f0a70013
:100be00001f0a0004f04780000000600889fbe00be
:100bf0008a9fbe00008270000402710004827100ae
:100c0000260032000004be000200be006011b800e1
:100c10006b092000950220000182cf000a003900f4
:100c20000541b1000082cf00070039000541b10045
:100c30000982cf00040039000541b1000882cf00cd
:100c4000010039000541b100054252001200320096
:100c50000a003b0082817100610164008100d100c3
:100c60000080d3008984d3000884d3008b05e8007a
:100c70000442e800f7ff3a00070037000804440088
:100c800089844c0000004800818048008b05e90001
:100c90000442e900f9ff3a0012ff07004f05be00c9
:100ca0004f04be0000000600889fbe008a9fbe0061
:100cb0008c9fbe008e1f7800010678000c00e000bb
:100cc00001003200000e78008004780009057800e9
:100cd0008a047800b905fb000b007800c0fd07000e
:100ce0000000e000f9ff3a00d0022000808f55009c
:100cf00003003a000905780018c0b300050037006a
:100d00000044eb00b0022000808f550001003a0043
:100d1000090578006000b8008004eb000007eb00d4
:100d2000010037000a05e8000a0178000848a3001e
:100d300005003a00e3c2b3009acf110002003a0066
:100d40000844a000f7ff37009a4578008b01fb00ac
:100d50000303b100e98f510016003e000814a00003
:100d60000801fb00e98f54000e0032000248a30086
:100d7000010032000e07e9008904e800a20020000b
:100d800003002000f709070002cdb30002c14500af
:100d90000281fb008001eb000000410081804900de
:100da000e0ff37000248a300deff3a000e07e8002c
:100db000dcff370053c6b30083cf55000400320078
:100dc0008004eb0053c4b30083cf55002d003a00dc
:100dd0005a417800d3c2b300834f510002003a0059
:100de0000834a00003003700b3c2b300834f5100a2
:100df00001003a000a05e8000a01780002057800bf
:100e00003a42780003c3b300834f5200faff320026
:100e10008402fb000503b1008004eb00e98f52005f
:100e200015003e00834452008984fb000a017800cb
:100e3000124278008402fb000503b100e98f5200e2
:100e40000d003e006a4bb900834452008984fb00c8
:100e500086844400524278008402fb000503b100fe
:100e6000e98f520004003e006a4bb90083445200ef
:100e70008984fb00868444000838a3000100320006
:100e80008904ea000c00e000030032000818a30007
:100e900001003200020e78008ffe07000005be0040
:100ea0000006be006011b8004bfe0700000178008c
:100eb0006000b8000200e000580032008e84440058
:100ec00032f82f00828f540003003d0022022000e0
:100ed000826388005100370000082000808f540092
:100ee0000700340020022000806388000808a30067
:100ef000450032000000200001f82f0047003700b5
:100f00000900e0001b003d008904ea0006003700ec
:100f1000922f2000530125000a00be00ecfd0700bf
:100f20000005be00ea845400e98f5400f8ff3c003d
:100f30000600370002002000031224000a00be0051
:100f4000e3fd07000005be008904e9000900e00098
:100f5000f8ff3a000a06be00020020000308200045
:100f60000a00be001cfe07000000e00021003d005a
:100f70001b0037000900e00007003a001d003700a1
:100f8000922f2000530125000a00be00a8fe070092
:100f90000005be00ea845400e9cf5400f8ff3e008b
:100fa0000600370002002000031224000a00be00e1
:100fb0009ffe07000005be008904e9000900e0006b
:100fc000f8ff3a000a06be00f2ff2f00f3f72700f1
:100fd0000a00be0002fe07000000e0000500340029
:100fe0000808a3000b0032000000200001082800c0
:100ff0000a0037000808a300010032000df0a2002b
:101000000c00be00050037000000200001f827009a
:101010000200370000002000010820004f07780080
:101020004f06be004f05be004f04be000000060084
:101030001dff37008000eb001bff370080007800a9
:10104000010078003041780003c2b300834f5100a3
:10105000faff3200e94f5100f8ff3200edc14100c4
:10106000834f510003003a008000780013c0b300a2
:10107000050037008041eb00b4c2b300844f51003b
:1010800001003a00800078000000eb000200370009
:101090006a02b900040041003101fb000203b10003
:1010a000e90f5100faff36000304e00001003200ae
:1010b0000000ea00000006000003780081027800ca
:1010c0008501780001003700040378001100090051
:1010d0008281d800800178000602e8000300e00069
:1010e000f9ff3a00034a7800110009008282d80013
:1010f000000278008141780084027800e9cf510035
:1011000001003400e7c1410001c3b30001d3410035
:101110000400e000f4ff3a0006007800000006003a
:10112000881f7800000478000100e00005003d0001
:1011300008007800d3c2b300035878008100ea00a9
:101140000100370008007800dbff07000800780086
:101150004f04780000000600b041780031c1510012
:1011600002003a000304e000fbff3a000200fb002b
:101170000000060000017800b141780003597800b2
:101180000304e000fcff3a00000006008000780045
:101190003104e000feff3a000080ea0000804000d9
:1011a00000000600889fbe000004be000800e000aa
:1011b00003003a00986380000800e000130032004a
:1011c0000800be004c060700000444001804e000bc
:1011d00004003a000000eb00906388000004eb007c
:1011e0000a0037000800be00300607000000440077
:1011f000906388001004e000020032000058eb0009
:10120000010037000000eb009063880008007800c0
:101210004f04be00000006000c00fa00889fbe00cc
:1012200000047800f0ff2700d0bf9f008004eb008f
:1012300099bf9f0088bf9f00a8bf9f00200c20007f
:10124000b0bf9f0078815700cfb0970070805700e3
:10125000cf0007000fb89700094878008fb89700b3
:10126000088050004f04be000080fa000000060015
:101270000800fa00889fbe008a9fbe000084fb0021
:10128000d1c6b300814f5000340036004b06200019
:10129000110009000b84d80081057800720040001d
:1012a0004300dd00c9ad2000008044006022b8008a
:1012b0000600200007fe23005001be004000be00d3
:1012c000310807000002be000203be0084bf9f0079
:1012d00095bf9f00a6bf9f00b7bf9f00aa00200038
:1012e000110009008a85d80080057800e98545004d
:1012f000c35ddd008b8544003b02be002b03be00b6
:101300000fb897009fb897002fb99700bfb9970003
:101310001d0807000002be000203be0084bf9f003c
:1013200095bf9f00a6bf9f00b7bf9f001100090097
:101330000a84d800010478004344dd008884440016
:101340003902be002903be000fb897009fb897006e
:101350002fb99700bfb997001d003700ea4f500022
:1013600013003600aa002000110009000a84d800ea
:1013700001057800690440004344dd00c9ad200048
:10138000088444006022b8000600200007fe230005
:101390003800be002801be00fb0707004355dd00f2
:1013a0008a8444003902be002903be0008003700c9
:1013b0004344dd00c0ad2000080440006022b800b6
:1013c0000600200007fe23003800be002801be00f2
:1013d000ed0707004f05be004f04be000080fa0075
:1013e000000006000800fa00889fbe008a9fbe0029
:1013f000d1c6b3000004e00023003d000040ea0035
:101400000004fb00814f50000a0034004206200017
:10141000110009000204d800a900200011000900f1
:101420008900d800e9004000c308dd00caad2000f3
:1014300021003700ea4f500010003400a2002000c5
:10144000110009000204d800010178006900400081
:101450004300dd00c1ad2000008040004311dd00ed
:10146000828040003102be002103be005001be0058
:101470004000be00c4070700380037004344dd00c9
:10148000c0ad2000320037000004fb00814f500047
:101490002300340042062000110009000204d80095
:1014a000a9002000110009008900d800e9004000cf
:1014b000c308dd00caa22000810045003102be0041
:1014c0002103be008b0920008a8545003b00be0039
:1014d0002b01be00ac0707000002be000203be00e5
:1014e00084bf9f0095bf9f00a6bf9f00b7bf9f000e
:1014f000110009000904d800010478004344dd000c
:10150000080545003a02be002a03be000fb8970046
:101510009fb897002fb99700bfb99700d5ff370044
:10152000ea4f500008003400a2002000110009001a
:101530000204d80001017800690040004300dd008a
:10154000c1a22000c4ff37004344dd00c0a2200038
:10155000080440003800be002801be004f05be0050
:101560004f04be000080fa0000000600d001900089
:10157000028151004240a9000300340010017800ac
:10158000014978000208e800010078000000060028
:101590006f03b000889fbe008a9fbe008c9fbe0074
:1015a0008e1f780000067800c1a79f0092af9f00b1
:1015b0006000b8006011b800d0a79f00e1a79f00ad
:1015c000f2a79f0083af9f008006eb00e80437007e
:1015d000cfa097008100e800c1a79f0051c2b300cf
:1015e000814f500003003a00cfa197008000eb002c
:1015f00011003700bc0090000000fb000168a30050
:10160000070032000d017800800078000c0078009f
:10161000d6ff07000000e00005003a00d4043700c0
:101620008c007800de040700e10f4000d004320097
:101630008d06e800ce0437000300780033417800bf
:10164000d4c2b300844f51000c00320007003c00ac
:101650006d425200844f51000a0032006b4242003a
:10166000844f51000d003a000800370004c3b30056
:10167000844f510009003a00060037000130a000f5
:10168000edff37000100a000ebff37000110a000c4
:10169000e9ff37000120a000e7ff37000118a30091
:1016a000010032000100a1000138a3000100320056
:1016b0000120a1008201fb000303b100e98f51006a
:1016c0000e003e00000178008001eb00e3af9f00b8
:1016d0006a1ab900b201fb000303b1008481410022
:1016e000020078001202fb000403b100e90f52006f
:1016f000f7ff3600e3af9f000a0037000002eb005f
:10170000e4af9f00a3c2b300834f510005003a002d
:101710009faa97004503780095af9f00e6af9f0012
:101720000000e800e2c2b300904f110016003a003a
:1017300001e0a00064415100d04f110003003200cd
:10174000000178000002eb00090037001fa9970094
:10175000c201780092af9f00a3b79f000000e8008d
:10176000000178000c0037006a22b90004824100b1
:1017700002007800b201fb000303b100e98f5100c1
:10178000f9ff36000200370001c0a0000002eb00a4
:10179000a4b79f00f2ff370032407800c2a79f0035
:1017a000c3c6b300834f50001400320009003c0050
:1017b00032c6b300824f50008000320063414100c6
:1017c000824f5000130032000004e0006d0432002c
:1017d0009900370052c7b300824f50009b0032007f
:1017e00063414100824f50000d00320065415100bd
:1017f000824f500090003a000c003700000120009a
:101800000148a300010032000000280081007000a0
:10181000e1ff3700e07f9f0001a0a0008d003700ae
:10182000e07f9f000170a0008a003700e07f9f00ea
:101830001fab97004600780096af9f000004780029
:101840000000e00001003a00c8b82000080178005c
:101850000000eb00010037000000e800e2417800e2
:101860000304e000fcff3a0080047800afb3970067
:101870000700e00003003200898f530001003100af
:10188000870478000007eb006fa99700890f5100cb
:101890000100360009075100e8806000b1b79f00e1
:1018a0002a003a00110037003c0090000068a300b5
:1018b000070032000d017800010220000c007800c2
:1018c0002aff07000000e00006003a00060037008b
:1018d0008c0078000002200031040700e10f400076
:1018e000010032008d06e8000e07e9000e00e0005e
:1018f000edff3a000087eb00140037003c00900039
:101900000068a3000900320008007800b000fb0066
:10191000000478000d0178000c00780013ff070028
:101920000000e00008003a00080037008800780056
:101930003100fb00010478008c00780018040700d7
:10194000e10f4000010032008d06e8000900780038
:101950008004e9000000e000e8ff3a00bfb1970012
:101960000300e00002043200110037003c00900048
:101970000068a300070032000d017800010220007a
:101980000c007800f9fe07000000e00006003a00b5
:10199000060037008c0078000002200000040700d9
:1019a000e10f4000010032008d06e8000e07e9005b
:1019b0000e00e000edff3a00ed0337001faa97008c
:1019c0004400780094af9f006102b900612bb90018
:1019d000b4b79f00c5b79f00d6b79f00e7b79f0079
:1019e0004822de004828dd0004027000e47f9f00ea
:1019f0000148a300090032000404e000070032009f
:101a0000e14f420005003200f47f9f006fe1970034
:101a100082c79f002900200003003700efe19700f4
:101a2000f37f9f0019002000e4fb2f000f0242000b
:101a30000404e8008dff3700e07f9f00e8fb2f00e3
:101a40000f0444001900200088ff3700e07f9f004a
:101a5000010cb300b1b79f0000702000bfb2970027
:101a6000008062003d02320005c8a300020032007f
:101a700066002000a6b79f00bfb397000748a300e9
:101a8000090032001faa97004401be004400be00b6
:101a900094af9f00a0af9f00b1af9f00c2af9f0067
:101aa000d3af9f000a0037009faa97004500be00f1
:101ab00095af9f009c0507000002be000203be0018
:101ac000a4af9f00b5af9f00c6af9f00d7af9f00e8
:101ad0006022b8006033b8002fa89700bfa8970015
:101ae0004fa99700dfa99700e10407000000e0007c
:101af0000c003d002fa89700bfa897004fa99700a2
:101b0000dfa9970003f0a200a0af9f00b1af9f0034
:101b1000c2af9f00d3af9f00bfb097003100b300aa
:101b2000b1b79f000000eb0090a79f006022b800b3
:101b30006033b8002fa89700bfa897004fa997005f
:101b4000dfa997002e0507000000e00034003200f6
:101b500024fc2f000f0242002fa89700bfa8970077
:101b60004fa99700dfa99700ea0507001fa097007b
:101b70000000e9006302b900a20020001100090082
:101b80000202d80090a79f000000e00002003d0084
:101b90000000e90090a79f001fa497000840ea00fa
:101ba00010fe07002faa9700bfaa97004fab97001f
:101bb000dfab9700f40507000002be000203be0081
:101bc000d4a79f00e5a79f00f6a79f0087af9f00bf
:101bd0006022b8000600200007ff2300a4040700cd
:101be0000000e00002003d000804e9000b0037009f
:101bf0006022b80006002000470224005fa0970082
:101c0000efa097007fa197008fa997009d04070080
:101c10000000e000020035000804e80098a79f00db
:101c2000afb29700f88f52000f003c0005407800db
:101c30008ffd07000002be000203be002fa8970020
:101c4000bfa897004fa99700dfa997000b040700d2
:101c50000002be000203be00a4af9f00b5af9f000c
:101c6000c6af9f00d7af9f001fa49700e90f540095
:101c700015003c006022b8006033b8002fa8970020
:101c8000bfa897004fa99700dfa99700dc040700c1
:101c90000000e000320032002fa89700bfa8970094
:101ca0004fa99700dfa997003e050700e00f5000fd
:101cb000e08f5800e00f5900e08f590028003a00eb
:101cc000e10f5400260034000400200005002e001f
:101cd000b6e02200170124005fa09700efa0970054
:101ce0007fa197008fa99700610407000000e00022
:101cf00002003d00730454000100370072045400d8
:101d000098a79f002fc09700b6fd07000002be00f5
:101d10000203be00d4a79f00e5a79f00f6a79f007f
:101d200087af9f002fa89700bfa897004fa99700e3
:101d3000dfa99700580407001a0507000205be0036
:101d40000004be006000b8006011b800a0af9f00a2
:101d5000b1af9f00c2af9f00d3af9f001700370005
:101d60002fa89700bfa897004fa99700dfa9970059
:101d70000c0507000205be000004be003a0507007e
:101d80000002be000203be002fa89700bfa8970064
:101d90004fa99700dfa99700f00507000002be00d9
:101da0000203be00a4af9f00b5af9f00c6af9f0067
:101db000d7af9f000000eb0090a79f00c5ba20009e
:101dc00014c0b300080037003500be003501be0066
:101dd0000040e10001c8e10002d0e10003d8e100c9
:101de000030039000442e800f44f5200f6ff3a00c5
:101df000e47f9f001fa09700efaa97000080520089
:101e00002fb39700060050000402fb0004075000a7
:101e10000600e000010032000e07e900bfb39700a2
:101e200063806300010032000e07e9003fb09700b5
:101e30000028a30039003200610160000018a300ef
:101e40000f0032003c0090000068a3000600320042
:101e5000b10220000200e000010032008180e800b1
:101e60000d0178000d003700b00220000200e000f4
:101e7000010032000080e8008c0078000e0037007e
:101e80000200e000220032003c0090000068a30045
:101e9000070032000d017800010220000c007800dc
:101ea000b2fd07000000e00006003a00180037000d
:101eb0008c00780000022000b9020700e10f40000a
:101ec000130032008d06e800110037003c0090003e
:101ed0000068a300070032000d0178000103200014
:101ee0000c007800a1fd07000000e00006003a00a9
:101ef000060037008c00780000032000a8020700cd
:101f0000e10f4000010032008d06e8000e07e900f5
:101f10000e00e000edff3c005f003700bfb097000f
:101f20000138a30014003a00110037003c00900073
:101f30000068a300070032000d01780001022000b4
:101f40000c00780089fd07000000e00006003a0060
:101f5000060037008c007800000220009002070085
:101f6000e10f4000010032008d06e8000e07e90095
:101f70000e00e000edff3c00bfb197006181610001
:101f80000318a3000e0032003c0090000068a3007c
:101f900005003200b10220000200e00025003200fe
:101fa0008180e80023003700b00220000200e0003a
:101fb000010032000080e8008c0078003200370019
:101fc0000200e000340032003c0090000068a300f2
:101fd000030032000d0178000102200016003700d6
:101fe0008c00780000022000270037003c019000a0
:101ff0008100fb0040ba20000268a30013003200f9
:10200000c308dd00010040003002be002003be0016
:102010000800be000a01be00f1050700a400200070
:10202000050020006033b800f4050700010320001c
:10203000808040000d0178000c0078004bfd070007
:102040000000e00013003a0013003700c308dd0071
:10205000010040003002be002003be000800be00a8
:102060000a01be00de050700a400200005002000d4
:102070006033b800e10507000203200000014100c1
:102080008c0078000200780045020700e10f400054
:10209000010032008d06e8006f7897008040e9006b
:1020a000e17f9f000004e000d0ff3a0013003700fa
:1020b0003c0090000068a300070032000d0178008a
:1020c000010320000c00780028fd07000000e0005c
:1020d00006003a00060037008c007800000320005c
:1020e0002f020700e10f4000010032008d06e800da
:1020f0001fa097000000e90090a79f001fa0970075
:102100000000e000eaff3c002fb29700f20f5200ff
:102110000300340020c1b300e07f9f0002003700bd
:10212000cfe29700e57f9f006f7897008000fb006b
:102130002fb3970081005300a1b79f000004e00077
:10214000100032003c0090000068a300070032003d
:102150000d017800e10220000c00780003fd07006b
:102160000000e00006003a00060037008c0078000e
:10217000e00220000a020700e10f400001003200e7
:102180008d06e8006f78970096fc07000002be00fd
:102190000203be002fa89700bfa897004fa9970081
:1021a000dfa9970078040700fe030700330037001b
:1021b0003c01900041ba20000000fb000268a3002f
:1021c000130032004300dd00008040003002be00fa
:1021d0002003be000800be000a01be008005070003
:1021e000a4002000050020006033b800830507002c
:1021f0000003b0000d017800800078000c0078002a
:10220000dafc07000000e00011003a00110037007e
:102210004300dd00008040003002be002003be000d
:102220000800be000a01be006d050700a4002000e2
:10223000050020006033b800700507000003b000ff
:102240008c007800d6010700e10f40000100320049
:102250008d06e800ef7b97000700fb004300dd00e0
:1022600041ba2000008040003002be002003be00c2
:102270000800be000a01be00600507000205be009e
:102280000004be00ef7897000140e900e07f9f0066
:102290000104e000c6ff3a00e8af9f00f9af9f00dd
:1022a0008ab79f009bb79f00afb49700110037001b
:1022b0003c0090000068a300070032000d01780088
:1022c000010320000c007800a8fc07000000e000db
:1022d00006003a00060037008c007800000320005a
:1022e000af010700e10f4000010032008d06e80059
:1022f0008904e9000900e000edff3a00bfb0970053
:102300000138a3009a0132000e00e0009801340069
:102310003c0090000068a300070032000d01780027
:10232000010220000c00780090fc07000000e00093
:1023300006003a00060037008c00780000022000fa
:1023400097010700e10f4000010032008d06e80010
:102350000e07e900eeff3a00850137003fb1970014
:102360000200e00005003d009fa997004305be0064
:102370004304be0093af9f000d0037003fb29700ab
:102380000448a300050032009faa97004504be0040
:102390006055b80095af9f00050037001fab970050
:1023a0004604780096af9f008004eb006055b800ab
:1023b000afb397000700e00009003a0010002000ca
:1023c000a0b79f00e00f5400e08f5c00e00f5d00bd
:1023d000e08f5d00020032008000eb00a1b79f009b
:1023e0003fb19700020cb200a2af9f00000820008e
:1023f000800f510010003200000c2000800f5100af
:1024000021003a00c1ba200010c0b3003102be0062
:102410003103be000440e10005c8e10006d0e10040
:1024200007d8e100170039000040e800f44f5000e1
:10243000f6ff3a001300370010c0b300040120007b
:10244000050020006033b8000440e10005c8e10049
:1024500006d0e10007d8e1000a003900430020005f
:102460000402d0008582d2000683d2008783d20086
:102470008301e900faff3a000040e800f04f500005
:10248000f1ff3a00e07f9f006f7a97000400fb00a5
:10249000afb29700850f500002003d00e57f9f001e
:1024a000040037002fb39700800f530001003d0058
:1024b000a0b79f00efab97000700e00005003200d7
:1024c000bfb0970063806000020032008703e9001c
:1024d000e7af9f003fb1970002e8a3000900320078
:1024e000efa997002fb29700848f510003003400aa
:1024f00084815100e3af9f00020037008002eb00af
:10250000e5af9f006f7b97000600fb000007eb0024
:10251000efab9700808f5300010034000087530019
:102520003fb097000028a30038003200610160002e
:102530000018a3000f0032003c0090000068a300c8
:1025400006003200b10220000200e000010032006b
:102550008180e8000d0178000d003700b0022000f6
:102560000200e000010032000080e8008c007800ea
:102570000e0037000200e000100032003c00900026
:102580000068a300070032000d017800010220005e
:102590000c007800f5fb07000000e00006003a00a0
:1025a000060037008c00780000022000fc000700c5
:1025b000e10f4000010032008d06e8000e00e0004f
:1025c0004e0032003c0090000068a300070032007b
:1025d0000d017800010320000c007800e3fb0700e8
:1025e0000000e00006003a00060037008c0078008a
:1025f00000032000ea000700e10f40000100320064
:102600008d06e8000e07e900ecff37000e00e00041
:1026100015003200bfb097000138a30012003a0045
:102620003c0090000068a300070032000d01780014
:10263000010220000c007800ccfb07000000e00045
:1026400006003a00060037008c00780000022000e7
:10265000d3000700e10f4000010032008d06e800c2
:102660000e07e900eeff3a00bfb1970061816100fb
:102670000318a3000f0032003c0090000068a30084
:1026800006003200b10220000200e000010032002a
:102690008180e8000d0178000d003700b0022000b5
:1026a0000200e000010032000080e8008c007800a9
:1026b0000e0037000200e000100032003c009000e5
:1026c0000068a300070032000d017800010220001d
:1026d0000c007800a5fb07000000e00006003a00af
:1026e000060037008c00780000022000ac000700d4
:1026f000e10f4000010032008d06e8002fb2970084
:102700008400e900c20add00b5a79f00c308dd0010
:1027100040ba2000008040000e037800a6a79f006a
:1027200000077800e8af9f00f9af9f008ab79f00cd
:102730009bb79f0073003700afb097008100e9009e
:10274000a1b79f00000820002fa99700800f51001b
:1027500047003200000c2000800f510054003a0066
:10276000bfb197000300e00019003d003e04be0029
:102770002e05be000802be000a03be006fa8970027
:10278000ffa897000fb197009fb1970014040700ae
:10279000e07f9f000000fb00cf80de006109b900f0
:1027a0000802be000a03be00760407006faa970065
:1027b000ffaa97000fb397009fb397000002520043
:1027c00081825a0002035b0083835b00170037009d
:1027d000bfb297000548a300190032006faa970006
:1027e000ffaa97003e04be002e05be000801be00f1
:1027f0000400be00f4b79f0085bf9f00c0f807002b
:10280000e07f9f000000fb00cf80de000801be00db
:10281000540307007fb297008fba97000000520060
:1028200081805a000002be006033b800e4af9f0010
:10283000f5af9f0086b79f0097b79f00080037004d
:102840001e017800efaa9700110009008282d800cb
:10285000a2002000110009000280d800e17f9f0043
:102860006f7b97000643b000e67f9f0010003700a3
:102870006fa89700ffa897000fb197009fb197002e
:10288000bfa397008703e900050033008301d1004f
:102890000281d3008180d3000080d300f9ff37008c
:1028a0006f00600031b9200061407800e07f9f0038
:1028b000bc0090006f7997000200fb000168a30044
:1028c000070032000d017800800078000c007800cd
:1028d00026fb07000000e00005003a000500370075
:1028e0008c0078002e000700e10f4000010032004c
:1028f0008d06e800bfa19700e4815100b3a79f00b7
:10290000680757002fb297000400e0008aff3a00e2
:102910002fa79700bfb297000538a300140032001c
:102920000e00e000120034003c0090000068a3009c
:10293000070032000d017800010220000c00780031
:102940000afb07000000e00006003a00060037001e
:102950008c0078000002200011000700e10f400009
:10296000010032008d06e8000e07e900eeff3a0094
:102970004fa3970016407800e07f9f000004e0001e
:1029800013fb3a000d0078004f0778004f06be0099
:102990004f05be004f04be006f03b10000000600eb
:1029a000889fbe0001047800b80090008084eb008e
:1029b0000118a3003a003200180190000198a3000a
:1029c00002003a000200e00035003a000190a00049
:1029d0003104980080047800f90fb2000200e00092
:1029e00002003a0028009000000c7800ea8f5400a2
:1029f00005003a000178a30003003a00880078003f
:102a0000d0002000e6ff070018009000d8009000da
:102a1000810f50000b0032000000e8001004980005
:102a20001800780009487800000ce80011c0b300d5
:102a3000a0c6200001487800ea8f540018003a0030
:102a40000500370088007800094078004a00070038
:102a50008004780012003700380090000088a3003e
:102a60000f00320018019000a8009000480090006c
:102a700063f6070098009000810f500004003200b8
:102a8000380090000003b300300498008084eb000d
:102a90000000eb001004980028009000000c780063
:102aa000090078004f04be0000000600889fbe00a9
:102ab0008a1f780001057800800478000004eb008c
:102ac000010037000804e800b94078000104e00084
:102ad000050032008100fb000a00780019000700a1
:102ae0000000e000f7ff3200080078004f05780092
:102af0004f04be0000000600889fbe008a1f7800b9
:102b000001057800800478000004eb000100370024
:102b10000804e800b94078000104e0000500320034
:102b20008100fb000a007800060007000000e000ba
:102b3000f7ff3a00080078004f0578004f04be0008
:102b4000000006000001eb006103b8006112b8004c
:102b50008601420066427a00814f52000400320032
:102b60000201e8000404e000f7ff3a008001eb00f6
:102b700003007800000006000200fa00889fbe00f3
:102b8000a0ff9f0001047800380090000068a300b7
:102b900033003a00e200600005003a000003b30091
:102ba00030049800110498000080eb002e003700dc
:102bb000d80490000900e00006003a00120020004e
:102bc000e6805700480090000df6070019049800b1
:102bd00023003700a80090000100e00008003a0040
:102be000d1c6200021049800010c780021002000ab
:102bf00051049800110498000030a000300498009f
:102c000018019000a800900048009000fcf5070013
:102c1000280090008080eb0011049800aff8970026
:102c200001487800000ce8002ff89700ea4f5000a8
:102c30000b003a00380090000088a3000800320022
:102c400018019000a800900048009000ecf50700e3
:102c50000000eb0010049800a8009000010c780020
:102c6000aff897000100fb004f04be000080fa009f
:102c70000000060000c0da00000006002800fa008c
:102c8000889fbe008a9fbe008c9fbe00070678000a
:102c9000878669000c003b000304780087047800f5
:102ca00008f0a10009f0a100840f5000858f5800a2
:102cb000860f5900890f5c00030033000cf0a2005e
:102cc00001003a000cf0a100fe0007006400e100e2
:102cd0005f003200780147006408e10061003200c3
:102ce0006c014700748557003200be001201be001f
:102cf0003a04be001a05be001e039000be0a9000f2
:102d00008503530006003d000004fd008104fd0022
:102d10000205fd008305fd008703ea000503780036
:102d20000df8a3000400320060041400e0841c00cd
:102d300060051d00e0851d006022b8007d032000b5
:102d40000d38e1008006eb000b0039004433dd0054
:102d5000f300b200830173003900370084827200ef
:102d60000d027800e10664008b85d1000a85d3004e
:102d70008984d3000884d3008703e900f7ff3b0070
:102d800008004000898048000a0149008b81490001
:102d900004003b0060001000e08018006001190092
:102da000e08119000358a300090032008d827200ef
:102db00084827200610260008301d1000281d3002d
:102dc0008180d3000080d3000603e8001b00370099
:102dd0000348a30017003a000600e0001700340083
:102de0000603e9000d00a3000000480081804800b0
:102df00002014900838149000348a3000f003a0003
:102e00000600e000090034000603e900000040006d
:102e100081804800020149008381490001003a0095
:102e20000003eb000348a300f5ff32006022b80066
:102e3000020037008482720061826600750007001c
:102e400003f0a1000cf0a70003f0a000b1003700d0
:102e5000640147006408e10002003a000df8a30095
:102e6000a9003a003200be001201be00a9003700de
:102e70008f1fd100ec0207008f87e9000000e000ff
:102e800000000600809feb00e70207008f87e90043
:102e90000000e000000006002800fa00889fbe0045
:102ea0008a9fbe008c9fbe0003866b0085000700d2
:102eb0006400e100440032006408e1004a0032008e
:102ec0006100e100460032006108e1004900320083
:102ed000ec0647006000b8003d02be003d03be00a6
:102ee000f48657006011b8003d04be003d05be00e9
:102ef0007d0320000b0037000000a0008d06e900d4
:102f0000130032000402420085824a0006034b008f
:102f100087834b0000004000818048000201490087
:102f2000838149000802520089825a000a035b002b
:102f30008b835b00f0ff3b000802420089824a005d
:102f40000a034b008b834b008d06e900edff3a002e
:102f50008482720086827200f707b2008782720054
:102f600001003200150020001e0490003e0b90006e
:102f700006035400e63fb0000368a30007003200d8
:102f80000000a7000500a0008301d1000281d3004a
:102f90008180d3000080d3000603e8008301d100c4
:102fa0000281d3008180d3000080d3000002eb00b7
:102fb0000482d2001700070003f0a1000cf0a70064
:102fc00003f0a00053003700640247006408e100ea
:102fd0004d0032003400be003401be00f6ff370061
:102fe0006108e100480032006011b8006000b800dc
:102ff000f1ff370003ff270002002000fbff37002e
:10300000801feb00880207008f87e9000000e000c6
:10301000000006001800200057002000080453009c
:103020000d003d000600200097fc2f000740e10046
:103030001e00340084827200610260008301d100ae
:103040000281d3008180d3000080d3000804e8000f
:10305000f8ff3a0047002000610460000504740096
:10306000040464000d00320061004000e08048006c
:1030700060014900e081490003b8a5000700320063
:103080000603e8006538e10004003a008301d1003e
:103090000281d3008180d3000080d300f87f20001c
:1030a0000830e10003003500080378006000b80034
:1030b0006011b8004433dd00f300b20083017300f7
:1030c00000000600680447000294be000094be00a1
:1030d000fc0447008694be008494be00090078007a
:1030e0009a0207000800780098020700990078000b
:1030f000814f70000b003b000800be007302070008
:103100004f00b10003003700f3ff2700f2ff2f004c
:103110006110b9004f06be004f05be004f04be004f
:103120000080fa00000006008103780013f6070013
:103130000001be006000b8000478a30013003a004c
:103140006220e10015003e000d0039008301d1002e
:103150000281d3008180d3008301d1000281d3009a
:103160008180d3008301d1000281d3008180d3000c
:103170000538b000c42add00f300b200838172007c
:1031800007f0a70003f0a00000000600f3ff2700ef
:10319000f2ff2f006110b900fbff370003ff27008b
:1031a000f7ff37001400fa00889fbe008a9fbe0018
:1031b0008c9fbe000004be000205be0068004700f0
:1031c0000a90be000890be00600207000070a700d1
:1031d0000bf0a1000bf8a30020003a009e0990001c
:1031e0000e099000fe0090006e0090009e0290007c
:1031f0003443200084825200c6ff32000a003c00a3
:10320000b4fc2f000428e100140034008301d10035
:103210000281d3008180d3000080d3008502e800c2
:10322000faff3a00bbff3700b40020000428e10099
:1032300007003c0000004000818048000201490076
:10324000838149008502e900faff3a00b1ff3700a7
:103250000300280002002000010037006011b800c0
:103260006000b800abff3700889fbe00008270008e
:1032700004027100048271002400320036432000f1
:10328000c50020008383cf000a0039000541b1004a
:103290008283cf00070039000541b1008183cf0050
:1032a000040039000541b1008083cf0001003900de
:1032b0000541b10085c353006022b80012003200fe
:1032c0000a003b0084827200610260008301d10029
:1032d0000281d3008180d3000080d3000603e80080
:1032e0008743e800f7ff3a0007003700000040007e
:1032f0008180480002014900838149000603e900fa
:103300008743e900f9ff3a0042ff07004f04be007f
:10331000000006001400fa00889fbe008a9fbe00cd
:103320008c9fbe00040678000004be000205be00ab
:10333000680047000a90be000890be000302070024
:103340006200e1000800be000a01be000400200087
:103350000b003a001e029000e43fb1006e009000a6
:10336000fe0090000e0990009e099000f300b2004c
:1033700005fe2300858171000bf0a70003f0a0007b
:10338000040e780063ff37002800fa00889fbe0013
:103390008a9fbe008c9fbe0003866b0049ff07001a
:1033a0000028a30064003a000128a30067003a0047
:1033b0000008a30062003a000108a30065003a007b
:1033c0001e009000be08900081064000ed3fb10055
:1033d000f4805700ee019000111ab8008e09900099
:1033e000311bb8009e099000311cb800511db80077
:1033f000f485570046000700fe0190003a000700e0
:103400008b85e8003e0007008e0990004000070011
:10341000ee019000340007008b85e80038000700bb
:103420008e099000400007009e0990001b18b8000c
:10343000890440000a854800fe019000340007001e
:103440008b85e80038000700ee019000300007008f
:103450008e0990001b18b800890440000a854800b6
:103460000a98a30008003a000402420085824a003c
:1034700006034b0087834b0008044c0089844c00f2
:103480000a054d008d06e9008482720085027300f2
:103490004c3add0085027200010032001500200068
:1034a000443ade001400b2004538de00cb45dd00b2
:1034b0000b007000c540de00cb4ddd008b8070003e
:1034c0004549de00cb55dd000b017100c551de0022
:1034d0000d037800cffe070003f0a1000cf0a70059
:1034e00003f0a0000bff37001b18b8008502400056
:1034f00006834800e0834b0060044c00070037005f
:103500001b18b8000603400087834800faff370005
:103510001b18b8008703400008844800e0844c0072
:1035200060054d00000006001b18b80008044000ac
:1035300089844800faff37000108a300f2fe3a0030
:103540005800be005801be00e3ff37000008a3008a
:10355000edfe3a0009047800f9ff370007f0a200f9
:10356000c6fd3700020ab900001bb9000200b8000e
:10357000810042008100430000000600889fbe00d9
:103580008a9fbe0030044200b0844a0030054b00e0
:1035900090854b006000b1000898be000a90be0004
:1035a0000440e10005c8e10006d0e10007d8e100d1
:1035b00002003100680040001008e8004f05be001e
:1035c0004f04be0000000600889fbe008a9fbe0018
:1035d0003004be002005be000418540005985c00ad
:1035e00006185d0007985d00110020000440e1000e
:1035f00005c8e10006d0e10007d8e100010039006c
:103600008000eb00108810004f05be004f04be0084
:10361000000006001200fa00889fbe008a9fbe00cc
:103620008c9fbe00e0b79f00f1b79f0082bf9f0054
:1036300093bf9f000605be000404be000000eb001f
:10364000d0b79f00c0b79f00b0b79f00a0b79f0042
:1036500090b79f000006eb005fb19700cfb09700d6
:10366000820141003fb097000200e00004003d00ed
:10367000370007007e805700c0ff070003003700b7
:10368000330007007e805700cfff0700dfb69700aa
:103690000d00e0000c0035006fb29700ffb29700fc
:1036a0000fbb97009fbb9700100020000100200077
:1036b0006011b80000027200818272000203730080
:1036c000838373001b0007000c06e8000104200040
:1036d000810f5600e0ff3a000d00e00004003d00bd
:1036e0000802be000a03be007e805700a3ff070049
:1036f0005fa897000000e00005003a001fb29700a5
:10370000afb297003fb39700cfb39700090007000f
:103710006fb09700ffb097000fb997009fb997005f
:103720004f06be004f05be004f04be000080fa00e9
:10373000000006000100070000000600a4b79f007b
:10374000b5b79f00c6b79f00d7b79f00000006001f
:103750004f09de0082817100b3b79f004f01de0088
:103760008180400082807000a1b79f008fb09700d9
:103770004f09de00000040000200700090b79f007b
:103780007fa897004f01de0081804000828070009a
:1037900081b79f000d0007004f3ade000000400097
:1037a00004007000f0af9f00080007000402420010
:1037b00085824a0006034b0087834b00dfff07002a
:1037c0000802be000a03be00000006002fb29700e8
:1037d000bfb297004fb39700dfb397000000060019
:1037e000881f780018002000881f780089ff0700d4
:1037f0008f87e9004f04780000000600801feb006f
:1038000084ff07008f87e90000000600889fbe0044
:103810008a9fbe00e00f5000e08f5800e00f590073
:10382000e08f59000c003d006044b8006055b800be
:103830000000540081805c0002015d0083815d0016
:10384000180020001500070008003d0018000700c0
:103850000004eb00050037000004eb000f00070038
:1038600002003d001200070018002000dcff0700e6
:103870000800e000060032006022b8006033b800a3
:103880000000520081805a0002015b0083815b00ce
:103890004f05be004f04be0000000600e00f5200be
:1038a000e08f5a00e00f5b00e08f5b000000060035
:1038b0006044b8006055b8000402540085825c0082
:1038c00006035d0087835d0000000600889fbe0040
:1038d0008a9fbe008c1f7800e00f5000e08f5800d8
:1038e000e00f5900e08f59000d003d006044b80022
:1038f0006055b8000000540081805c0002015d004a
:1039000083815d001c0020000820e10009a8e1007f
:103910000ab0e1000bb8e1000d003d0008003700df
:103920000006eb00e00f5200e08f5a00e00f5b0052
:10393000e08f5b0006003d006044b8006055b800b1
:103940000402540085825c0006035d0087835d00ed
:10395000aaff07000c00e000060032006022b80059
:103960006033b8000000520081805a0002015b0001
:1039700083815b004f0678004f05be004f04be00f8
:1039800000000600889fbe008a9fbe008c1f780042
:103990000006eb00e00f5000e08f5800e00f5900e8
:1039a000e08f590007003d006044b8006055b80042
:1039b0000000540081805c0002015d0083815d0095
:1039c0001c002000e00f5200e08f5a00e00f5b0067
:1039d000e08f5b0007003d006044b8006055b80010
:1039e0000402540085825c0006035d0087835d004d
:1039f0000c00a2007c0007000c00e0000600320072
:103a00006022b8006033b8000000520081805a0084
:103a100002015b0083815b004f0678004f05be000a
:103a20004f04be0000000600889fbe008a9fbe00b3
:103a30008c9fbe000404be000605be00809fbe0031
:103a4000829fbe002f000700040678000800be0019
:103a50000a01be002b000700840678004f03be0059
:103a60004f02be008d4f76007fb0970013003300e9
:103a7000f0ff2f008b8f6b0006003b000d066600e9
:103a80000c00a7000a00370007f0a6001000200075
:103a90000a003700880f5200898f5a008a0f5b0096
:103aa0008b8f5b00030039001000200001003e00f6
:103ab0000000200007f0a7000000ea004f06be004b
:103ac0004f05be004f04be0000000600e482400027
:103ad0001078a30007003200640240001178a300b0
:103ae0003400be001401be00040032000330a70001
:103af000000006003500be001501be000330a00026
:103b00000000060005ff2700058261000700320063
:103b10000428e1000100320024000500060007002f
:103b200001003a00440005000408050002000700f7
:103b3000f9ff3a00140005006f82610081027000f5
:103b40008502710085027200000006008000780086
:103b50005002be005003be004439de00f700b20040
:103b6000f37f200003016100090032000218e10028
:103b700016003a008501720083017300838173008f
:103b80000008200015003a00400020001300370014
:103b900085017200830173008381730005003a0080
:103ba00004a8be0006a8be00100020000b003700cd
:103bb0000201e9000402420085824a0006034b002c
:103bc00087834b000748a300f9ff32000740a0009d
:103bd00004a8be0006a8be002000200080009800b7
:103be0009200980000000600889fbe008a9fbe00d9
:103bf0008c9fbe000404b8000506b8008904460086
:103c000060854e000606b8000a054600e0854e00b5
:103c10000706b8008b054600040eb800890446006c
:103c20000a854e00e0854d00050eb8000a054600e5
:103c30008b854e00060eb8008b0546000416b800b2
:103c40000a0546008b854e000516b8008b05460018
:103c5000041eb8008b0546000800be000a01be0025
:103c60004f06be004f05be004f04be000000060018
:020000040000fa
:103c7000466f0000726d0000617400003a7300002e
:103c800065740000202800005b4e0000616d00009c
:103c9000655d0000205b0000766100006c7500002f
:103ca000655d0000292e00002e0d0000005b000065
:103cb0004e6100006d6500005d3d00007b0000006e
:103cc0003f0000006765000074000000736500009d
:103cd000740000007465000073740000006400004c
:103ce000740000006d6f000064650000006d00004e
:103cf000630000006d630000700000006576000046
:103d00000065000076700000007000006572000021
:103d1000696f000064000000252e00002a66000084
:103d2000004600006f7200006d610000743a0000f0
:103d30002067000065740000205b00004e610000f9
:103d40006d6500005d2e00002e0d00005b4e000032
:103d5000616d0000655d0000203d00007b000000fb
:103d600049640000783a0000005800003a00000062
:103d7000593a0000007000006f720000742e0000bd
:103d80006964000078280000002900003a00000063
:103d900061640000647200003a0000006164000089
:103da000647200002e6f00006673000065740000ee
:103db0003a000000707700006d2e00007065000072
:103dc000726900006f6400003a0000007077000024
:103dd0006d2e00006d610000783a0000302e00006a
:103de00000700000776d00002e6d0000696e00000d
:103df0003a3000002e000000707700006d2e0000a9
:103e0000647400003a000000703a0000006900008d
:103e10003a000000643a0000006d0000632e0000cc
:103e200070650000726900006f6400003a300000a5
:103e30007800000028000000757300003f29000092
:103e4000006500006e6300006f6400006572000092
:103e50002e73000070650000656400003a000000e9
:103e60005b700000756c0000736500002f3100006e
:103e7000303000006d7300005d0000006e6f0000c8
:103e800020730000706900006e000000656e000085
:103e9000636f000064650000725f000073700000d3
:103ea000696e00005f6400006972000065630000d5
:103eb000746900006f6e00003a0000002b000000e3
:103ec0002d000000706f0000727400002e6500006d
:103ed0006e6300006f6400006572000000700000f7
:103ee0006f720000742e000069640000780000000a
:103ef00061640000647200000061000064640000fe
:103f0000722e00006f6600007365000074000000f0
:103f1000707700006d2e00006d61000078000000d9
:103f2000707700006d2e00006d6900006e000000cb
:103f3000707700006d2e000070650000726900004f
:103f40006f64000000700000776d00002e640000b8
:103f500074000000656e0000636f0000646500007f
:103f6000722e0000737000006565000064000000a0
:103f7000656e0000636f000064650000722e000033
:103f800064690000720000006d6300002e70000084
:103f900065720000696f000064000000700000009e
:103fa0006900000064000000686500006c7000009b
:103fb0000000000063680000616e0000676500009b
:103fc000642000006465000062610000672000005a
:103fd0006d6f0000646500000072000065730000f2
:103fe00065740000206d00006f6400006500000033
:103ff00045720000726f0000723a0000466f0000c8
:10400000756e0000642000006f750000742e0000c3
:1040100000450000727200006f7200003a49000013
:104020006e700000757400002069000073200000ad
:104030006261000064000000524500003a00000088
:10404000736500006c00000072650000626f000084
:104050006f7400000072000065630000616c000076
:104060006c00000065630000686f0000006f0000d6
:1040700070740000696f00006e000000726500003f
:104080007065000061740000002000003a0000002c
:10409000686500006c6c00006f200000776f000006
:1040a000726c000064200000696e00002065000052
:1040b00065700000726f00006d2e00000a000000a5
:0840c000ff7f0000ff7f0000fc
:020000040000fa
:1040c80011009000dbf30700720907000000eb0005
:1040d800000006000800fa0011009000d5f3070060
:1040e800110020000000e00001003c008000eb000f
:1040f8004f00de00008050000080b900a2002000c0
:10410800800078006880570003f4070011c0b300ee
:1041180068805700590507000000eb000080fa008e
:10412800000006001000fa00e4805700688057007d
:10413800b40807001f00370047090700a200200045
:104148008000780070805700f3f3070011c0b300b7
:104158007080570049050700320880004008800039
:104168008000eb00c000dd000000200000004100de
:10417800e0804800c0bf9f00d1bf9f006fb9970083
:10418800ffb99700820f5000838f58000300310059
:10419800910407000000e000efff32000621ef0065
:1041a8000a21ef000821ef00e480570068805700db
:1041b80094080700880407000000e000deff3200d2
:1041c8000000eb000080fa00000006000800fa007a
:1041d800889fbe008a9fbe00360907000004be0003
:1041e800aa0020001bc0b300180037001a090700f6
:1041f8000a0178008000780070805700c6f3070035
:104208008b407800708057001c050700320880003a
:10421800400880008000eb00c000dd0000002000a6
:1042280000004100e0804800800f5400818f5c004e
:1042380003003600680407000000e000f3ff3200c6
:104248000621ef000a21ef000821ef0062040700b1
:104258000000e000e5ff32000000eb004f05be0063
:104268004f04be000080fa0000000600881f780096
:104278000104780010c0b300ea0807001800900095
:104288006cf30700cf80de009d0207000000eb0002
:104298004f04780000000600881f780001047800a9
:1042a8000040eb00df0807001800900061f30700ea
:1042b800000478000080eb00010807006140b900a5
:1042c8008f0207000000eb004f0478000000060092
:1042d8001100900057f30700090407000000eb00e5
:1042e80000000600889fbe00800478000104780062
:1042f8000040eb00cb0807000900e00003003a008b
:1043080010c0b300df0707001f0037000040eb00b4
:10431800dc0707001800900044f307000004be0003
:10432800710207000000eb00e50707006011b80004
:104338000800be0026f107000000e00009003d006b
:1043480002002000037024000800be00b6f1070038
:104358000200200003f023007df0070020f1070091
:104368000800370002e02f00f36f24000800be00a9
:10437800adf107000200200003f0230075f00700ec
:1043880017f107008f0707000000eb004f04be007d
:1043980000000600889fbe008a9fbe008c9fbe005a
:1043a8008e1f78000006e900010578005a007800a1
:1043b8000700330041fd290065f307000000e00015
:1043c80003003200e10f560016003c00660037007b
:1043d80080e329006a04070070e5290068040700e3
:1043e8002a9d200018002000cbc2b300020037002d
:1043f8000804e8000a85e800e10f54006100320073
:104408000b407800510407001a0078005c0407008c
:10441800e60f5400f6ff3600d0c7b3004b04070080
:1044280051003700def7290008f02f00f977240043
:104438009a0578009a0690008e0078000b007800a4
:1044480043f307000000e00004003a000d00780084
:10445800f8f20700505188003e00370081f8290023
:104468000b0078003af307000000e00007003a006c
:104478000d007800edf207000801be006af10700a0
:10448800f8f00700650707003200370001f9290036
:104498000b0078002ef307000000e00007003a0048
:1044a8000d007800e1f207000801be005ef1070088
:1044b800ecf00700600707002600370081f92900a3
:1044c8000b00780022f307000000e00004003a0027
:1044d8000d007800d7f20700440707001d003700d9
:1044e800e1fc29000b00780019f307000000e00048
:1044f80004003a000d007800ccf2070062030700c0
:104508001400370001fd29000b00780010f30700a4
:104518000000e00004003a000d007800c3f2070034
:104528005c0307000b00370021fd29000b00780011
:1045380007f307000000e00004003a000d007800cf
:10454800baf20700560307000200370000e6290008
:104558000b0407000c86e900e10f56000200340046
:1045680064054500b2ff3700120407000000eb00a5
:104578004f0778004f06be004f05be004f04be002f
:10458800000006001a007800fd03070098ff3700b6
:104598000001eb0021e62900003722002c05070066
:1045a8000001eb0061e62900e01c22002805070055
:1045b8000001eb00a1e62900e0062200240507001f
:1045c8000001eb00f1e62900601722002005070032
:1045d8000001eb0021e72900c01622001c05070096
:1045e8000001eb0071e729000015220018050700fb
:1045f8000001eb00a1e72900a01322001405070021
:104608000001eb00e1e72900a00e220010050700d9
:104618000001eb0011e82900600922000c050700e1
:104628000001eb0051e829004006220008050700b8
:1046380000000600889fbe000004be0002002000a3
:10464800e32b2c0062f007000000e00007003500b3
:1046580002002000e32b24000800be005ef00700e3
:104668000000e00004003c000500370008002000be
:10467800e92b2c000200370008002000e92b240059
:1046880002002000e32b24000800be00b0ef070062
:104698003233230033ff2300e3f007000200200039
:1046a800e333240008f007003233230033f72300f4
:1046b800a8ef07004f04be0000000600829fbe005e
:1046c800811f7800c1e82900811f7800d0f2070017
:1046d800e8875700000006002800fa00889fbe00ff
:1046e8008a9fbe00800578000105780041fd2900f9
:1046f8005a00780096f207000000e0000600320039
:104708008b05e900040033000040eb004240a9009b
:1047180017003c00680137008040eb0010e92900d1
:10472800d6030700699b2000180020000045eb0015
:10473800cbc2b300020037000804e8008984e8000f
:10474800e10f5400640132000b4078007f0307003a
:104758008a40780019007800c8030700ed0f54005c
:10476800f5ff3600d0c7b300b50307005201370084
:104778001a0478000004e00002003200c0c2b3004e
:104788007203070021f629000800780070f207007c
:104798000000e00020003a0000eb29007803070041
:1047a800770707008040780000c3b3000104e000e9
:1047b800010032000040e80064030700c0c2b300f3
:1047c8006203070050eb29006d030700700707001c
:1047d8008040780000c3b3000104e000010032000b
:1047e8000040e80059030700c0c2b30057030700a0
:1047f80080eb290062030700690707008040780002
:1048080000c3b3000104e000010032000040e800ea
:104818004e03070021013700f1f62900080078004f
:104828004bf207000000e00016003a005a0078003a
:1048380000f2070000047800080078003707070036
:10484800020120008000780000fd2f000f004000ca
:1048580031f20700b0eb29004903070001c3b30098
:10486800014044003903070050ec290044030700c5
:1048780000fd2f000f004000410307008b05e900f1
:104888000601370081f729000800780030f2070098
:104898000000e0000c003a0080ec29003803070013
:1048a8008b040700a20020008000780000fd2f0084
:1048b8000f00400018f2070000fd2f000f00400015
:1048c8002f030700f5003700d1f72900080078000a
:1048d8001ff207000000e0000b003a00e0ec29009e
:1048e80027030700a20020005151800000fd2f007f
:1048f8000f00400008f2070000fd2f000f004000e5
:104908001f030700e500370081f929000800780037
:104918000ff207000000e00015003a00a0ed2900a2
:10492800170307003b060700a80020001100090034
:104938000880d8008000fd000801780000fd2f00e5
:104948000f004000f4f1070000fd2f000f004000a9
:104958000b0307002f060700110009000880d80084
:1049680002c3b30002c04000f8020700cb003700c2
:1049780081f8290008007800f5f107000000e00040
:1049880010003a002a0607000004780060ee2900ab
:10499800fb02070012042000110009000284d8005d
:1049a8008000fd00a200200000fd2f000f00400045
:1049b800d9f1070000fd2f000f004000f0020700aa
:1049c800b600370001f9290008007800e0f1070077
:1049d8000000e00010003a001c0607000004780000
:1049e80010ef2900e6020700120420001100090058
:1049f8000284d8008000fd00a200200000fd2f00e6
:104a08000f004000c4f1070000fd2f000f00400018
:104a1800db020700a100370031fa290008007800fe
:104a2800cbf107000000e00010003a00090607007b
:104a380000047800c0ef2900d1020700120420000a
:104a4800110009000284d8008000fd00a2002000a7
:104a580000fd2f000f004000aff1070000fd2f0000
:104a68000f004000c60207008c003700e1fc290057
:104a780008007800b6f107000000e0000e003a00d8
:104a880000c7b300090207000004be0040f0290077
:104a9800bb020700510020000801be0000fd2f00e6
:104aa8000f00400005ff070000fd2f000f00400029
:104ab800b30207007900370001fd290008007800db
:104ac800a3f107000000e0000e003a0090c6b30012
:104ad800f60107000004be0070f02900a8020700d4
:104ae800510020000801be0000fd2f000f0040000b
:104af800f2fe070000fd2f000f004000a002070093
:104b08006600370021fd29000800780090f10700b1
:104b18000000e0000e003a0040c6b300e3010700c1
:104b28000004be00a0f029009502070051002000f3
:104b38000801be0000fd2f000f004000dffe070047
:104b480000fd2f000f0040008d02070053003700c2
:104b580041fc2900080078007df107000000e00012
:104b68001d003a0010c0b300ae060700ec805700e5
:104b780070805700230607002fbc9700d0f029004b
:104b88007f020700a20020008800780000fd2f00a7
:104b98000f00400060f1070000fd2f000f004000eb
:104ba80077020700a0f1290075020700a200200083
:104bb8008fb8970000fd2f000f00400056f1070046
:104bc80000fd2f000f0040006d020700c0f1290012
:104bd8006b02070031003700a1fa290008007800ad
:104be8005bf107000000e0000f003a00b205070083
:104bf8000004780010f2290061020700a2002000da
:104c08008800780000fd2f000f00400042f10700e7
:104c180000fd2f000f0040005902070000f3290093
:104c2800570207001d00370081fb290008007800a3
:104c380047f107000000e00016003a009e05070053
:104c480011098000cb08de00e1c060000000e00030
:104c580003003a00e0f32900490207000f0037007b
:104c68000144780060f4290045020700e14f540030
:104c780003003a00e0f52900410207000700370069
:104c88000804e00005003a0000f629003c0207008d
:104c98000200370000e62900390207004502070034
:104ca8008b05e9004240a900030034000a85e800aa
:104cb80010c0b300aefe3700d0c0b3002302070017
:104cc8003c0207000000eb004f05be004f04be0089
:104cd8000080fa00000006008a4078001900780079
:104ce8006602070094fe3700e029ef00e229ef0092
:104cf800e429ef00e629ef00ec29ef0000000600a8
:104d0800889fbe0012002000e00f5000e08f58007e
:104d180001003c000001eb00cf09de000301510057
:104d2800cf91de00044f8000154f8000800f5200a5
:104d3800818f5a000d003200e429ef00e629ef00c8
:104d4800444f800003a4b900564f800002b3b90055
:104d5800080343000222b80085024300e00f520016
:104d6800e08f5a0001003d00ec29ef00004f880059
:104d7800114f8800424f8800534f88004f04be00ef
:104d880000000600889fbe008a9fbe008c9fbe0060
:104d98000204be000405be00008640001dc0b3002a
:104da8006011b8000800be0089ee07000000e000ae
:104db800010035008046eb000d04e0000a003200d7
:104dc80002002000037024000800be0016ef070050
:104dd8000200200003f02300dded070080ee07004d
:104de800800078000900370002e02f00f36f2400ec
:104df8000800be000cef07000200200003f02300ab
:104e0800d4ed070076ee0700800078008c8f500004
:104e18001a003d006011b8000a00be006cee0700e1
:104e28000000e0000a003d0002002000037024009a
:104e38000a00be00fcee07000200200003f0230079
:104e4800c3ed070066ee0700800078000900370010
:104e580002e02f00f36f24000a00be00f2ee070004
:104e68000200200003f02300baed07005cee070003
:104e7800800078008c8f500043003c000d04e00057
:104e88000900320002002000037024000800be0060
:104e9800e5ee07000200200003f02300aced070058
:104ea8004fee07000800370002e02f00f36f2400e0
:104eb8000800be00dcee07000200200003f023001b
:104ec800a4ed070046ee07008c0f500016003500d1
:104ed8000d04e0000a0032000200200003702400e4
:104ee8000800be00d0ee07000200200003f02300f7
:104ef80097ed07003aee0700000678002200370019
:104f080002e02f00f36f24000800be00c6ee070081
:104f18000200200003f023008eed070030ee0700aa
:104f280000067800180037006011b8000a00be00bb
:104f380027ee07000000e0000a003d000200200004
:104f4800037024000a00be00b7ee0700020020002c
:104f580003f023007eed070021ee0700000678002d
:104f68000900370002e02f00f36f24000a00be009a
:104f7800adee07000200200003f0230075ed0700e6
:104f880017ee0700000678000c0078004f06be00f8
:104f98004f05be004f04be0000000600889fbe00fb
:104fa8008a9fbe00084f8000194f8000aa0507009d
:104fb800cf80de000000540081805c0044ee0700d2
:104fc8000004be00704f8800814f8800004f8000a9
:104fd800114f8000e00f5000e08f58000d003200a4
:104fe8000800be00feed07008000780001f0a70071
:104ff8008100ea00e18f5000060032000801be007f
:10500800204f8000314f800052ed0700204f88006c
:10501800314f8800784f8000894f8000924f800080
:10502800a34f80000800be0049ed07000005be0040
:10503800b04f8800c14f8800825080009350800094
:105048000800be0078ee07000004be004250800051
:1050580053508000204f8000314f800072ee0700cf
:105068000001be000800be003aed07000004be00c3
:1050780062508000735080000a00be006aee07008c
:105088000001be000800be0032ed07000004be00ab
:105098003233230033f72b00cfed07000000e00088
:1050a8001d0034003233230033f723000800be000c
:1050b800c7ed07000000e00017003d006011b800d0
:1050c8000800be00c2ed07000000e00009003d0036
:1050d80002002000037024000800be0052ee070002
:1050e8000200200003f0230019ed0700bced0700c3
:1050f8001a00370002e02f00f36f24000800be00fa
:1051080049ee07000200200003f0230011ed07001c
:10511800b3ed0700110037003233230033f72b00bb
:105128000800be00aaed070080007800606628002d
:105138000100e000090035003233230033f7230073
:105148000800be00a4ed07008000780090992700b1
:105158000100e00001003c000000eb00024f80006d
:10516800134f8000e00f5100e08f590009003a000a
:105178003433230035f723003233230033f72b0071
:1051880080007800604f8000fefe0700604f8800b6
:1051980017003700e00f5100e08f59000900340074
:1051a8003433230035f72300a299290093e1230023
:1051b80080007800604f8000f2fe0700604f880092
:1051c8000b003700e00f5100e08f590008003d0048
:1051d800a499290095e12b003233230033f72b00e3
:1051e80080007800604f8000e6fe0700604f88006e
:1051f800604f8000f3030700704f8000814f8000ec
:10520800904f8800a14f88004f05be004f04be0094
:1052180000000600889fbe008a9fbe000004be00f2
:105228006fed07006105b9000a00be00a8ed070090
:105238000001be000800be00c5ec07000001be006a
:105248000000200001f823001fed07000001be0048
:1052580000002000017824001bed070081ed070005
:10526800c055dd000a0020006159b800c011dd00fa
:105278000200200002004000e08049004f05be0007
:105288004f04be000000060080508800915088003e
:1052980000000600405088005150880000000600b9
:1052a80060508800715088000000060091c6b30065
:1052b800814f50000a003200e7c04000814f500083
:1052c80004003200ecc05000814f50000a003a0040
:1052d800060037008050800091508000070037009a
:1052e800405080005150800004003700605080001a
:1052f80071508000010037006000b800000006000f
:10530800e20f50000a003200e30f50000b00320099
:10531800e10f50000c003a006000b80040508800cf
:105328005150880060508800715088000d00370087
:105338000c2aef000e2aef000a003700082aef00b7
:105348000a2aef00070037006000b8008050880084
:105358009150880040508800515088006050880063
:105368007150880000000600004028007010880076
:105378000008b00060108800a0002000a01088007d
:105388008520a9008540a900c00480000040a00035
:105398000050a1000060a000c0048800f0cf2f00da
:1053a8009800b60000a0a000c00488008d20a800c6
:1053b8008d40a8002829ef006e29ef006e09f8003b
:1053c8002a09f9002629ef00e428ef00e408f8008c
:1053d8006c09f90000000600404980000000060042
:1053e80041498000724b80008081eb000100e000a1
:1053f80011003200c3922000e3417900f403200039
:1054080080cf510009003a00060037000201e80089
:1054180004016100c3922000e341790080cf51006c
:1054280002003a0082017800030037008100e90099
:10543800f6ff3a008081eb000300780000000600c8
:10544800714b800001004000f003b200c1922000bf
:105458006140780000000600714b80008100400028
:10546800f103b200714b88002829b500000006003e
:105478002829ef0000000600d7ff07008000780009
:105488000040eb000100e0000c003200704b80008f
:10549800c1922000614078008000eb00f2032000f8
:1054a800734b8000828f510002003200714b8000e4
:1054b8008100e800714b88002829ed0000000600f3
:1054c800889fbe008a9fbe0000057800010478000e
:1054d8000000eb000a00e000100032000800e000c5
:1054e8000e0032008a04780089057800e2ff070080
:1054f800ed4f500004003200805c78000804e90099
:10550800f9ff3a0003003700804ceb000a007800ee
:1055180002003700804deb000a0078004f05be00fe
:105528004f04be000000060030498000000006005d
:10553800304980000060a20000f0a7000000ea00e7
:105548000000e9004f00de0000000600614b80000b
:10555800628e200000f178008000eb00f20320004a
:10556800634b8000828f510002003200614b800043
:105578008100e800614b88002629ec000000060045
:10558800889fbe0080047800194078000004e0007d
:105598000500320009047800ecff07005840780045
:1055a8000004e000fcff3a00090078004f04be0048
:1055b800000006008d40ab0019003a002609e20001
:1055c800160032000f22ab0014003a00f30320004b
:1055d8000001eb000420200020478000618e20009d
:1055e800614078000000fb0080108800020078000d
:1055f80021478000838f500001003200e408ec004e
:10560800204788002629ed002609e2000300320021
:105618007110800001006200efff32008d40a80089
:1056280000000600cda2a8000f42a9000000060055
:10563800d1a2a800cda2a9000f42a8000000060030
:10564800881f780000447800314980008100e80014
:10565800f0032000808f500004003e0008407800ce
:10566800baff0700d3ff0700010037000044eb0032
:10567800084078004f04780000000600889fbe00ac
:10568800000478008144780008007800bdee070027
:1056980031498000010140000000eb00f1032000c7
:1056a800810f510008003e0008007800b4ff070091
:1056b8000904e00002003200d0c0b300a3ff0700d5
:1056c800bcff0700080078004f04be000000060079
:1056d800809fbe00829fbe00841f78003400f800bf
:1056e80000002000a0018800f00320000002eb0069
:1056f800911080002809e3000a003e00524980000a
:10570800c3922000817179002829ec008400780078
:105718002a09e30002003200514980008100e800b4
:10572800514988000e02ab00f1ff3a008520a9001c
:105738003400f9004f0278004f01be004f00be0050
:1057480000400600809fbe00829fbe00841f780034
