:020000040000fa
:080000000001040000000000f3
:020000040000fa
:04000800e001000013
:020000040000fa
:04000c00e00100000f
:020000040000fa
:04001000e00100000b
:020000040000fa
:04001400e001000007
:020000040000fa
:04001800e001000003
:020000040000fa
:04001c00e0010000ff
:020000040000fa
:04002000e0010000fb
:020000040000fa
:04002400e0010000f7
:020000040000fa
:04002800e0010000f3
:020000040000fa
:04002c00e0010000ef
:020000040000fa
:04003000e0010000eb
:020000040000fa
:04003400e0010000e7
:020000040000fa
:04003800e0010000e3
:020000040000fa
:04003c00e0010000df
:020000040000fa
:04004000e0010000db
:020000040000fa
:04004400e0010000d7
:020000040000fa
:04004800e0010000d3
:020000040000fa
:04004c009010000010
:020000040000fa
:04005000ca100000d2
:020000040000fa
:04005400e0010000c7
:020000040000fa
:04005800e0010000c3
:020000040000fa
:04005c00e0010000bf
:020000040000fa
:04006000e0010000bb
:020000040000fa
:04006400581600002a
:020000040000fa
:04006800e0010000b3
:020000040000fa
:04006c00e0010000af
:020000040000fa
:04007000e0010000ab
:020000040000fa
:04007400e0010000a7
:020000040000fa
:04007800e0010000a3
:020000040000fa
:04007c00e00100009f
:020000040000fa
:04008000e00100009b
:020000040000fa
:04008400e001000097
:020000040000fa
:04008800e001000093
:020000040000fa
:04008c00e00100008f
:020000040000fa
:04009000e00100008b
:020000040000fa
:04009400e001000087
:020000040000fa
:04009800e001000083
:020000040000fa
:04009c00e00100007f
:020000040000fa
:0400a000e00100007b
:020000040000fa
:0400a400e001000077
:020000040000fa
:0400a800e001000073
:020000040000fa
:0400ac00e00100006f
:020000040000fa
:0400b000e00100006b
:020000040000fa
:0400b400e001000067
:020000040000fa
:0400b800e001000063
:020000040000fa
:0400bc00e00100005f
:020000040000fa
:0400c000e00100005b
:020000040000fa
:0400c4002c160000f6
:020000040000fa
:0400c800e001000053
:020000040000fa
:0400cc00e00100004f
:020000040000fa
:0400d000e00100004b
:020000040000fa
:0400d400e001000047
:020000040000fa
:0400d800e001000043
:020000040000fa
:04010800e001000012
:020000040000fa
:04010c00e00100000e
:020000040000fa
:04011000e00100000a
:020000040000fa
:04011400e001000006
:020000040000fa
:04011800e001000002
:020000040000fa
:04011c00e0010000fe
:020000040000fa
:04012000e0010000fa
:020000040000fa
:04012400e0010000f6
:020000040000fa
:04012800e0010000f2
:020000040000fa
:04012c00e0010000ee
:020000040000fa
:04013000e0010000ea
:020000040000fa
:04013400e0010000e6
:020000040000fa
:04013800e0010000e2
:020000040000fa
:04013c00e0010000de
:020000040000fa
:04014000e0010000da
:020000040000fa
:04014400e0010000d6
:020000040000fa
:04014800e0010000d2
:020000040000fa
:04014c00e0010000ce
:020000040000fa
:04015000e0010000ca
:020000040000fa
:04015400e0010000c6
:020000040000fa
:04015800e0010000c2
:020000040000fa
:04015c00e0010000be
:020000040000fa
:04016000e0010000ba
:020000040000fa
:04016400e0010000b6
:020000040000fa
:04016800e0010000b2
:020000040000fa
:04016c00e0010000ae
:020000040000fa
:04017000e0010000aa
:020000040000fa
:04017400e0010000a6
:020000040000fa
:04017800e0010000a2
:020000040000fa
:04017c00e00100009e
:020000040000fa
:04018000e00100009a
:020000040000fa
:04018400e001000096
:020000040000fa
:04018800e001000092
:020000040000fa
:04018c00e00100008e
:020000040000fa
:04019000e00100008a
:020000040000fa
:04019400e001000086
:020000040000fa
:04019800e001000082
:020000040000fa
:04019c00e00100007e
:020000040000fa
:0401a000e00100007a
:020000040000fa
:0401a400e001000076
:020000040000fa
:0401a800e001000072
:020000040000fa
:0401ac00e00100006e
:020000040000fa
:0401b000e00100006a
:020000040000fa
:0401b400e001000066
:020000040000fa
:0401b800e001000062
:020000040000fa
:0401bc00e00100005e
:020000040000fa
:0401c000e00100005a
:020000040000fa
:0401c400e001000056
:020000040000fa
:0401c800e001000052
:020000040000fa
:0401cc00e00100004e
:020000040000fa
:0401d000e00100004a
:020000040000fa
:0401d400e001000046
:020000040000fa
:0401d800e001000042
:020000040000fa
:100200006fa120000eff20000e01880000000000fa
:10021000000020000000e000020032000001200089
:10022000200288000c0007008075210001002000da
:1002300011000700000020000000e0000200320072
:100240000000020000000000641302000000000033
:100250000040da000000fe004440a900a019200080
:100260000000e0000300320000002000a001880030
:100270004440a8000000060091018800800078003a
:100280000000eb0015003700e280400032a0b4000f
:100290009101ba00e280400032a0b4009102ba009d
:1002a000e280400032a0b4000002eb00472bde00e9
:1002b000f507b200602ce10004003a000059eb00a1
:1002c0008301e900fdff3e00040037006128e100e2
:1002d000010032000082eb000b00070011c3ba00de
:1002e0001101ba000604e00003003a000200e00039
:1002f000e5ff3a0000000600f607b200960188000c
:1003000082007800f5ff37003159ba008301e90017
:100310000c0032002159ba008301e90008003200c4
:100320000400e00003003a00e280400032a0b40084
:10033000f5ff370011d9ba008301e900faff3a004e
:100340008100e800e180400032a0b4000000060017
:10035000000000000000000000000000000000009d
:10036000000000000000000000000000000000008d
:10037000000000000000000000000000000000007d
:10038000000000000000000000000000000000006d
:10039000000000000000000000000000000000005d
:1003a000000000000000000000000000000000004d
:1003b000000000000000000000000000000000003d
:1003c0000040da000000fe006900e1000400350092
:1003d0006d00e100030034000002b10001003200b2
:1003e00000000500100005003200f80091018800af
:1003f0000008bb00410424006210e1000400320048
:10040000000220000010e1000a003a00510424001c
:10041000013b88000500fc0051052000313b8800ad
:10042000a10a2000313b880061e7a800000000001d
:10043000000000003200f900000006003200f80061
:1004400060042400003b8800f2ff37003200f8000f
:100450009101880041002400013b88000208bb0094
:10046000ecff37003200f8009101880051002400b1
:10047000013b8800030120003218bb008301e90022
:10048000fdff3a00e3ff370003f0a200889fbe00a3
:100490008a9fbe008c1f7800d7000700de00330063
:1004a0006450e1004f0032006420e100520032004d
:1004b00003826c0007003b000905d0000306d00052
:1004c000820f54000c065d00020039000200320069
:1004d00089017800030678008582550004003d00fc
:1004e0000003fd008103fd008502ea008b854200c8
:1004f000840f720002003b0060001000e0801800d2
:100500006011b8000005eb007a28e1000a0039000c
:1005100006007800c75ddd00f707b2008780750030
:100520002d003700828171000a01780061056000aa
:100530008180d1000080d3008502e900f9ff3b00f3
:10054000060440008784480002003b006004140059
:10055000e0841c000988a300070032008a81710032
:1005600082817100610164008904d1000884d30094
:100570008b05e800170037000978a30013003a0044
:100580000b00e000130034008b05e9000804440070
:1005900089844c000a4474000978a3000d003a00d5
:1005a0000b00e000070034008b05e900080444005c
:1005b00089844c0001003a000b0020000978a30058
:1005c000f7ff32000001eb0002003700828171006a
:1005d0000a0178004d0007000cf0a70001f0a00010
:1005e000960037006420e10002003a00838f6c001f
:1005f000960033000801be000200be008f003700e5
:1006000014002000d8003700f4ff2f00d600370078
:100610000001be00630007000470a70003f0a10002
:100620006509b100160032000d0035006828e100b0
:1006300006003500f0ff2f00f1ff27000300e00067
:1006400013003b00010028000000050000004000ee
:10065000818048008502e900fcff3a00080037006d
:10066000f88f420002003c008000eb000000050013
:100670008100d1000080d3008502e800fcff3a0031
:100680000300e00002003b0060001000e080180062
:10069000000006000001be00420007000470a70031
:1006a00003f0a10003f8a30013003a006509b100ac
:1006b00010003200090035006928e1000200350011
:1006c0000100280000000500000040008180480073
:1006d0008502e900fcff3a0000000600f88f4200a6
:1006e000050035008100d1000080d3008502e800bc
:1006f000fcff3a00000006008000eb00000005004f
:100700004f89de0082017800b200370081002000ae
:10071000618055000b003d000b00200061fe2f00a2
:100720000100e1001d00340082817100610164005c
:100730008904d1000884d3000000e800faff3a00e1
:10074000710020006100640003007000020060007e
:100750000900320061044400e0844c000988a500cf
:10076000050032008b05e8006808e10002003a004d
:100770008904d1000884d300f20f20000258e10060
:1007800005003d00c75ddd00f907b20089807500f6
:1007900008007800000006000bf827008b007800a6
:1007a00000000500c70ade00f107b200f50fb20035
:1007b00008003200e1cf4200020032000170a000c8
:1007c00024000500810f70000100320004080500bc
:1007d00044000500810f700002003a00140005007b
:1007e0008502e9000000400081c04800fcff3b009a
:1007f0000170a000240005000004be00e9ff07000e
:100800000003be000405be000200be00e5ff0700b5
:10081000844f7500000006000200be006450e10035
:10082000050036006420e100020036000968a300dc
:1008300001003a000800be000160a0004f067800e9
:100840004f05be004f04be0000000600f0ff2f0061
:10085000f1ff2700f9ff3700889fbe008a9fbe0086
:100860008c1f7800e4ff0700ebff330003866c0069
:100870006450e100240032006420e10027003200cf
:100880006150e100220032006120e10021003200cd
:100890008b854200eb07b1000134b800003ab80084
:1008a0000804420089844a00013ab8000030b800c8
:1008b0008880400009014a00040033000000400025
:1008c00081804800020149008b05e900c909dd006b
:1008d000830170000100320013002000c814de0004
:1008e0004814dd004709de001200b200c808de002f
:1008f0000884700085ff070001f0a1000cf0a7003c
:1009000001f0a000cdff37006120e100cfff3200f1
:100910000801be000200be00f7ff37006150e10091
:10092000fcff3a00c9ff37006022b8000602200031
:100930000000d0008180d2000482d2008582d200e3
:100940000000a0000202520083825a00030031001e
:100950000202420083824a000000a1000603e9006f
:10096000f3ff3a0000000600889fbe008a9fbe0089
:10097000841f7800a0ff07004f00780011003300ab
:10098000f0ff2f00838f6c0006003b00040565001c
:100990000a00a7000800370009f0a6001000200098
:1009a00008003700820f5400838f5c000300390079
:1009b0001000200001003e000000200009f0a70008
:1009c0000000ea004f05be004f04be000000e0003a
:1009d00000000600881f7800030478000300e00090
:1009e00007003d0060001000e08018006001190061
:1009f000e081190002003b0001f02d0003003700e8
:100a00000400070008f0a70001f0a0004f047800e0
:100a100000000600889fbe008a9fbe000082700012
:100a20000402710004827100260032000004be003e
:100a30000200be006011b8006b0920009502200082
:100a40000182cf000a0039000541b1000082cf00c9
:100a5000070039000541b1000982cf0004003900c8
:100a60000541b1000882cf00010039000541b10005
:100a700005425200120032000a003b0082817100e0
:100a8000610164008100d1000080d3008984d3001b
:100a90000884d3008b05e8000442e800f7ff3a0021
:100aa000070037000804440089844c000000480017
:100ab000818048008b05e9000442e900f9ff3a0013
:100ac00012ff07004f05be004f04be0000000600e5
:100ad000889fbe008a9fbe008c9fbe008e1f78003c
:100ae000010678000c00e00001003200000e7800e2
:100af00080047800090578008a047800b905fb00b5
:100b00000b00780030fe07000000e000f9ff3a001b
:100b1000d0022000808f550003003a0009057800bc
:100b200018c0b300050037000044eb00b0022000fd
:100b3000808f550001003a00090578006000b80078
:100b40008004eb000007eb00010037000a05e80015
:100b50000a0178000848a30005003a00e3c2b30088
:100b60009acf110002003a000844a000f7ff3700b6
:100b70009a4578008b01fb000303b100e98f510017
:100b800016003e000814a0000801fb00e98f540085
:100b90000e0032000248a300010032000e07e900f7
:100ba0008904e800a200200003002000990107004a
:100bb00002cdb30002c145000281fb008001eb00c1
:100bc0000000410081804900e0ff37000248a30097
:100bd000deff3a000e07e800dcff370053c6b30023
:100be00083cf5500040032008004eb0053c4b300ef
:100bf00083cf55002d003a005a417800d3c2b3008c
:100c0000834f510002003a000834a000030037006f
:100c1000b3c2b300834f510001003a000a05e80057
:100c20000a017800020578003a42780003c3b30055
:100c3000834f5200faff32008402fb000503b1002b
:100c40008004eb00e98f520015003e0083445200ff
:100c50008984fb000a017800124278008402fb00bc
:100c60000503b100e98f52000d003e006a4bb90048
:100c7000834452008984fb008684440052427800f9
:100c80008402fb000503b100e98f520004003e001e
:100c90006a4bb900834452008984fb008684440077
:100ca0000838a300010032008904ea000c00e000cb
:100cb000030032000818a30001003200020e780081
:100cc0008ffe07000005be000006be006011b800e0
:100cd0004bfe0700000178006000b8000200e00051
:100ce000580032008e84440032f82f00828f540066
:100cf00003003d002202200092508800510037007e
:100d000000082000808f54000700340020022000db
:100d1000905088000808a300450032000000200021
:100d200001f82f00470037000900e0001b003d00dc
:100d30008904ea0006003700922f200053012500a5
:100d40000a00be00f10007000005be00ea8454005e
:100d5000e98f5400f8ff3c00060037000200200035
:100d6000031224000a00be00e80007000005be00d0
:100d70008904e9000900e000f8ff3a000a06be0015
:100d800002002000030820000a00be001cfe07002d
:100d90000000e00021003d001b0037000900e000da
:100da00007003a001d003700922f20005301250054
:100db0000a00be00a8fe07000005be00ea84540039
:100dc000e9cf5400f8ff3e00060037000200200083
:100dd000031224000a00be009ffe07000005be00ab
:100de0008904e9000900e000f8ff3a000a06be00a5
:100df000f2ff2f00f3f727000a00be0002fe0700f3
:100e00000000e000050034000808a3000b003200d9
:100e100000002000010828000a0037000808a3008d
:100e2000010032000df0a2000c00be0005003700ea
:100e30000000200001f82700020037000000200019
:100e4000010820004f0778004f06be004f05be0086
:100e50004f04be00000006001dff37008000eb00bd
:100e60001bff3700800078000100780030417800d7
:100e700003c2b300834f5100faff3200e94f510023
:100e8000f8ff3200edc14100834f510003003a00ea
:100e90008000780013c0b300050037008041eb00ec
:100ea000b4c2b300844f510001003a0080007800c2
:100eb0000000eb00020037006a02b90004004100a4
:100ec0003101fb000203b100e90f5100faff3600c7
:100ed0000304e000010032000000ea000000060008
:100ee0000003780081027800850178000100370056
:100ef00004037800110009008281d8008001780085
:100f00000602e8000300e000f9ff3a00034a780017
:100f1000110009008282d800000278008141780027
:100f200084027800e9cf510001003400e7c141009c
:100f300001c3b30001d341000400e000f4ff3a0014
:100f40000600780000000600881f78000004780082
:100f50000100e00005003d0008007800d3c2b300a6
:100f6000035878008100ea0001003700080078008b
:100f7000dbff0700080078004f047800000006003f
:100f8000b041780031c1510002003a000304e00092
:100f9000fbff3a000200fb000000060000017800a1
:100fa000b1417800035978000304e000fcff3a00e7
:100fb00000000600800078003104e000feff3a00e7
:100fc0000080ea000080400000000600889fbe000c
:100fd0000004be000800e00003003a00a8508000b2
:100fe0000800e000130032000800be0027000700e0
:100ff000000444001804e00004003a000000eb0084
:10100000a05088000004eb000a0037000800be0072
:101010000b00070000004400a05088001004e0000e
:10102000020032000058eb00010037000000eb0026
:10103000a0508800080078004f04be0000000600a1
:10104000889fbe008a1f7800010578008004780020
:101050000004eb00010037000804e800b940780004
:101060000104e000050032008100fb000a00780066
:10107000190007000000e000f7ff320008007800c8
:101080004f0578004f04be0000000600889fbe0098
:101090008a1f780001057800800478000004eb00c6
:1010a000010037000804e800b94078000104e000be
:1010b000050032008100fb000a00780006000700ee
:1010c0000000e000f7ff3a00080078004f057800c4
:1010d0004f04be00000006000001eb006103b800f1
:1010e0006112b8008601420066427a00814f5200c8
:1010f000040032000201e8000404e000f7ff3a00b7
:101100008001eb000300780000000600889fbe000d
:101110008a9fbe008c1f7800b7fd0700befd33001c
:1011200003866c006450e1002e0032006420e10070
:10113000330032006150e1002f0032006120e100f5
:101140003100320085855500eb07b0000900200012
:1011500008042000050037000804440089844c007e
:101160000a0031000603430087834b00000153004f
:1011700081815b00f8ff33000203be000800a0007d
:101180000804440089844c00f6ff3900c639dd00ac
:101190008301730001003200130020008904d10094
:1011a0000884d3000998a300050032000800a700b6
:1011b0000300a0008904d1000884d3008b05e80057
:1011c0008904d1000884d3000001eb000281d20021
:1011d0004efd070001f0a1000cf0a70001f0a000f7
:1011e00096fd37006420e10098fd32000801be0042
:1011f0000200be00f7ff37006120e10093fd3200de
:101200006000b800f3ff37000000200001f827005d
:10121000f0ff3700020ab900001bb9000200b80055
:0c12200081004200810043000000060035
:020000040000fa
:10122c00466f0000726d0000617400003a7300009c
:10123c0065740000202800005b4e0000616d00000a
:10124c00655d0000205b0000766100006c7500009d
:10125c00655d0000292e00002e0d0000005b0000d3
:10126c004e6100006d6500005d3d00007b000000dc
:10127c003f000000466f0000726d000061740000ba
:10128c003a20000067650000742000005b4e0000ef
:10129c00616d0000655d00002e2e00000d5b0000ee
:1012ac004e6100006d6500005d2000003d7b00007c
:1012bc0000490000647800003a000000583a000031
:1012cc00005900003a000000706f000072740000ba
:1012dc002e6900006478000028000000293a000004
:1012ec000061000064640000723a000000610000bc
:1012fc0064640000722e00006f66000073650000cd
:10130c00743a000000700000776d00002e70000031
:10131c0065720000696f0000643a00000070000004
:10132c00776d00002e6d0000617800003a300000ef
:10133c002e000000707700006d2e00006d6900001b
:10134c006e3a0000302e000000700000776d000037
:10135c002e640000743a0000006700006574000001
:10136c0000730000657400000074000065730000d9
:10137c007400000064740000006d00006300000045
:10138c006d630000700000006576000000700000c6
:10139c0065720000696f000064000000706f00004f
:1013ac00727400002e6500006e6300006f64000014
:1013bc0065720000007000006f720000742e000057
:1013cc006964000078000000616400006472000031
:1013dc000061000064640000722e00006f66000063
:1013ec007365000074000000707700006d2e000023
:1013fc006d61000078000000707700006d2e000019
:10140c006d6900006e000000707700006d2e00000a
:10141c0070650000726900006f64000000700000cd
:10142c00776d00002e640000740000007000000056
:10143c006900000064000000686500006c7000002a
:10144c000000000063680000616e0000676500002a
:10145c0064200000646500006261000067200000e9
:10146c006d6f000064650000007200006573000081
:10147c0065740000206d00006f64000065000000c2
:10148c0045720000726f0000723a0000466f000057
:10149c00756e0000642000006f750000742e000053
:1014ac0000450000727200006f7200003a490000a3
:1014bc006e7000007574000020690000732000003d
:1014cc006261000064000000524500003a00000018
:1014dc00736500006c00000072650000626f000014
:1014ec006f7400000072000065630000616c000006
:1014fc006c00000065630000686f0000006f000066
:10150c0070740000696f00006e00000072650000ce
:10151c007065000061740000002000003a000000bb
:10152c00686500006c6c00006f200000776f000095
:10153c00726c000064200000696e000020650000e1
:10154c0065700000726f00006d2e00000a00000034
:04155c00ff7f00000d
:020000040000fa
:101560008de0a8001fe1a800000006001100900017
:101570003cfe0700ae0507000000eb00000006007f
:101580000800fa009b050700a200200080007800f8
:10159000688057006cfe070011c0b30068805700d8
:1015a000ca0207000000eb000080fa0000000600fd
:1015b0000800fa00889fbe008a9fbe00dd05070074
:1015c0000004be00aa0020001bc0b30018003700b2
:1015d000880507000a0178008000780070805700b5
:1015e00059fe07008b40780070805700b702070053
:1015f00032088000400880008000eb00c000dd0061
:101600000000200000004100e0804800800f5400ee
:10161000818f5c0003003600030207000000e00039
:10162000f3ff32000621ef000a21ef000821ef004e
:10163000fd0107000000e000e5ff32000000eb00c4
:101640004f05be004f04be000080fa0000000600f7
:101650008de0a9001fe1a9001100900001fe070024
:1016600000017800cf91de000000eb00bb04070012
:101670000000eb0000000600889fbe000104780017
:101680008de0a9001fe1a9000000e00006003a007b
:1016900010c0b300300507006011b8006000b8004a
:1016a000ae040700260037000040eb002a050700c3
:1016b00018009000e9fd07000004be006011b800aa
:1016c000cffb07000000e0000e003d0002002000fc
:1016d000037024000800be005ffc07000200200029
:1016e00003f0230068fb0700c9fb07000001be00f0
:1016f000000478008000eb000200780097040700e7
:101700000d00370002e02f00f36f24000800be0038
:1017100051fc07000200200003f023005bfb0700e0
:10172000bbfb07000001be00000478008000eb0056
:10173000020078008904070008007800d60407003a
:101740000000eb004f04be0000000600889fbe00b2
:101750008a9fbe008c9fbe008e1f78000006e900a5
:10176000010578005a0078000700330021a2280004
:1017700003fe07000000e00003003200e10f560006
:1017800016003c0066003700609128001002070038
:10179000509328000e020700ca9c20001800200069
:1017a000cbc2b300020037000804e8000a85e80055
:1017b000e10f5400610032000b407800f701070090
:1017c0001a00780002020700e60f5400f6ff360008
:1017d000d0c7b300f101070051003700fe9e28007a
:1017e00008f02f00f97724009a0578009a069000f7
:1017f0008e0078000b007800e1fd07000000e0009b
:1018000004003a000d00780096fd07008050880023
:101810003e003700a19f28000b007800d8fd07008c
:101820000000e00007003a000d0078008bfd070083
:101830000801be0008fc070096fb0700ac04070087
:101840003200370021a028000b007800ccfd0700f3
:101850000000e00007003a000d0078007ffd07005f
:101860000801be00fcfb07008afb0700a704070075
:1018700026003700a1a028000b007800c0fd07005b
:101880000000e00004003a000d00780075fd07003c
:101890008b0407001d003700c1a128000b00780051
:1018a000b7fd07000000e00004003a000d007800da
:1018b0006afd07002f04070014003700e1a128008b
:1018c0000b007800aefd07000000e00004003a00c5
:1018d0000d00780061fd0700290407000b003700a8
:1018e00001a228000b007800a5fd07000000e00021
:1018f00004003a000d00780058fd0700230407009b
:1019000002003700e0932800b10107000c86e900cf
:10191000e10f56000200340064054500b2ff3700b5
:10192000b80107000000eb004f0778004f06be002b
:101930004f05be004f04be00000006001a007800ec
:10194000a301070098ff37002000fa00889fbe001f
:101950008a9fbe008c1f7800000578008104780003
:1019600021a228005900780085fd07000000e00052
:10197000060032000a05e900040033000040eb00d5
:101980004240a90017003c00dd0037008040eb001a
:1019900000942800cd010700699b2000180020005a
:1019a0000045eb00cbc2b300020037000804e8009a
:1019b0008984e800e10f5400da0032000b4078001f
:1019c000760107008a40780019007800bf010700ff
:1019d000ea0f5400f5ff3600d0c7b300ac01070092
:1019e000c70037001c0420000bc3b30019047800a3
:1019f0000004e00002003200c0c2b300670107002b
:101a0000419d2800080078005dfd07000000e0000f
:101a100020003a00f09528006d0107001805070026
:101a2000804078000b4078000104e00001003200a3
:101a300010c3b30059010700c0c2b300570107002b
:101a400040962800620107001105070080407800d9
:101a50000b4078000104e0000100320010c3b30025
:101a60004e010700c0c2b3004c0107007096280069
:101a7000570107000a050700804078000b407800f6
:101a80000104e0000100320010c3b300430107006d
:101a900094003700119e28000800780038fd0700e8
:101aa0000000e00016003a0059007800edfc070045
:101ab0000004780008007800d80407000201200024
:101ac0008000780060fd2f000f0040001efd070021
:101ad000a09628003e01070001c3b3000140440066
:101ae0002e010700409728003901070060fd2f00f4
:101af0000f004000360107000a05e90079003700b1
:101b0000a19e2800080078001dfd07000000e000ed
:101b10000c003a00709728002d0107008002070092
:101b2000a20020008000780060fd2f000f00400020
:101b300005fd070060fd2f000f0040002401070095
:101b400068003700f19e2800080078000cfd0700af
:101b50000000e0000b003a00d09728001c010700ad
:101b6000a20020008150800060fd2f000f00400087
:101b7000f5fc070060fd2f000f0040001401070076
:101b800058003700a1a0280008007800fcfc0700de
:101b90000000e00015003a00909828000c010700b2
:101ba000d1030700a8002000110009000880d80018
:101bb0008000fd000801780060fd2f000f0040004c
:101bc000e1fc070060fd2f000f004000000107004e
:101bd000c5030700110009000880d80002c3b30044
:101be00002c04000ed0007003e003700a19f280022
:101bf00008007800e2fc07000000e0000f003a0057
:101c0000c00307000004780050992800f000070086
:101c1000110009000c84d8008000fd00a200200003
:101c200060fd2f000f004000c7fc070060fd2f0083
:101c30000f004000e60007002a00370021a028001e
:101c400008007800cefc07000000e0000f003a001a
:101c5000b303070000047800009a2800dc000700a6
:101c6000110009000c84d8008000fd00a2002000b3
:101c700060fd2f000f004000b3fc070060fd2f0047
:101c80000f004000d20007001600370051a12800c5
:101c900008007800bafc07000000e0000f003a00de
:101ca000a103070000047800b09a2800c8000700cc
:101cb000110009000c84d8008000fd00a200200063
:101cc00060fd2f000f0040009ffc070060fd2f000b
:101cd0000f004000be00070002003700e09328001c
:101ce000bb000700c70007000a05e9004240a90041
:101cf000030034008984e80010c0b3003bff3700c4
:101d0000d0c0b300a5000700be0007000000eb0034
:101d10004f0678004f05be004f04be000080fa0059
:101d2000000006008a40780019007800e7000700ec
:101d30001eff37000001eb00319b280040ca200045
:101d4000d70107000001eb00719b280060ba20005a
:101d5000d30107000001eb00b19b280000ac20007c
:101d6000cf0107000001eb00019c2800c0b3200058
:101d7000cb0107000001eb00319c280080b220005d
:101d8000c70107000001eb00619c280000ab2000a8
:101d9000c30107000001eb00a19c280080ad2000da
:101da000bf0107000001eb00d19c280060ab2000c0
:101db000bb010700000006000040280070108800ea
:101dc0000008b00060108800a0002000a01088006b
:101dd0008520a9008540a900c00480000040a00023
:101de0000050a1000060a000c0048800f0cf2f00c8
:101df0009800b60000a0a000c00488008d20a800b4
:101e00008d40a8002829ef006e29ef006e09f80028
:101e10002a09f9002629ef00e428ef00e408f80079
:101e20006c09f9000000060040498000000006002f
:101e300041498000724b80008081eb000100e0008e
:101e400011003200c3922000e3417900f403200026
:101e500080cf510009003a00060037000201e80077
:101e600004016100c3922000e341790080cf51005a
:101e700002003a0082017800030037008100e90087
:101e8000f6ff3a008081eb000300780000000600b6
:101e9000714b800001004000f003b200c1922000ad
:101ea0006140780000000600714b80008100400016
:101eb000f103b200714b88002829b500000006002c
:101ec0002829ef0000000600d7ff070080007800f7
:101ed0000040eb000100e0000c003200704b80007d
:101ee000c1922000614078008000eb00f2032000e6
:101ef000734b8000828f510002003200714b8000d2
:101f00008100e800714b88002829ed0000000600e0
:101f1000889fbe008a9fbe000005780001047800fb
:101f20000000eb000a00e000100032000800e000b2
:101f30000e0032008a04780089057800e2ff07006d
:101f4000ed4f500004003200805c78000804e90086
:101f5000f9ff3a0003003700804ceb000a007800dc
:101f600002003700804deb000a0078004f05be00ec
:101f70004f04be000000060030498000000006004b
:101f8000304980000060a20000f0a7000000ea00d5
:101f90000000e9004f00de0000000600614b8000f9
:101fa000628e200000f178008000eb00f203200038
:101fb000634b8000828f510002003200614b800031
:101fc0008100e800614b88002629ec000000060033
:101fd000889fbe0080047800194078000004e0006b
:101fe0000500320009047800ecff07005840780033
:101ff0000004e000fcff3a00090078004f04be0036
:10200000000006008d40ab0019003a002609e200ee
:10201000160032000f22ab0014003a00f303200038
:102020000001eb000420200020478000618e20008a
:10203000614078000000fb008010880002007800fa
:1020400021478000838f500001003200e408ec003b
:10205000204788002629ed002609e200030032000f
:102060007110800001006200efff32008d40a80077
:1020700000000600cda2a8000f42a9000000060043
:10208000d1a2a800cda2a9000f42a800000006001e
:10209000881f780000447800314980008100e80002
:1020a000f0032000808f500004003e0008407800bc
:1020b000baff0700d3ff0700010037000044eb0020
:1020c000084078004f04780000000600889fbe009a
:1020d000000478008144780008007800b5fb070010
:1020e00031498000010140000000eb00f1032000b5
:1020f000810f510008003e0008007800b4ff07007f
:102100000904e00002003200d0c0b300a3ff0700c2
:10211000bcff0700080078004f04be000000060066
:10212000809fbe00829fbe00841f78003400f800ac
:1021300000002000a0018800f00320000002eb0056
:10214000911080002809e3000a003e0052498000f7
:10215000c3922000817179002829ec008400780066
:102160002a09e30002003200514980008100e800a2
:10217000514988000e02ab00f1ff3a008520a9000a
:102180003400f9004f0278004f01be004f00be003e
:1021900000400600809fbe00829fbe00841f780022
:1021a0003400f80000002000a00188002609e200a9
:1021b000160032000f22ab0014003a00f303200097
:1021c0000001eb000420200020478000618e2000e9
:1021d000614078000000fb00801088000200780059
:1021e00021478000838f500001003200e408ec009a
:1021f000204788002629ed002609e200030032006e
:102200007110800001006200efff32003049800051
:1022100000f0a7000000ea000000ea004f00de0026
:102220004a00dd00f1bf2f00620480008280600060
:1022300081007000610488008540a9003400f90025
:102240004f0278004f01be004f00be000040060064
:102250000000fe000000eb0000000600e10f50004f
:102260000e0034009100900040c6b300914f100062
:1022700006003a0011c0b300008020000148780039
:1022800080a2280091ff0700040037000068ef00db
:1022900011c0b300b0a328008cff07000000eb00c2
:1022a000000006000000e000030034001100900070
:1022b00011c0b30085ff07000000eb00000006001e
:1022c000889fbe008a9fbe008c9fbe000004be0097
:1022d000e0ff2f000800e000240034008a82200084
:1022e0008005eb000d0220001a067800e20f560070
:1022f000190032007ab897009900780020fb070097
:102300000000e00014003a00104180000000e000ee
:1023100003003200e20f50000f003e0008003700bb
:10232000e10f56000c003a006658b90042822000c6
:10233000620178000800be00020001000b003700b7
:102340006658b90042822000620178000800be0091
:1023500002000100050037008b05e8006605450016
:102360008d8f5500e0ff3a000080eb004f06be0065
:102370004f05be004f04be00000006004000fa00fa
:10238000889fbe008a9fbe008c1f780000067800e0
:102390000084eb000c00e000300032008c0078007c
:1023a00060fb2f000f004000fcfa070031a9280055
:1023b00060fb2f000f00400004fb0700b0af9f0040
:1023c0000004eb000000e0000d00320069fd2f006a
:1023d0008f8444003aa928008005eb000804e80037
:1023e0008a0078000b007800f8fa0700802c78004b
:1023f0000000e00002003200f00f5400f7ff3a0046
:1024000061fd2f008f80400008007800acff0700be
:1024100000047800e10f440006003200400620006e
:10242000800f54000d003200e20f440008003a0013
:102430000400370011c0b30060a4280023ff070088
:102440000600370011c0b30070a528001fff070069
:102450008c00780010802000d0fa07000800780077
:102460004f0678004f05be004f04be000080fa0002
:10247000000006000048e20005003200a0a6280087
:10248000d3fe070011c0b300108020000fff07002b
:1024900010802000b9ff0700400620000000060061
:1024a00043418000e28f510011003200e48220009d
:1024b000130020000502200026002000940f1300c6
:1024c000060032008301e80066024200858f510059
:1024d000f9ff3a000082eb000f0037000082eb00aa
:1024e00005022000858f510002003a000a003700e3
:1024f0008001eb00661ab900840178004482200054
:1025000000b279000480e80001b079000080e800a2
:1025100002b079000002eb00040078000000060021
:1025200024020700815080000100400000000600e6
:102530004f00de0000000600889fbe008a1f780062
:10254000e8ff2f00e10f5000110034008184e80003
:102550000005e900890078000a00780058ff0700ac
:102560000004780008007800f1ff07000004e00094
:1025700007003a000080eb000000e900feff3a008f
:1025800029fe07000000e000f2ff32000004eb002b
:10259000080078004f0578004f04be0000000600d8
:1025a00010418800e10f500003003600e20f500098
:1025b00008003a0004003700aefe07000040eb00c0
:1025c0000f02070003003700adfe070010c0b30084
:1025d0000b02070000000600881f78000000e000e2
:1025e00011003400110090001efa0700000478006a
:1025f0000800e00003003a0010002000e8ff070098
:102600000b003700c6ff0700880f500003003a0098
:1026100020002000e2ff0700050037000000eb006b
:10262000dfff0700020037000000eb00dcff0700bf
:102630000000eb004f0478000000060080822000bc
:10264000020c200000014100210020000108780058
:1026500066004000820f5000fcff3a00120020008c
:10266000e1a62800c02e21008dff070012002000e7
:1026700021a728008012210089ff070012002000f6
:1026800091a72800a023210085ff07000001eb008f
:1026900001a828002015210081ff07000001eb00a0
:1026a00051a82800e01221007dff07000001eb0087
:1026b000c1a82800c029210079ff07000000eb0015
:1026c000b7ff070000000600e4874700889fbe00b0
:1026d0008a9fbe008c9fbe008e1f78009d0207005f
:1026e00088020700100020007a0207000000eb00bb
:1026f00080bf9f000006eb009e9927006d662800b2
:1027000092020700da09e200fdff3a004f010700dc
:10271000e10f5000faff3a00e84e8000f94e8000c9
:1027200034010700cf80de000000540081805c008f
:10273000f3f707000004be00204f8800314f8800e7
:10274000004f8000114f8000edf707000001be0030
:102750000800be004df70700adf707000005be00fa
:10276000004f8800114f8800424f8000534f800077
:102770000800be0038f807000004be000a00be00d2
:10278000dff70700624f8000734f800032f80700c8
:102790000001be000800be003cf707000004be00b8
:1027a0003233230033f72b0097f707000000e000d7
:1027b0001d0034003233230033f723000800be002d
:1027c0008ff707000000e00017003d006011b8001f
:1027d0000800be008af707000000e00009003d0085
:1027e00002002000037024000800be001af8070051
:1027f0000200200003f0230023f7070084f70700fe
:102800001a00370002e02f00f36f24000800be001a
:1028100011f807000200200003f023001bf7070057
:102820007bf70700110037003233230033f72b000a
:102830000800be0072f70700800078000d007800e5
:102840000100e000090035003233230033f7230094
:102850000800be006cf70700800078000e007800ca
:102860000100e00001003c000000eb00e24e8000af
:10287000f34e8000e00f5100e08f59001a00350040
:10288000e00f5100e08f590002003a0000064600b8
:10289000120037000c004000c2cc2e0002014000a4
:1028a00041662600810f51000700360031332100b8
:1028b000810f50000600340081992700810f5000dd
:1028c00005003c00050037000006780003003700d3
:1028d0003c332100010037000e0678000c00780020
:1028e0006d00070086ff3700e00f5100e08f5900b0
:1028f00004003a008fb897008080400081bf9f009d
:10290000130037000fb99700020040008e0040000e
:1029100052662600828f500007003600d1cc2e0070
:10292000810f500006003d0072662800820f5000a3
:10293000060035000600370080bf9f000400370006
:10294000d0cc2e0080bf9f00010037008dbf9f00bc
:102950000fb897005000070069ff3700d04e88007d
:10296000e24e8800f34e8800e029ef00e229ef00f4
:1029700000000600404f8800514f8800000006000c
:10298000604f8800714f880000000600804f88006b
:10299000914f880000000600dc82a90000012000a1
:1029a000000e8800c221ef00f409d500200e880037
:1029b00000662000400e8800ca21ef00cc21ef0005
:1029c000d021ef0000802200a00e8800d821ef0067
:1029d000da21ef0088e0a9003005800000c0a000e7
:1029e00000d0a00000e0a0003005880090e0a80022
:1029f000c1e1a800dc82a900000006008000780088
:102a0000e04f8000810f500006003900c04f800069
:102a1000810f5000020036000000eb00010037007b
:102a20000100780000000600881f7800014478004b
:102a3000f2ff07000000e0000a003200e14f5400fe
:102a400003003a00c00e8800da21ef0007003700cb
:102a5000e14f440003003a00d821ef00d00e880077
:102a600002003700d821ef00da21ef004f04780090
:102a700000000600a24f80000201b8004118dd00ee
:102a80004f11de0002017000cf19de000200780055
:102a9000e5ff070000000600000178000200780052
:102aa00000f0a7000000ea0080c0eb000200e00098
:102ab0000100340011c0b300eeff07000000060063
:102ac0008000d100210e8800a04f8800d24f8000e6
:102ad0000201b800e34f8800b14f80000100b80048
:102ae000c14f880000000600a04f800000000600d3
:102af000d04f8800a14f80000100b800e14f88004e
:102b000000000600d04f800000000600b04f880093
:102b1000a14f80000100b800c14f880000000600ee
:102b2000b04f800000000600d10e8000c00e800073
:102b3000810f500001003100010078008000eb009f
:102b4000c000dd0000002000a24f80008001eb00eb
:102b500075f70700000006000004a2006100600095
:102b60004400dd00f1fe2f00e2168000828060004c
:102b700081007000e116880000000600007220004d
:102b800010098800000120002009880028a1ef001a
:102b9000f0ff2700300988008900a9000000060026
:102ba0008de0a900c0c0a80085e0a900d004800085
:102bb00000c0a10000d0a00000e0a000d004880068
:102bc0001fe1a9001fa1a9001ec1a9001e81a90023
:102bd0001ea1a9001e61a8001e21a9001421ef005a
:102be0001821ef001621ef000000060030098000d8
:102bf00000000600305080000000060030508000c9
:102c000002192000110009000200d800000006008f
:102c1000610060004700dd00f1f72f00120980001d
:102c200082806000810070001109880000000600a9
:102c300002e224000201b800f24f8800035088002d
:102c40006c00b900105088000000060004cabf00e4
:102c50000000fb0000000600801f78003400f80030
:102c600000002000a001880010508000080ae30046
:102c700009003a0010c0b30004eab70010002800b1
:102c80002601b40030508800f0ff2700300988008a
:102c9000082aef0001003700046aef00082aec0060
:102ca00088e0a9003400f9004f00780000400600d9
:102cb0003600f800809fbe00829fbe00849fbe0049
:102cc000869fbe003400f80000002000a0018800ac
:102cd0001fe1a900a2088000b00880008000eb007e
:102ce000c000dd000000200000004100e08048003e
:102cf0006c09b9006c00b8008100410002e22400b8
:102d00000300200008f70700105088001421ef008e
:102d10001821ef001621ef003400f9004f03be0028
:102d20004f02be004f01be004f00be003600f9004a
:102d300000400600f04f80000150800000000600b7
:102d4000d902a800d802a800d822a800c602a8006c
:102d5000c622a800a802a800a822a800c662a8004f
:102d6000c682a800c6a2a800a862a800a882a800df
:102d7000a8a2a800d842a900c642a900d202a90070
:102d8000d222a900dc42a900ca42a900d602a900a9
:102d9000d622a900d1a2a800cdc2a800cda2a90028
:102da000d862a900d882a900d8a2a900dc82a80014
:102db00000000600d0168000610060000000a20044
:102dc0008000eb00da22ab0001003a008100200015
:102dd000808040000000eb00c802ab0001003a0018
:102de00040002000008040000001eb00c822ab0042
:102df00001003a002200200002004000000006000e
:102e000061006000e1ff2f00b21680008280600048
:102e100081007000b116880000000600e30f50002a
:102e20000f00320005003c00e10f500008003200a6
:102e3000e20f500010003a0007003700e40f500086
:102e400009003200e50f50000b003a00080037007f
:102e50004016800009003700701680000700370018
:102e6000a016800005003700d01680000300370050
:102e700000178000010037000080eb000000060012
:102e8000401680004c00dd004f00de000000060010
:102e9000401680004b00dd004f00de000000060001
:102ea000401680004a00dd004f00de0000000600f2
:020000040000fa
:102eb000700900004600000000000000fe0900004c
:102ec000060000000200000080841e0000b0040024
:102ed000040a00000600000000000000f4090000e1
:102ee0000a000000020000003e06660026ef000017
:102ef00032f3ee0005000000e40800008c00000042
:102f0000000000000a0a00000600000000000000a7
:102f1000e80900000c000000020000006f128300ae
:102f20003a17b700d1386f0012833a00da0900006f
:102f30000e00000000000000b609000024000000a0
:102f400002000000d489e10089ea8900ef89fa00d3
:102f500089028a000a8a15008a1c8a001e8a2000bb
:102f60008aef8900fa8902008a0a8a001c8a1e00f8
:102f70008a208a00100a00000200000002000000ff
:102f80001000000000080000e40000000000000045
:102f9000120a00000200000000000000140a0000f5
:0c2fa0000200000000000000c6188000c5
:020000040000fa
:102fac000000eb00000006000000eb000000060033
:102fbc00a0209000102090000202200007f50700ce
:102fcc0001002800023b800002806000fdff3a00f7
:102fdc0001002800023b800002806000fdff3a00e7
:102fec000000060000219000017079000201e80049
:102ffc0002209800f1032000010161008001eb0028
:10300c00810f510002003a00e9ff07001300200075
:10301c000300780000000600889fbe008004780042
:10302c0001047800984078000104e00005003200ab
:10303c0009007800ebff0700d84078000104e0009d
:10304c00fbff3a000000eb004f04be00000006003e
:10305c00881f78000000eb00d1ff07000004780007
:10306c0061a9280008007800ebff07000800780031
:10307c00cfff07004f04780000000600f0f12f008e
:10308c004220b60011e1a90011a1a90010c1a900ac
:10309c001081a90010a1a9001061a8001021a9009d
:1030ac000621ef000a21ef000821ef0000000600c6
:1030bc00740ab9007401b8008301420062508800a0
:1030cc007350880000000600cf00dd00f2ff2700df
:1030dc00830880000301610002817000820888006f
:1030ec000004e00001003a000a2aef00000006008c
:1030fc0050508000000006004dfd07000afb070041
:10310c0000000600000006002000fa00d0c0b3004a
:10311c0044fb0700e10f40000700320001022000d1
:10312c0000fe2f000f00400076fb070000fe2f0072
:10313c000f0040008efc07000080fa000000060023
:10314c00f1ff07000000060001022000123a800087
:10315c0002806000fdff3200f6fe07000bfe070048
:10316c0083fe0700c5ff070010fb07000040eb00c3
:10317c0076fe07000040eb00000006000000060091
:020000040000fa
:04318c00000000003f
:020000040000fa
:0200000400fffb
:10f8000000000000000000000000000000000000f8
:10f8100000000000000000000000000000000000e8
:10f8200000000000000000000000000000000000d8
:10f8300000000000000000000000000000000000c8
:10f8400000000000000000000000000000000000b8
:10f8500000000000000000000000000000000000a8
:10f860000000000000000000000000000000000098
:10f870000000000000000000000000000000000088
:10f880000000000000000000000000000000000078
:10f890000000000000000000000000000000000068
:10f8a0000000000000000000000000000000000058
:10f8b0000000000000000000000000000000000048
:10f8c0000000000000000000000000000000000038
:10f8d0000000000000000000000000000000000028
:10f8e0000000000000000000000000000000000018
:10f8f0000000000000000000000000000000000008
:020000040000fa
:0200000401f009
:04000000f6bf000047
:020000040000fa
:0200000401f009
:04000400ff7f00007a
:020000040000fa
:0200000401f009
:04000800dfff000016
:020000040000fa
:0200000401f009
:04001400ffff0000ea
:020000040000fa
:0200000401f009
:04001800ffff0000e6
:00000001FF
