:020000000F28C7
:10000800803120007F08F200911D0B28EF20720834
:100018002000FF0009001028F701F8010622F90066
:100028000722FA002000BD287608803A2000A300A5
:1000380080302302031D222801307502031831285D
:1000480075092000A3007609A400A30A0319A40ACD
:100058002308A5002408A600362876082000A60054
:100068007508A5002535A700260DA800F61F3E280F
:1000780078143F2878100030840082308500003FD3
:100088002000A300013FA40024082802031D4E28D5
:100098002308270203185228A701A801780C013960
:1000A800A30078080139230603196E289110911CC2
:1000B8005B2821008C160C14781C6628FF30F3008E
:1000C800FF3068280030F300F400D620200091109B
:1000D800911C6C2827082804031D762821008C16FB
:1000E8000C149128781C812821008C160C102000F3
:1000F8002808F4002708F300902821008C120C141B
:1001080020002709A3002809A400A30A0319A40AA8
:100118002308F3002408F400D620781C9528F81446
:100128000800F810080021008C160C1423000C108D
:1001380022001D149D100C108C1220001C118730F9
:100148009C051C08FC3902389C00FF309B001C15DC
:10015800250013083F3980389300CF3093050F30BE
:1001680093041616161096100030F500F6001820A5
:100178000800F03021009900032202308400823008
:100188008500000805210B178B1708222000A900FD
:10019800AA012908AA00A9012908F5002A08F600D9
:1001A8001820C92874082500910074082000A100AF
:1001B8007308A0000630A136A00C890BDF282008A0
:1001C800A200A20E2500130820002206CF3922061D
:1001D8002500930008002000911D0029240014190F
:1001E8000029941AFC281108F0007008F100002971
:1001F8001108F0007008F70020009111240015166E
:100208000800F300C0308B0073352400920084305E
:100218009400363095009030960097012100911592
:1002280020009111080021000C1223000C1222005A
:0A0238000C12CE3027009A000800D7
:10040000333433340E3497201721080064346434B5
:040410007708080061
:020000040001F9
:04000E00A4D9FFFF73
:00000001FF
