:020000001128C5
:100008007E14803120007F08F200911D0C28F82012
:1000180072082000FF007E1009001228F701F8017D
:100028003021F9003121FA007E102000C628760818
:10003800803A2000A30080302302031D25280130C8
:1000480075020318342875092000A3007609A40056
:10005800A30A0319A40A2308A5002408A60039281E
:1000680076082000A6007508A5002535A700260DEE
:10007800A800F61F41287814422878102A308400F6
:1000880081308500003F2000A300013FA400240820
:100098002802031D51282308270203185528A70101
:1000A800A801F81C592801305A280030A300781CF0
:1000B8005F28013060280030230603197728911043
:1000C800911C642821008C160C14781C6F28FF30B2
:1000D800F300FF3071280030F300F400DF20200027
:1000E8009110911C752827082804031D7F282100DA
:1000F8008C160C149A28781C8A2821008C160C104F
:1001080020002808F4002708F300992821008C1201
:100118000C1420002709A3002809A400A30A031926
:10012800A40A2308F3002408F400DF20781C9E2882
:10013800F8140800F810080021008C160C1423008D
:100148000C1022001D149D100C108C1220001C1184
:1001580087309C051C08FC3902389C00FF309B0046
:100168001C15250013083F3980389300CF309305BC
:100178000F3093041616161096100030F500F6008E
:100188001B200800F030210099002D212C3084001C
:100198008130850000080E210B178B1732212000B3
:1001A800A900AA012908AA00A9012908F5002A0816
:1001B800F6001B20D228740825009100740820003E
:1001C800A1007308A0000630A136A00C890BE8280E
:1001D8002008A200A20E2500130820002206CF390D
:1001E80022062500930008002000911D09292400FB
:1001F80014190929941A05291108F0007008F1004A
:1002080009291108F0007008F70020009111240056
:1002180015160800F300C0308B00733524009200D7
:100228008430940036309500903096009701210074
:10023800911520009111080021000C1223000C12C6
:1002480022000C12CE3027009A00080033343334D1
:100258003934A02020210800643464347708080069
:020000040001F9
:04000E00A4D9FFFF73
:00000001FF
